:020000022000DC
:1060000000000120756302005D6302005F6302000F
:106010006163020063630200656302000000000028
:1060200000000000000000000000000067630200A4
:1060300069630200000000006B6302006D630200F0
:10604000A5C002006F630200FDC402006F6302007E
:106050006F6302006F63020085C302005DC6020029
:106060006F6302006F6302003DBC02006F630200B9
:106070006F6302001DC602006F6302006F630200BF
:106080006F630200257802006F6302006F630200F5
:106090006F6302006F630200911103006F630200DF
:1060A0006F6302006F6302006F6302006F630200A0
:1060B0006F6302006F630200000000000000000038
:1060C0006F6302006F6302006F6302006F63020080
:1060D0006F6302006F6302006F6302000000000044
:1060E00000000000000000000000000000000000B0
:1060F00000000000000000000000000000000000A0
:10610000000000000000000000000000000000008F
:10611000000000000000000000000000000000007F
:10612000000000000000000000000000000000006F
:10613000000000000000000000000000000000005F
:10614000000000000000000000000000000000004F
:10615000000000000000000000000000000000003F
:10616000000000000000000000000000000000002F
:10617000000000000000000000000000000000001F
:10618000000000000000000000000000000000000F
:1061900000000000000000000000000000000000FF
:1061A00000000000000000000000000000000000EF
:1061B00000000000000000000000000000000000DF
:1061C00000000000000000000000000000000000CF
:1061D00000000000000000000000000000000000BF
:1061E00000000000000000000000000000000000AF
:1061F000000000000000000000000000000000009F
:10620000354936480A1A02D0072291438D4634494F
:1062100034480A1A06D00722914381F309880222E2
:1062200082F3148830483149314A00F044F831484B
:106230003149324A00F03FF831483249324A00F0E1
:106240003AF832483249334A00F035F83248334997
:10625000334A00F030F833483349344A00F02BF821
:1062600033483449344A00F026F83448344900228F
:1062700000F02CF833483449002200F027F8334866
:106280003349091A082902DB002202604160314AC1
:1062900090471F481F49884205D00268043003B464
:1062A000904703BCF7E700208646EC46002000211B
:1062B000294A9047FEE7884207D0521A05D0037852
:1062C00001300B700131013AF9D17047884202D098
:1062D00002700130FAE770470000012000E0002062
:1062E00000000120000001205C6F03000423002057
:1062F000F4240020D0630200D06302003A39030086
:106300005C6F03000423002004230020B03A030044
:10631000B03A0300B03A0300B03A0300B03A0300C9
:10632000B03A0300B03A0300B03A03005A6F0300DA
:106330004C710300F4240020F4240020F4240020F5
:10634000643E0020643E0020643E0020643E002045
:10635000645E00209D63020061D40200FEE7FEE758
:10636000FEE7FEE7FEE7FEE7FEE7FEE7FEE7FEE705
:1063700000F002B8FFF7FCBF0F484FF00701884359
:1063800085460E4880470E48016841F4700101605F
:10639000BFF34F8FBFF36F8FFFF732BF09480A4932
:1063A0000A4A884207D0521A05D0037801300B7090
:1063B0000131013AF9D17047000001206D3203002C
:1063C00088ED00E09C3A0300F02200200423002026
:1063D000FEE70000C30710B507D4F023054A4008C4
:1063E000145C23401943115410BD0901C9B20F2395
:1063F000F4E700BF2825002030B5094B1C78094B75
:10640000196800239C4202DC0022104630BD11F8BE
:106410003350854201EBC302F7D00133F2E700BFEE
:10642000F42400203825002013B504460191FFF71D
:10643000E3FF38B143682BB10199204602B0BDE8B3
:106440001040184702B010BD034B044819680022E1
:10645000490800F0F6BA00BFF8240020002500200B
:1064600010B5C0B2FFF7C8FF0446007805F080FF02
:1064700063785A1E53425341834208D1044BD3E9F7
:106480000023134303D1BDE81040FFF7DDBF10BD6B
:106490002025002037B54308374AD35CC2074CBFDC
:1064A0001B0903F00F0304460D46042B25D8DFE833
:1064B00003F003262F3C4000F9B10121FFF78AFFCA
:1064C00000230DF107008DF8073000F097FB012045
:1064D000A4F12003C4F12001284A20FA01F100FAB6
:1064E00003F30B43A040D2E9004120430B43C2E930
:1064F00000039DF8070000F0A5FB03B030BD0029A4
:1065000018BF0221204603B0BDE83040FFF762BF4C
:1065100049B10321FFF75EFF0121204603B0BDE82A
:106520003040FFF781BF0121ECE70029E5D10421CC
:10653000E8E709B10321E5E7FFF74CFF29462046CC
:10654000FFF772FF0DF107008DF8075000F056FBC2
:106550000120A4F12003C4F12001084A20FA01F12E
:1065600000FA03F30B43A040D2E9004124EA000003
:1065700021EA0303BBE700BF2825002020250020D7
:106580002DE9F041124E134F00243378A34208DC6A
:10659000114BD3E90023134318D0BDE8F041FFF7B6
:1065A00053BF3D6805EBC40815F8340005F0E0FE64
:1065B00098F801305A1E53425341181A4142414142
:1065C00015F83400FFF766FF0134DEE7BDE8F0811F
:1065D000F42400203825002020250020092AF7B5C2
:1065E00005460C4616463ED905F0FAFDE8B11F4BAC
:1065F0001F481D601F4B204F1C70204B0021102294
:106600001E600DF035F91E4B00200021C3E900018A
:10661000013CE4B20326FF2C0DD11A4A1A4800218E
:1066200003B0BDE8F04000F001BA05F0A1FD00287C
:10663000DDD003B0F0BD9DF8063015F834008DF8BC
:10664000046005EBC40223F007038DF8063001A9AE
:1066500093788DF805303A4605F0CCFD013CE4B264
:106660000028D8D0E5E70720E3E700BF3825002061
:1066700028250020F424002061640200F824002072
:106680002025002081650200BC3A030070B5084D4A
:10669000084E00242B789C4201D3002070BD336843
:1066A000012113F8340005F01DFE0134F2E700BFAC
:1066B000F4240020382500201FB50021039001AAF2
:1066C00044F20100CDE9011100F004F805B05DF8D5
:1066D00004FB000038B572B60BF060F90AF0D8FF81
:1066E0000028FBD1104B114C114D1249E41AE4085B
:1066F000240444F001000BF02DF9D5F8F030DB074D
:1067000000D500BE0C4944F002000BF023F9BFF3A2
:106710004F8FEA68094B02F4E0621343EB60BFF36A
:106720004F8F00BFFDE700BFE4390300243A0300A8
:1067300000ED00E0C03A0300CC3A03000400FA0583
:106740004B1C30B5DB00044612F003009BB20DD1A8
:10675000074D2A601A44074B1A60074B1870074B05
:106760001870074B1C80074B198030BD0720FCE7D1
:1067700044250020402500203C2500204C250020F9
:10678000482500204A2500202DE9F347DFF8C08086
:10679000B8F800308B4206460D4617464CD300240D
:1067A0000DF107008DF8074000F028FA244B254A28
:1067B00025481B78008892F800C084455FFA8CF168
:1067C00038BF4C1CDBB238BFE4B2A3422ED01478E1
:1067D0001178CBB2884286BF0133DBB2002313703D
:1067E0009DF8070000F02EFA4FF6FF739C4225D06B
:1067F000DFF86090D9F800204FEAC40A42F83470FC
:1068000002EBC403AEB1A5B1104BB8F800001B6891
:106810002A4604FB003031460DF001F8D9F800306B
:10682000534400209D8002B0BDE8F0874FF6FF740E
:10683000D6E700209880F6E70920F4E70420F2E785
:106840004C2500203C2500204A2500204025002022
:10685000482500204425002070B5104C104D2278AA
:106860002B789A4200D170BD0E480F4A23781268E7
:1068700006880E4802EBC301006852F8332089886D
:1068800003FB060090470A4922780988D3B2914257
:1068900086BF0133DBB200232370E0E74C250020E4
:1068A0003C250020482500204425002040250020CC
:1068B0004A25002010B5D0E90243D1E90202A042E6
:1068C00072EB03032CBF0120002010BDD0E9003083
:1068D0001847000008B50A4800F08FFF094AD2E9BE
:1068E0000031C018084BD3E9002341F10001904268
:1068F00071EB030303D210F1807041F1000108BD78
:106900000423002058250020D025002037B5054657
:106910000C460A4801A903F0D2FF60B1057044603B
:1069200001A9064803F0F5FF18B1054800F06AFF19
:10693000002003B030BD0420FBE700BFBC250020D1
:10694000042300201C4B37B51D78044675B380B373
:10695000037F03F0FF054BB3FFF7BCFFD4E902232D
:10696000904271EB03031BD3236903B92377636957
:106970000093124AA369019308216846FFF704FFB8
:1069800008B1FFF799FE22697AB1237F03F0FF0572
:1069900063B1D4E902319B1841F10001C4E902312D
:1069A0000748214605F0FBF800E01546284603B0ED
:1069B00030BD0546FAE700BF60250020CD68020023
:1069C000E83A030013B5124B1249186801900823E6
:1069D0001148582203F03EFF0446B0B90F4A104850
:1069E00001A900F0FBFD044678B90D48012100F033
:1069F000E7FE01230B4A0A48194600F049FE084801
:106A000000F042FE084B01221A70204602B010BD71
:106A1000E43A030064250020BC250020956A0200AA
:106A200004230020FFFF7F00602500203AB10368A7
:106A30005A614A1E51425141196100207047072096
:106A4000704738B5037F04460D4683B98261FFF76E
:106A500041FF2369281841F10001C4E9020103B193
:106A6000256121460020BDE83840FFF74FBF0020D8
:106A700038BD0023014603770120FFF747BF401AC6
:106A800020F07F4070470000014800F0B6BE00BF14
:106A9000042300202DE9F341044600F099FE40B1A3
:106AA0004E4AD2E9003113F1807341F10001C2E98D
:106AB00000310021204600F09AFE38B1484D2B6885
:106AC00023B12868FFF73EFF00232B6001212046F9
:106AD00000F08DFE20B1FFF7FDFE424BC3E900013F
:106AE00041483F4D414C424E01A903F022FF00288E
:106AF00039D13E4F3A4D384605F067F880B32B68E0
:106B00007BB12B68D0E90242D3E902138C4272EBCD
:106B1000030325D22B681B7F1BB12968384605F07B
:106B20003EF8384605F04BF8D0E902680446FFF716
:106B3000D1FE301A68EB0108012878F100033DDB33
:106B4000B0F5350F38D3FFF79FFF2A4A02442A4891
:106B50004FF49603002100F0BBFD002836D12C60D5
:106B600002B0BDE8F0810378012B1AD0022B06D1C8
:106B70000027204605F023F868B30777F9E73BB90B
:106B800041680B7F23B901230B77204605F007F8F6
:106B900001A9154803F0F8FE01A9134803F0C9FE46
:106BA000A5E741682B68994202D100232B60EFE7EB
:106BB000204605F00DF8EBE7A268C8E70E48002173
:106BC00000F00BFE2046FFF7BDFE01E00D28F9D0D6
:106BD00000232B608FE701233370D9E7582500206D
:106BE000D8250020D0250020BC250020E83A03004D
:106BF00060250020FFFFB4000423002070B5EFF3F0
:106C0000108672B60C4A946801239CB993600B4BB2
:106C10000B4DD3F8801029401160C3F88050D3F891
:106C2000841051604FF0FF32C3F88420047006B91D
:106C300062B670BD0370FAE7DC25002000E100E0D9
:106C4000FC06FFBD084B9A6810B55AB150B9EFF376
:106C5000108172B6054A1C6814605C6854609860C4
:106C600001B962B610BD00BFDC25002000E100E0E4
:106C70002DE9F84FDDF83480DDE90A4A0E46174663
:106C80001D46814610B10B68934201D3FFF7A0FB6C
:106C900015B90CB1FFF79CFBBAF1000F02D0B8F1A7
:106CA000000F01D1FFF794FB3068C8B1C4B13A1AA4
:106CB000A24228BF22462946484493460CF0AFFD25
:106CC00033680BEB0302BA425D44A4EB0B04326061
:106CD00006D14946404644B90C9B9847002333608F
:106CE000BC4204D294B9BDE8F88FD047F6E73368C8
:106CF0000BB1FFF76DFBBC422946404604D10C9B0B
:106D000098473D44E41BEBE7D047FAE73068A7EB30
:106D10000008A04528BFA0464246294648440CF03A
:106D20007EFD32684244BA424544A4EB0804326016
:106D3000D8D3FFF74DFBD5E730B585B0DDE9094580
:106D4000CDE902450194089C0094FFF791FF05B03E
:106D500030BD2DE9F84F0C46DDE90A96DDE90CABB4
:106D600090461D46074610B10B68934201D3FFF7CA
:106D70002FFB15B90EB1FFF72BFBBAF1000F02D0B4
:106D8000BBF1000F01D1FFF723FB0EB9BDE8F88F6F
:106D9000236823B939465846D047C4F80080236891
:106DA0001A46B342A8EB030328BF32463B440021F6
:106DB0008A4206D123689B1A2360B61A914415446F
:106DC000E3E715F801C013F8010B80EA0C0009F89D
:106DD00001000131ECE72DE9F84F0A9F81460C468E
:106DE00016469A464FF000080FB9BDE8F88F25689F
:106DF000721BBA4228BF3A469346B8F1000F04D13D
:106E0000514609EB05000CF033FD1DB95E4508BF86
:106E10004FF001085D44B54208D1DDE90B30494629
:106E2000984700232360A7EB0B07DDE7216859444F
:106E30002160F8E72DE9F04F87B0DDE91245012C1C
:106E40009DF840B0149E8DF817300746884691464D
:106E500005D0022C12D00CBB07B0BDE8F08F9DF816
:106E600017309DF844700094CDE901567B408DF8B1
:106E700017300DF11703FFF75FFFEDE70124CDE9B0
:106E8000015600940DF11703FFF756FFCDE90156A7
:106E9000009411AB4A4641463846ECE74FF0010AF0
:106EA0000DF11703CDE90156CDF800A0FFF744FF1F
:106EB0009DF844305B45CDE901560CD0023C00946E
:106EC0005B464A4641463846FFF785FFCDE9015605
:106ED000CDF800A0DDE7013C00944A464146384623
:106EE000FFF779FFB8E7F0B5036889B00446684654
:106EF0001F680D46002301469F420CD104AA0123BE
:106F000004F1280003F04DFC2268636D12681344FD
:106F1000636509B0F0BDEE5C12F803C086EA0C06AA
:106F200000F8016B0133E7E710B500F118020446E1
:106F3000FFF7D9FF0123A36510BD10B500F10802CA
:106F40000446FFF7D0FF0123A36510BD1FB504461B
:106F50006A460123283003F024FC2268636D12681E
:106F60001344636504B010BD70B50B68102B88B076
:106F700004460D46164601D0FFF72AFA28220021C2
:106F800020460CF075FC2A6823782AB10021684657
:106F90000CF06EFC9DF800306B686A46694630461E
:106FA000984704A9684603F034FB04A9084603F097
:106FB00044FB04F1080104A803F00AFB04A90846F5
:106FC00003F03BFB04F1180104A803F001FBC4E942
:106FD000005608B070BD7FB50646002556F8401B28
:106FE000426804466B462830CDE90055CDE902558C
:106FF00003F0D0FB1022294630460CF039FC94F8FF
:107000004030A565C4E9145504B070BD10B5044600
:10701000FFF7AAFF2046BDE81040FFF7DCBF0000E5
:107020002DE9F04717460268DFF89090D2F800A0EB
:1070300088B0044688461D46002B3BD0026DD5190A
:1070400052EA070305F00F0608BF456D836D06BFC2
:10705000B5FA85F56D0900250BB1FFF7B9F957EAC7
:10706000050301D1FFF7B4F9354325D0134B0125B2
:1070700004F1400004F15001CDE90234CDE900797A
:1070800043465246CDE90601FFF7F2FDDDE9060170
:107090006DB10B4B0393236D0494AAEB030302938E
:1070A0000023CDE9003352468023FFF7C3FE08B02A
:1070B000BDE8F0874B46DBE7024BD9E74D6F020096
:1070C000296F02003B6F020013B504460846A36D0A
:1070D0001BB90191FFF77CF90198214651F8303B2B
:1070E0001A6802B0BDE810400CF099BB006800BA05
:1070F0007047030E0B70030C4B70030A8B70C87043
:1071000070470A680368534003604A684368534005
:1071100043608A68836853408360CA68C368534089
:10712000C360704770B5D0E90054D0E9021304F48D
:107130007F0605F07F42324301F47F463243DEB2E0
:107140003243026001F47F0604F07F42324303F4CD
:107150007F463243EEB23243426003F47F0601F0D1
:107160007F42324303F07F4305F47F4605F47F05F9
:1071700032432B43E6B204F47F442343C9B2324383
:107180000B438260C36070BDC3091B2203F001334F
:107190004000534300F0FE305840704708B50146A8
:1071A000FFF7F2FF4FEA312383EA3143434048407F
:1071B00083EA306008BD70B5D0E9025301684468C5
:1071C00003F47F0601F07F42324305F47F463243E9
:1071D000E6B23243026001F47F0604F07F4232439C
:1071E00003F47F463243EEB23243426004F47F063A
:1071F00005F07F42324301F47F46324305F47F05B8
:10720000DEB203F07F432B4304F47F442343C9B22F
:1072100032430B438260C36070BD38B50146FFF74F
:10722000B3FF0546FFF7B0FF0446FFF7ADFF484048
:1072300044406940614081EA3021684081EA306021
:1072400080EA344038BD00222DE9F04794464FEAE9
:10725000106A134696461446C0F30749C0F3072840
:10726000C5B28AEA0406F0B2461E0F5D26EA0006A1
:1072700046F3C0162EEA060E3E404EEA060E89EA96
:107280000406F0B2461E26EA000646F3C01623EABC
:1072900006033E40334388EA0406F0B2461E26EA5F
:1072A000000646F3C0162CEA060C3E404CEA060CDB
:1072B00085EA0406F0B2461E26EA000646F3C0162A
:1072C000013422EA06023740B4F5807F42EA070221
:1072D000C7D11B0443EA0E63134343EA0C20BDE805
:1072E000F08700002DE9F84F066822F0030301360D
:1072F00017464FEA92080446B60081460344024608
:107300009A420AD1194904EB8804C34600254FF07C
:10731000010AB34508D3BDE8F88F0846FFF7E6FE3B
:10732000043142F8040FEBE7454554F8040B13D140
:107330000AF1010A4FEA3060FFF785FF0C4B13F8A2
:107340000A20002580EA026059F8042F504020608E
:107350000BF1010B0135DCE7002DEBD01B2FF3D92E
:10736000042DF1D1FFF76FFFEEE700BFFF3A0300F6
:10737000F43A030010B5094904460068FFF763FFBB
:1073800020606068FFF75FFF6060A068FFF75BFF49
:10739000A060E068FFF757FFE06010BDFF3A030010
:1073A000F0B50368144623F004020A2A85B00546A6
:1073B0000E4603D00C2B01D0FFF70AF83046FFF73A
:1073C00095FE0090301DFFF791FE019006F1080038
:1073D000FFF78CFE029006F10C00FFF787FE291DD7
:1073E00003906846FFF78DFE05F1140601272B6810
:1073F000BB4268461BD8FFF7BDFF6846FFF792FE09
:107400003146FFF77EFE00982146FFF772FE019895
:10741000211DFFF76EFE029804F10801FFF769FED7
:10742000039804F10C01FFF764FE05B0F0BDFFF70F
:10743000A1FF6846FFF776FE0098FFF7AFFE0090C9
:107440000198FFF7ABFE01900298FFF7A7FE0290AC
:107450000398FFF7A3FE314603906846FFF751FEFD
:1074600010360137C3E7000010B50949044600682B
:10747000FFF7E9FE20606068FFF7E5FE6060A06846
:10748000FFF7E1FEA060E068FFF7DDFEE06010BD01
:10749000FF3B03002DE9F0410368174623F0040287
:1074A0000A2A86B005460C4603D00C2B01D0FEF705
:1074B0008FFF2046FFF71AFE0290201DFFF716FEF1
:1074C000039004F10800FFF711FE049004F10C0092
:1074D000FFF70CFE2C68059005EB041404342146DC
:1074E00002A8FFF70EFED5F80080A4F1100608F1FF
:1074F000FF3515BB6FF00F0101FB084102A8019198
:10750000FFF759FEFFF7B0FF019902A8FFF7F9FD59
:1075100002983946FFF7EDFD0398391DFFF7E9FDA5
:10752000049807F10801FFF7E4FD059807F10C0145
:10753000FFF7DFFD06B0BDE8F08102A8FFF73BFED4
:10754000FFF792FF314602A8FFF7DBFD0298FFF735
:1075500064FE02900398FFF760FE03900498FFF723
:107560005CFE04900598FFF758FE103E0590013D23
:10757000BFE770B515460E46F422002104460CF014
:1075800077F9182D0CD0202D0CD0102D0CD10A23FA
:1075900023602A4631462046BDE87040FFF7A2BE70
:1075A0000C23F5E70E23F3E7BDE87040FEF710BFAC
:1075B00010B50446F42200210CF05AF9237810BDCE
:1075C000435882B03BB10023435043580193019B81
:1075D000012002B070471846FBE70000F8B5224BC7
:1075E0004579224E43F82520214A224B9B1A06EB6F
:1075F000C502DB0812791B04EF0032B143F0020030
:107600001D490AF0A7F90820F8BD02680C88C2F8E5
:10761000084590F9044002798978002CADBF04F147
:10762000604CDFF85CC002F00F0E0CF5614C4FEAC5
:107630004111C9B2B4BF0CF80E108CF800136409E4
:107640000121DFF840C002F01F0201FA02F24CF8FB
:107650002420F21946F83500117143F00300074960
:107660000AF078F90020CFE7F0250020E825002077
:10767000E4390300343A03000C3D03002E3D0300BF
:1076800014ED00E000E100E0036801221A60704799
:1076900073B501F15005AD000068ADB24FF4803410
:1076A0008C400026C0F80843C0F84843465101F515
:1076B000A8714559019522F07F42019D40F8212093
:1076C000C0F844430BB1C0F8044302B070BD0000E1
:1076D0002DE9F74F0D4622F07F4402684FF48037C2
:1076E00005F150068F408046B60002EB8500C2F8D7
:1076F0004873B6B2C2F80873D2F8041599464FF031
:10770000000BD0F84035C0F8401542F806B05B1ABF
:107710009259009223F07F43012B009A4FEA850A89
:107720000CD1264B4FF4806043F001039847D8F802
:10773000003043F806B09B590193019BD8F8001024
:10774000D1F80465C1F84473A31B23F07F43012BD8
:107750001CD11A4B05F5A875013443F0010341F81B
:1077600025404FF480609847D8F80030D3F80435AE
:107770009E4209D1D8F800300020C3F84473C3F802
:10778000047303B0BDE8F08F0D20FAE78A44C9F115
:10779000FF13CAF84045D1F80405221A013A22F035
:1077A0007F4203F57F439342EED3002AE2D10134B6
:1077B000CAF84045D1F804359842DAE7403D030065
:1077C00003680222C3F8442309B1C3F804237047B5
:1077D00000684FF48271FFF7F3BE4FF4803303FA71
:1077E00001F10368C3F84813C3F808137047503118
:1077F0008900006889B2FFF7E3BE0368D3F8040587
:107800007047000090F9043001215A0903F01F036A
:1078100001FA03F34032024941F82230704700BFB9
:1078200000E100E0024B034A1B681068184700BFE4
:10783000F0250020E8250020F0B51D460368164617
:107840001A6887B004460F461AB90192FEF7C0FDC8
:10785000019A0192002102A80CF00AF8019A06ABE5
:107860001344204603F8117CFFF7B5FB019A85B15C
:10787000002302A92046FFF7D3FB01232A46314605
:107880002046FFF7CDFB0C992046FFF71DFC07B003
:10789000F0BD012302A9F3E72DE9F04FB3B007468D
:1078A0000D46934602AC0A4601461BA89946DDF8F0
:1078B00000A1DDF8088106AEFFF7A8FBDDE93E2355
:1078C00000211BA80094FFF7B7FFDDE93C2301214D
:1078D0001BA80096FFF7B0FF2A46234639460EA89C
:1078E00002F08DFF0AAD4B46524659460EA802F0F3
:1078F0009DFF4B460095524602211BA8FFF79CFFB7
:107900003B68434501D2FEF763FD419B98444345E4
:1079100002D133B0BDE8F08F14F8011B15F8010B4C
:1079200016F8012B41404A4003F8012BEFE72DE9FF
:10793000F04FB7B0174606460A4689460DF1080AC9
:1079400001461FA89846449C0DF1180BFFF75EFBFB
:10795000DDE9422300211FA8CDF800A0FFF76CFF4E
:107960000AADDDE9402301211FA8CDF800B0FFF7E3
:1079700063FF434600953A4602211FA8FFF75CFFCC
:10798000459B1BB13368459A934201D2FEF720FD17
:10799000294650460DF1380C0025459B9D4215D1D6
:1079A00063190EAA00259C421DD11DBB53464A46B1
:1079B000314612A802F023FF12A8469A43463946E0
:1079C00002F034FF284637B0BDE8F08F10F8012BE5
:1079D00011F801EB1BF8013B82EA0E0253400CF850
:1079E000013B0135D9E714F8011B12F8010B4140A6
:1079F0000D43D8E70120E6E772DF704773DF704779
:107A000074DF704777DF7047024B1B6803B118477C
:107A1000704700BFF425002008B5074B1B68187895
:107A2000FFF7EEFF30F0080301D0FEF745FEBDE89A
:107A3000084000F0D1BA00BF3C26002013B50D4C21
:107A4000019001F089FE019A0B492068FFF7D4FFED
:107A500008B1FEF731FE236800211878FFF7CEFF4A
:107A6000112805D020B102B0BDE81040FEF724BEB9
:107A700002B010BD3C2600200C23002030B587B09A
:107A8000054601F0A1FC2D4B1B6804461878FFF752
:107A9000B7FF43F204029042034604D033F00803D8
:107AA00001D0FEF709FE2878B0BB6B7804EB831495
:107AB000014694F901200120FFF7A4FF43F20402DC
:107AC000904202D008B1FEF7F7FD1D4A0021687808
:107AD00000F066F90020FFF797FF182200216846A2
:107AE0000BF0C6FE05238DF800304FF48073ADF81F
:107AF0001430144B1B8800224FF47A7168460192AF
:107B00004B43ADF80C2040F27121B3FBF1F302932B
:107B1000FFF794FF07B030BD0128DBD194F84C315A
:107B200004EB8314002194F90120FFF76BFF08B1E7
:107B3000FEF7C2FD024A0121C9E700BF3C26002032
:107B40000C2300201C23002030B597B04FF4EA43EB
:107B5000ADF800301A4B3C221B788DF80230002122
:107B600007A80BF085FE1749CDF830D002238DF819
:107B70001C30154B8B60002501241F2307A88B8127
:107B80008DF81E50ADF82C4000F006F91822294659
:107B900001A80BF06DFE4FF48073ADF81830A023F0
:107BA000039301A841F27073ADF810308DF80440D2
:107BB0000295FFF743FF2046FFF726FF17B030BDC1
:107BC000F82500200C2300201826002008B5054BBE
:107BD0001B782BB9FFF720FFBDE80840FFF7B4BFC3
:107BE00008BD00BF37260020014B188800F0A4B95B
:107BF0001C230020014B1870704700BF382600205E
:107C0000014B1878704700BF3826002008B503885C
:107C1000112B0AD0262B15D0102B1DD10F4B012272
:107C20001A70BDE80840FFF7DFBF0C4B00221A7046
:107C3000FFF7F2FE0A4B1B78002BF2D0BDE808409C
:107C4000FFF782BF037A012B06D1044B1B781BB9C7
:107C50000220FFF7D9FEEDE708BD00BF3726002060
:107C60003826002010B5044601F0AEFB90F8412103
:107C700090F84031B2B190F84D119AB291B102EB47
:107C8000820303EB83035B019BB2A34238BF23460D
:107C9000B3F5205F1846064B8ABF4FF42052188078
:107CA0001A8010BDC3EB431003EB80039B00EBE78E
:107CB0001C230020014B1888704700BF1C230020A4
:107CC00010B50A4C20700A4801600A49002008706B
:107CD00009490B70094B1A80094B029A1A6001F08E
:107CE00043FDBDE81040074800F07CB9F8250020AE
:107CF000F425002037260020382600201C230020F1
:107D00003C2600207D7A020000F0FAB870B594B0ED
:107D10004FF6AA63154601220646ADF804308DF8E9
:107D20000620ADF808300C4679B3D1E9000103AB69
:107D300083E803003C22002105A80BF099FD0023F5
:107D40008DF8143006238DF817300123003CADF870
:107D5000243001AB18BF01240A9329688DF84040F4
:107D600002AB2A1D05A80F930AF0B1FC08B1FEF77B
:107D7000A3FC76B1A96805F10C0230460AF0A7FC15
:107D800008B1FEF799FC14B070BDADF80C10049169
:107D9000D0E7AE60AE81F6E70A460021FFF7B6BF36
:107DA000F7B50023CDE9003305460F46164601F02E
:107DB0000BFB0446AFB1284601F0D4FA94F84C51BD
:107DC00004EB851004EB851312330193324690F8CF
:107DD0002730ADF8003069460020FFF797FF03B069
:107DE000F0BD00EB851393F82630202BE8D101F08D
:107DF000ABFAE5E773B5264B264D03EB800204464C
:107E000051788DF8051013F820108DF8041029789A
:107E1000D1B193F82830012B16D9013B834213D9F5
:107E2000461C50884FF47A714FF4FA6201EBC0306F
:107E3000002300210BF048FB324601461648FEF7AE
:107E400000FE08B1FEF738FC1CB9144A1368013370
:107E5000136001F0B9FA90F84D3183B19DF8052017
:107E600090F84C319A4203D09DF80430012B06D192
:107E70000A4B0B4A1B685343B3F1333F06D8094BF7
:107E80001B681BB12A780AB101A8984702B070BDDF
:107E900044260020B0260020902600204026002006
:107EA000CDCCCCCCB426002070B501F08DFA90F882
:107EB000403113B10020FFF79DFF0E4B1B78C3B17B
:107EC0000D4B00241D884FF400464FF47A70214674
:107ED0004FF4FA620023E6FB05010BF0F5FA2246A7
:107EE00001460648FEF7ADFD18B1BDE87040FEF74B
:107EF000E3BB70BDB02600206E2600207026002057
:107F000008B5094A09480021FEF790FD08B1FEF7BF
:107F1000D3FB074A07480021FEF788FD18B1BDE8EA
:107F20000840FEF7C9BB08BDA97E0200483D03001A
:107F3000F57D02004C3D0300F0B587B0044601F02A
:107F400043FA214B01221A7090F84031002B39D0AE
:107F500000261E4D4FF400474FF47A7031464FF41F
:107F6000FA620023E7FB04012C800BF0ADFA3246E5
:107F700001461748FEF765FD08B1FEF79DFB01F0CD
:107F800023FA2B88ADF8003090F840318DF802309C
:107F900000F5A173019390F841318DF8083000F29B
:107FA0004713039390F84D318DF8103090F84C3111
:107FB0008DF811306846074B059300F023F808B19F
:107FC000FEF77AFB07B0F0BDB02600206E26002039
:107FD0007026002044260020014B00221A707047B2
:107FE000B0260020044B00211970044B2A2218608F
:107FF00003480BF03DBC00BFB0260020B426002093
:10800000442600202DE9F04F87B000285DD0027C87
:10801000002A4FD0027A131E18BF0123019390F853
:1080200002E0BEF1000F52D0019A0388AEEB0201CC
:10803000B3FBF1F399B2059141680391B3F5967FD3
:10804000A3F59671CCBF0B464FF4FA7300241FFAC8
:1080500083FAA04623460399019A0E5D12B1417C32
:10806000B14218D04569019A19B205EB830C8CF81E
:10807000016005F821800599ACF80210591CC9B2BD
:1080800042B1C76890F80890049700270297029FB2
:108090004F4511D30B460134A645DCD84269002078
:1080A00082F82830ABB1013B02EB8302508007B06D
:1080B000BDE8F08F0192B2E7049F029A17F802B070
:1080C000B34508D017460137E0E70E20EFE7072059
:1080D000EDE71846EBE74FF49677ACF8027005EB46
:1080E000810702337E704FF0010605F82160DBB294
:1080F000A7F802A0CFE7000003788BB943681B887C
:108100004FF4167213FB02F3002BB8BF03F2FF33D8
:108110009B1203EB4303034A5B0003F58773138051
:10812000704700BFBA2600201FB51249124804F05C
:108130003FFB08B1FEF7C0FA104A10685168127A86
:1081400001AB03C301A900201A7004F075FB08B14C
:10815000FEF7B2FA0A48012104F0C8FB08B1FEF7A5
:10816000ABFA04F015FC08B1FEF7A6FA05B05DF80D
:1081700004FB00BFF9800200593D0300503D03009D
:10818000B826002008B598B10A4B1B88038004F07C
:1081900013FC68B90848012104F0A8FB08B1FEF7F8
:1081A0008BFA04F0F5FB18B1BDE80840FEF784BA7D
:1081B00008BD00BFBA260020B8260020BFF34F8FAD
:1081C0000549064BCA6802F4E0621343CB60BFF373
:1081D0004F8F00BFFDE700BF00ED00E00400FA058F
:1081E00076DF704770B58AB000264388079605464B
:1081F000ADF81C3002AA43680088089304A9CDE9B1
:108200000066CDE90466CDE902660696099602F09D
:10821000B7F9AB7B04461BB940B320460AB070BD2A
:10822000022B05D148F20963984233D13446F4E772
:10823000012BFBD1D5E90101AA890BF0F0FAAB893A
:1082400003339B1009932B88ADF81E3048F2096365
:108250009C4207A904A81AD102F012F9044600288A
:10826000DBD10E4A136801331360D6E7694604A8D0
:1082700002F0BCF804460028CFD1AA890199A86869
:108280000BF0CDFA04A802F0D7F80446C5E702F0D7
:10829000FBF8E3E704A802F0FFF8DFE7DC260020A4
:1082A00008B50378052B07D8DFE803F00329290F69
:1082B000071A184B00221A6008BD828941F2373331
:1082C0009A4202BF144B01221A700021134A084639
:1082D000FEF75AFA0028EFD0BDE80840FEF7ECB9E7
:1082E0000D4B1A785AB10E4A10884FF6FF72904221
:1082F0000CD01321FFF774FF08B1FEF7DDF9054B31
:108300001A68002AD8D01A68013AD4E700221A70F5
:10831000FFF754FFDC260020D8260020258302002A
:108320001E23002008B502F005F9024A1368013344
:10833000136008BDDC2600201FB5084B0093084BD6
:108340008DF80E10CDE9013010236846ADF80C30E1
:10835000FFF748FF05B05DF804FB00BF04003813C9
:10836000C82600201FB5084B0093084B8DF80E104F
:10837000CDE9013004236846ADF80C30FFF732FF39
:1083800005B05DF804FB00BF05003713BC260020D4
:1083900004281FB518D80D4B8DF80E2033F8103077
:1083A000ADF8003041F23733ADF80230084B53F8E6
:1083B00020306846CDE901314023ADF80C30FFF79D
:1083C00011FF05B05DF804FB0720FAE75E3D0300EE
:1083D000683D03001FB5084B0093084B8DF80E1045
:1083E000CDE9013007236846ADF80C30FFF7FAFEFF
:1083F00005B05DF804FB00BF01003713C026002064
:1084000041F2373002F06EB8014B1868704700BF78
:10841000DC26002008B50388102B02D0112B04D0D5
:1084200008BD084B82881A80FAE7064B4FF6FF72A8
:108430001A80054B1A78002AF2D000221A70FFF732
:10844000BDFE00BF1E230020D826002008B5094B22
:10845000094801221A60094B4FF6FF721A80084B37
:1084600000221A7001F09AFE18B9BDE8084001F028
:10847000ABBE08BDDC260020A18202001E23002026
:10848000D8260020B0DF704740B139B1B0F86400A1
:108490004FF6FF73984203D0FFF7F4BF0E207047EA
:1084A0000820704730B585B004460D4610220021E3
:1084B00068460BF0DDF99CB165B101238DF8003001
:1084C0004FF4817369462046ADF80430FFF7DCFFB6
:1084D00005B030BD02238DF8003040F20313F1E700
:1084E0000E20F5E7F7B590F87470BDF820C01D4672
:1084F00047F2075E8FB1714503D10021FFF7D2FF2C
:1085000005E00C4C2478CDE900C400F061F970B1AD
:1085100003B0BDE8F040FEF7CFB8714505D1134672
:108520002946624600F007FAF1E73946E6E703B06C
:10853000F0BD00BF2028002038B590F8745047F2F5
:10854000075475B1A14207D10121FFF7ABFF80B1FC
:10855000BDE83840FEF7B0B8064B1B7800F06BF86A
:10856000F5E7A14202D100F053F8F0E700F02CF853
:10857000EDE738BD2028002038B1054A0267002306
:1085800080F874301370184670470E20704700BF93
:1085900020280020ADDF70471FB598B192B10023AD
:1085A000CDE90033ADF80830ADF80A100123694673
:1085B00003928DF800308DF80630FFF765FF05B0A7
:1085C0005DF804FB0E20FAE707B50246F0B147F26A
:1085D0000C53994209D101210DF107028DF80710C2
:1085E000FFF7DAFF03B05DF804FB47F20653994248
:1085F00006D17432012103B05DF804EBFFF7CCBF64
:10860000012103B05DF804EBFFF74CBF0E20E9E752
:108610001FB5044668B1684600F01AFB38B96846D1
:1086200000F0E0FA6A4610212046FFF7B5FF04B0DB
:1086300010BD0E20FBE72DE9F0430F468FB09046AA
:108640001C460646002800F0BD8000F0BDFEA7F5E0
:10865000EA43013B05460B2B00F2B680DFE803F04E
:108660000606242C36200606465BB44100211E2255
:1086700006A805910BF0FCF822230193B6F86400DC
:1086800005AB01AA41460293FFF784FF28B9029A7D
:108690009DF804103046FFF77FFF0FB0BDE8F08370
:1086A00006F1740201210BE0FFF704FB40BAADF8BC
:1086B000140005AA0221EDE7012101EB8412024416
:1086C00030460FB0BDE8F043FFF766BFA20100EBF4
:1086D000841494F8283013B129322A44E2E7013295
:1086E000FBE701218DF8141005AAD3E700EB8413F2
:1086F00093F82A2042B193F82630302B04D100EBB6
:10870000841202321021DBE7012130460FB0BDE8B0
:10871000F043FFF7C7BE1022002105A80BF0A8F810
:1087200005EB8413A70193F82690B9F1300FB846F2
:1087300031D1204600F06AFB00BA0E23009020469B
:10874000ADF81E308DF8049000F072FB04228DF815
:10875000050069460DF106000BF061F807F1140100
:10876000082229440DF10A000BF059F801AB0893D7
:1087700001238DF814309DF81A30002243F00103D4
:1087800005A93046ADF818208DF81A30ADF81C2038
:10879000FFF77AFE81E795F8413153B195F84D31F5
:1087A0003BB195F84C31A34203D195F8470100F055
:1087B000D9FDA844123798F82730ADF81E303D4453
:1087C0000895D5E70E2068E7072066E7ACDF70471D
:1087D0002DE9FF410C46BDF828609DF82C801D4610
:1087E0000746002800F0A380002B00F0A0800021A5
:1087F000102268460BF03CF8A4F5EA4102390A2938
:108800000FD8DFE801F00610161C220E0E0E4E8265
:108810008A002B78042B82BF40F20D13ADF8043090
:108820000026002419E0288840BA80B2FFF71AFA1F
:10883000F7E795F90010404600F09EFCF1E795F946
:108840000010404600F0A8FCEBE7012E1AD12B786F
:1088500013F0FD0F22D100240126ADF80A60039524
:10886000002C66D102238DF800309DF80630ADF85B
:10887000084043F00103694638468DF80630FFF79B
:1088800003FE08E0112E09D12B783BB9681C00F0DB
:1088900081F90028DFD004B0BDE8F08100242C70FD
:1088A000DAE7142E94BF0024012416F0FF0114D03F
:1088B00001292B7800D183B1202B24D007D8ABB16C
:1088C000102B18D040F20D13ADF80430C5E7302B53
:1088D000F8D1222901D01229F4D12A46404600F0CD
:1088E0006BFCFFF7E7F9FFF7BDF9B6E7112914BFF5
:1088F0000023012304E00B1F0F2B8CBF0023012357
:10890000002BDFD0E9E70129F1E72B780B2B88D189
:10891000FFF776FD002884D0BDE72C781CB101203C
:10892000FFF768F97DE72046FFF764F995E70E2029
:10893000B1E70020AFE7F0B50E4687B015461F46F9
:108940000446A0B399B31022002102A80AF090FFB8
:108950000023102DADF80050ADF8023001960BD178
:10896000B4F864006A463946FFF730FFD0B9ADF875
:108970000C00019800F05AF9019B059302238DF831
:1089800008309DF80E30ADF8125043F001038DF819
:108990000E3002A900232046ADF81030FFF774FD19
:1089A00007B0F0BD40F20313ADF80C30E4E70E2041
:1089B000F6E700002DE9F04374274FF01009354D1C
:1089C00010FB07F404EB0908A8448BB006464A469E
:1089D00000214046CDE908990AF04AFF07FB0653FB
:1089E000FF22DA769A6E2C48110E04F1200722FA43
:1089F00009F29977DA772F4409ABCDE903730023A5
:108A00000093CDE9018925492B19012209F074FA57
:108A100008B1FDF751FE04F130032B44394604F14F
:108A20004007184610222F4407930AF0F8FE102240
:108A3000002138460AF01CFF742101FB065104F1A5
:108A4000500891F86C008A6E81F84B00C240824059
:108A500012BACA64A84408AACDE903821022CDE95B
:108A6000017200220092079B0C490B48012209F079
:108A700043FA08B1FDF720FE603408224146281968
:108A80000AF0CDFE064B01211B68304698470BB01B
:108A9000BDE8F083082C00202C2900201446030098
:108AA000042C00202DE9F843244B187800F094FDA5
:108AB000044600283FD0224EDFF894803546002738
:108AC0004FF0020995F87030CBB1AB6E95F86C1091
:108AD000D8F8002023440139AB6609FA01F10AB93C
:108AE000C8F80030D8F800209A1A914207D8B3FB92
:108AF000F1F3F8B24B43C8F80030FFF75BFF0137E2
:108B0000052F05F17405DDD10E4D0F4B2868044487
:108B10009C422C600FD90D4F002496F870301BB189
:108B20003B680421E0B298470134052C06F1740635
:108B3000F3D100232B60BDE8F88300BF002C002098
:108B4000082C00204C2E00207F510100042C002016
:108B50002C28002070B504460C48742606FB04053A
:108B6000284685F86C10AA66194610220AF057FEAE
:108B7000012385F87030064B20461B680221984778
:108B80002046BDE87040FFF715BF00BF082C00204D
:108B9000042C002030B58DB00022102407AB08ADA6
:108BA000CDE900200493CDE902450B4B0B490C485D
:108BB0000794CDE90822CDE90A2209F09DF940B9D0
:108BC0002946054822460AF02AFE03480121FFF7FC
:108BD000B3FB0DB030BD00BF502A00201446030087
:108BE0002C29002030B50E4C89B0102501462A46AC
:108BF000204607950AF013FE07AB04936319CDE9ED
:108C0000025300230093074907480194A4F110037D
:108C1000012209F071F908B1FDF74EFD09B030BD30
:108C2000602A0020144603002C290020064910B5B4
:108C300010220AF0BDFD014620B9044BBDE81040EA
:108C40001B68184710BD00BF702A0020042C0020AC
:108C5000102109F0BFBC0000F0B5144B7426044687
:108C600006FB003089B080F86C204FF47F428266AA
:108C7000012707AA80F87070102504920022CDE920
:108C8000025001910A4B0B490B480092079509F0DD
:108C900033F908B1FDF710FD2046FFF78BFE074BB7
:108CA00002211B682046984709B0F0BD082C00201F
:108CB000502A0020144603002C290020042C0020F8
:108CC0002DE9F041CEB004460D46164600211C2287
:108CD0003D4F1C911DA80AF0CBFD742000FB0470D1
:108CE00040220B92012280F870200DF128084FF4E9
:108CF0007F422023826680F86C602A4633480993BD
:108D000024A9C8F8003009F081F908B1FDF7D4FCB6
:108D10002F4B2E492F48A3F1280209F05BF908B127
:108D2000FDF7CAFC14AE2C492C48CDF80080334620
:108D300024AA09F09FF908B1FDF7BEFC20223146B4
:108D40001CA80AF035FD10B90320FDF7B5FC20483A
:108D500009AA0CA909F076F908B1FDF7ADFC0DF1EF
:108D6000B8082022294640460AF059FD20220CA9C5
:108D700036A80AF054FD0023CDE9053304934023BF
:108D8000CDE902832023CDE90063154915480BABDB
:108D90003EAA09F0F5F908B1FDF78EFC7420102207
:108DA0003EA9114D04FB00700AF039FD2046FFF783
:108DB00001FE2B682046032198472B68022120469C
:108DC00098474EB0BDE8F081082C0020F045030024
:108DD000A82A002024280020802A002028280020FB
:108DE000FC450300D02A0020042C002007B52023D6
:108DF0000548019301AA09F025F908B1FDF75CFCCB
:108E000003B05DF804FB00BFA82A0020024B7422C7
:108E100002FB0030806E7047082C0020034B742248
:108E2000002100FB02300AF023BD00BF082C002007
:108E3000034B742202FB003090F86C00704700BFB7
:108E4000082C00200B460449742202FB00116031FB
:108E5000082218460AF0E3BC082C002070B5134B1A
:108E6000134C88B010260D46742100FB01313246A8
:108E7000204607960AF0D3FC07AB0493A319CDE96B
:108E80000263002300930B490B480194A4F11003E3
:108E9000012209F031F808B1FDF70EFC0749102254
:108EA00028460AF0BCFC08B070BD00BF082C0020AA
:108EB000602A0020144603002C290020702A00207C
:108EC0000B46054910B4742400FB041110225DF810
:108ED000044B18460AF0A3BC082C00202DE9F047EB
:108EE00096B03D4E0DF13008002481464FF0740AD3
:108EF0000F46154602310C224046CDE90C440E9433
:108F00000AF08DFC09FB0A610AFB0966102212A80F
:108F1000CDE91244CDE914440AF081FC96F86C20A6
:108F2000B36EADF82C40D34093401A0E8DF8282034
:108F30001A0C8DF8292002211A0A08A88DF82A2077
:108F40008DF82B30ADF8204009F044FB08B1FDF757
:108F5000B3FB022208A90BA80AF061FC00231F49F9
:108F60001F48ADF8243012AA08F0D4FE08B1FDF76E
:108F7000A3FB022306930C23CDE9028309AC002353
:108F80000FAECDE9003316480594049606230AAACD
:108F9000012108F0EDFE08B1FDF78EFB104808F046
:108FA000D1FE08B1FDF788FB3B782B7001236B7075
:108FB00031460C22A81C0AF032FC08A9022205F155
:108FC0000E000AF02CFC0222214605F110000AF0E6
:108FD00026FC16B0BDE8F087082C0020A44503004D
:108FE00030280020F0B5044685B078B3254800212C
:108FF000FFF7A2F948F20962904229D008B1FDF7C3
:109000005BFB214B21481C60502200210AF030FC00
:109010001F4B20484FF47F429A66C3F8DC20C3F808
:109020005021C3F8C421C3F838224FF4804100F026
:10903000F7FA08B1FDF740FB09F0BEF9034610B19D
:10904000FDF73AFB0023184605B0F0BD0723FAE709
:10905000114B6A4603F11007164618685968154601
:1090600003C50833BB422A46F7D1314605481022D2
:109070000AF0D5FB03480121FFF75EF90028C0D0B4
:10908000BDE700BF502A0020042C0020802A0020C9
:10909000082C0020002C00207C3D030030B41F4A27
:1090A000044686B010680D465168127A6B4603C3B9
:1090B0001A701B4A10685168127A03AB03C31A7006
:1090C000184AA00102EB841494F828306BB194F98B
:1090D0002910131893F82620202A19D014D8AAB1E1
:1090E000102A13D006B030BC704703A911F9014B08
:1090F000AC4204DB06A90B4413F9181CE9E7013361
:10910000092BF3D10021E4E7302AEAE7D974E9E733
:10911000072006B030BCFDF7CFBA00BF8D3D03007D
:10912000973D0300542E0020F8B5124E06EB801533
:10913000044695F82A10D1B195F82630302B4FEA25
:1091400080170DD1FFF762FEE8622046FFF770FE40
:1091500007F1300185F82B0031442046FFF7B0FEBF
:109160000122F1192046BDE8F840FFF711B90222AB
:10917000F9E700BF542E0020064B042828BF042026
:1091800003EB8013597093F828300BB9FFF786BFB3
:10919000704700BF542E0020064B042828BF04202F
:1091A00003EB8013012283F8282083F82910FFF7AE
:1091B00075BF00BF542E0020042828BF04202DE9CD
:1091C000F0470C460546164612B90E20FDF774FA14
:1091D0001CB1012C337806D12BB929463C48BDE897
:1091E000F04700F07DB9302B394F4FEA85182DD16B
:1091F000222C01D0122C29D1474497F82A301BB1D8
:109200003348294600F06CF93148294600F068F9E6
:109210003378302B02D00820FDF74EFA222C07D1EC
:1092200096F82120711C2846BDE8F047FFF748BD9D
:10923000122C06D1727C711C2846BDE8F047FFF75E
:109240000BBDBDE8F0470720FDF736BA07EB080372
:1092500093F82A301BB11E48294600F041F93278B4
:10926000202A02D197F84D3143BB194800232946E3
:1092700000F06EF9A90107EB080A01F11209337831
:109280008AF82630B94426310122394448460AF08A
:10929000C6FA9AF82630102B02D0202B10D06BB9CA
:1092A000621E711C09F1020047440AF0B8FA013449
:1092B00000212846FFF7F2FE87F82740BDE8F08737
:1092C000484600F021FA0E238AF82730F6E700BF5F
:1092D000542E002049B10428044B28BF042003EB7E
:1092E0008010102202300AF09ABA7047542E0020E3
:1092F0002DE9F041124D05EB80174FF423633946F9
:10930000FB84143130260446FFF79CFD97F90110C9
:10931000BE740C4F2046FFF7C1FE3B784BB10123D2
:1093200032462146284600F013F900233B70BDE881
:10933000F081324621462846BDE8F04100F008B9E8
:10934000542E0020502E0020054890F84D3133B1A6
:1093500090F84C3100EB8310123000F0D5B9704713
:10936000542E002030B5174C8BB00546204600F037
:10937000AFF830B194F8411104F2471200238B4248
:1093800001D30BB030BD12F8010B854201D001337F
:10939000F5E701A800F0B8F9284605AA01A9FFF7EA
:1093A0009DFD94F84C01122505EB801020442A46BF
:1093B00005A90AF034FA94F84C3104EB831484F8CC
:1093C0002750DEE7542E002000487047542E00201E
:1093D0002DE9F3470024DFF8A880009405462748CC
:1093E000CDF8034000F0E3F82146684688F80040D5
:1093F000FEF7F0FF48F2096290420ED14022294662
:109400001E480AF00CFA95F826201C480123214634
:1094100000F09EF802B0BDE8F08708B1FDF74CF906
:10942000164C6D46002648F20969A24615F8012B34
:10943000CAB9F7B221463846FEF7AAFF484512D00E
:1094400008B1FDF739F994F82620302A4FF00103CE
:109450000FD188F80030E26A94F82B1004F1300341
:109460003846FFF777FB0136052E04F14004DDD1C5
:10947000D0E73946504600F06BF8F4E7542E002050
:10948000502E002070B500230D4601460E460131D6
:109490003478944218D12C78013CE4B29C4210D923
:1094A00003445A7803F8012B1A1A9442F9D8C4F1EC
:1094B0000502AB2120440AF0DBF92B78013B2B702D
:1094C00070BDAB233370F8E70133052BDED1F7E72E
:1094D00090F841310BB190F84D3103F00100704725
:1094E000F8B500EB8113044693F82A600D468F010E
:1094F00006B390F84D3133B190F84C318B4204BF34
:10950000002380F84D312A4604F5A07104F5A170BE
:10951000FFF7B8FFE31993F82630302B16D12A460F
:1095200004F2411104F24710FFF7ACFF2744002377
:1095300087F82A304022002104EB85100AF098F9C0
:1095400016B12846FFF76AFC3046F8BD0026EDE765
:1095500070B5202A00EB811508BF80F84C1195F8F2
:109560002A6004BF012480F84D418C0106B1BBB1D3
:109570000319012483F82A4090F84031C418302A96
:1095800003F1010384F8421180F840310ED190F8C4
:109590004131C218013382F8471180F8413105E0AA
:1095A000302A03D195F82630302BF0D170BD38B574
:1095B0000025044680F84D510522AB2100F5A1702D
:1095C0000AF056F90522AB2104F247100AF050F9CF
:1095D000A4F8405138BD0000F8B505460E4FFDF720
:1095E00053FA57F82530044613B90820FDF764F8FC
:1095F0000A4E204656F82510FDF741FA57F8253057
:1096000083429FBFB4FBF3F45C4346F82540B0FBB4
:10961000F3F088BF0020F8BDB42F0020C82F002031
:1096200010B570B10A4A1378042B0CD0094C247879
:109630005CB10370084840F8231001331370002018
:1096400010BD0E20FCE70820FAE78020F8E700BFF5
:10965000C52F0020C42F0020B42F002010B5084BC8
:1096600008480024102221461C700AF001F910223B
:10967000054821460AF0FCF8044B01221A7010BD7F
:10968000C52F0020C82F0020B42F0020C42F002099
:109690004CDF704707B501A8FFF7FAFF019B044AAA
:1096A00043F38D019B011171537103B05DF804FB0D
:1096B000DD2F002007B5094B1878FFF78DFF084B09
:1096C0001A6810441860042200BA01900DEB0201E0
:1096D00004480AF0A4F803B05DF804FBDC2F002076
:1096E000EC2F0020E72F002007B50DF10600FEF754
:1096F00049FDBDF80620034B110A9970DA7003B0DA
:109700005DF804FBDD2F002013B50446FFF7D2FF00
:109710000D4B0E481B6804221BBA0DEB020101938E
:109720000AF07DF80A4B1878FFF756FF18B1FFF7DB
:10973000B1FFFFF7D9FF07490E22204602B0BDE86E
:1097400010400AF06CB800BFD82F0020E32F002093
:10975000EB2F0020DD2F0020024A13680133136035
:10976000704700BFD82F002010B5124C00210E22E8
:1097700020460AF07DF8104A2023237000236370EE
:109780001360FFF797FFFFF7AFFFFFF783FF0B486B
:1097900040F26661FFF744FF08B1FCF78DFF08480F
:1097A0004FF42031FFF73CFF18B1BDE81040FCF743
:1097B00083BF10BDDD2F0020D82F0020DC2F00201C
:1097C000EB2F002070B5064D0646002455F8043BEB
:1097D0000BB1304698470134042CF7D170BD00BF5F
:1097E000FC2F00204388033300EB830399420BD303
:1097F00082884FF6FF739A4208D0038833B180689D
:10980000431C58425841704702207047012070475E
:10981000033083B240F2FE329342F0B51ED8114CB1
:10982000002526462078AFB280B92289B4F80AC054
:1098300062441A4492B2B2F5806F07D8142202FB38
:1098400005650F806A8913446B81F0BD0135092DD0
:1098500004F11404E6D148F20660F6E748F2086025
:10986000F3E700BF343000200B4A0C495388142022
:1098700000FB0311CB6833B9042049681070012242
:10988000074801F0C1BD07490523137002238B80EF
:10989000012209680023F3E714300020343000204F
:1098A000F02200203032002007B500230549009344
:1098B000054A09680548082301F00CFD03B05DF86E
:1098C00004FB00BF30320020AC3D0300F02200203A
:1098D00007B5002301460093034A0448082301F01A
:1098E000F9FC03B05DF804FBA43D0300F022002066
:1098F00013B500230C4600930146084A0848042388
:1099000001F0E8FC38B9074B142101FB04310123B5
:109910000B7402B010BD48F20D60FAE7A03D0300E1
:10992000F02200203430002037B50A480A4B426844
:109930009C88196853880325033305709BB2002067
:1099400000909B0001EB8401044801F0C3FC03B0CC
:1099500030BD00BF1430002030320020F022002043
:1099600010B50146044800F0AAFF1C22044600215D
:1099700009F07EFF204610BD1C32002068B102684D
:10998000084B9A4209D14068074B984207D00133EF
:10999000984214BF03200120704703207047002025
:1099A000704700BFDEC0ADDEFE011EF12DE9F041C3
:1099B0000D460223154F2B80164600F5805100F10D
:1099C00008044FF001088C420ED2236801330BD0FB
:1099D0002046FFF707FF48B10EB186F80080022845
:1099E00009D14FF480632B80BDE8F081A3683A6809
:1099F000934200D93B602B886288033313442B8049
:109A00006388033304EB8304DDE700BF2C300020C0
:109A100038B5144B14220D4602FB00302B68446805
:109A200004F58051A3B15C88033403EB84048C42B9
:109A300015D22368013312D02046FFF7D3FE012848
:109A400008D002280BD00028F1D12C60012038BDAD
:109A50000834ECE76388033304EB8304E7E7002072
:109A6000F5E700BF34300020426873B504460D4668
:109A700052B3224BD9688A4226D31B699A4223D813
:109A800012F0030320D11E490089098988421BD1A5
:109A900020689168884217D11A4C19466068824242
:109AA0008EB209D900F58050824205D22E80B3FAD9
:109AB00083F0400902B070BD0131092904F114049A
:109AC000ECD148F20963F2E700262E80019628883F
:109AD00001A9FFF79DFF30B92B8801339BB2082BFA
:109AE0002B80F3D9E6E7019B226899689142EED179
:109AF0006360034B1B892381DCE700BFF022002059
:109B000014300020343000202DE9F8431C461D4B52
:109B10001B7806460F46154673B382B37CB3DFF855
:109B20006C804FF01409A388082B02D948F2096011
:109B300020E009FB03F318F803302BB9A088214675
:109B4000FFF766FF20B92060A3880133A380EAE70E
:109B500023681EB1998832889142EFD11FB11988CC
:109B60003A889142EAD19A68C5E90023064B1B89DD
:109B70002B810020BDE8F88348F20160FAE748F243
:109B80000460F7E70C30002014300020343000204F
:109B900008B5074B5888191DFFF73AFF18B1BDE803
:109BA0000840FFF7C1BEBDE80840FFF75DBE00BF3B
:109BB000143000202DE9F047A14FDFF8A88288B0CB
:109BC00006463B6823B99F48414600F0B2FE386024
:109BD0003D6829784B1E052B07D8DFE813F02000DD
:109BE0007600760008010801600148F20E64142234
:109BF000002103A809F03CFE41F61D539C4208BF1A
:109C000000243B6804941A78023A042A00F2058280
:109C1000DFE812F0E601F20114021C0223022EB169
:109C2000894B00225A604FF40644E0E72B79032B5E
:109C300018D8DFE803F010022631844B142101FB11
:109C400006F2D05C022813D1991800209854486875
:109C5000FFF73EFE03E001232B71FFF725FE0028EE
:109C600000F0BF80784B00225A6048F20D64BEE7D6
:109C70000136092EE3D1744B01221A7000225A607A
:109C800004E173497348002302222B718A8009681A
:109C9000012201F0B9FBE2E76D4C00262E7120682D
:109CA000FFF716FE6C4BDFF8A4C15B882568142211
:109CB00053430CEB03020CF8036051685560A58810
:109CC000158102222160A280C9E7B5F814A0AA7DFF
:109CD000DFF87891AEB1022AEB8806D9142101FB96
:109CE0000A91DA1C088902440A81142202FB0A99AB
:109CF000C3F57F43B9F80A20FD331344A9F80A30AD
:109D000091E7142303FB0A9318895C6804EB800431
:109D1000062A69D8DFE802F0274E36441D5A0400AF
:109D200041F61D54AA7DEB88022A06D9142101FBB5
:109D30000A91DA1C088902440A81142202FB0A995A
:109D4000C3F57F43B9F80A20FD331344A9F80A305C
:109D50004DE74248424900234360AB690360FFF787
:109D600083FE00285AD00223AB75002300930423FE
:109D7000EA182146374801F0ADFA002831D048F200
:109D80000D64CFE72B69002B14BF03230123AB75B0
:109D90000023009305F10C02042304F10801E9E714
:109DA0000123AB750022EB8800922A699B0004F125
:109DB0000C01DFE703290CBF05230623AB75002345
:109DC0000093042305F10802E118D3E70623AB75DD
:109DD000234B1988214B5868FFF78AFD0446002859
:109DE000A0D108B0BDE8F08748F20E649AE7002ED3
:109DF0007FF419AF2B79012B36D0022B46D0002BE4
:109E00007FF4F3AE02232B710DF10A01EB6803938B
:109E100003A8CDE90466FFF727FE10B948F20964EC
:109E2000E5E60498BDF80A108388EB8003882B814F
:109E3000FFF75EFD0446002C7FF4D9AED1E700BFEA
:109E4000303000201C3200200C3000203430002044
:109E500030320020F022002014300020F02F0020AB
:109E60003C320020283000207E4B03AA3146A81D3A
:109E7000FFF74AFE7B4B044658B999880498FFF7D0
:109E800037FD044648F209639C42D4D141F61D5483
:109E9000ADE608223146184609F0EAFCF2E7002E4A
:109EA0007FF4C1AE704BDA7CB2B1DE741A78013A3D
:109EB000062A3FF69AAE01A151F822F0699F0200EE
:109EC000A19F0200B99F0200BF9F0200EB9B02000E
:109ED000C59F0200D79F02001A78072AE6D801A181
:109EE00051F822F0059F0200AD9E0200AD9E0200D7
:109EF000319F0200459F0200659F0200659F02009E
:109F00002D9F02001A895948594C01321A810022AA
:109F10005A80DA74142505FB02F10132095DB1FAA9
:109F200081F14909092A00F8011BF4D1012207E057
:109F3000504958688A884088033202448A80022245
:109F40001A70B3E75C884A4A4A49142505FB042283
:109F50000868546850608888108102228A800C60EA
:109F60000622EDE70722EBE7414A4049104600246C
:109F7000142511F801EB1FFA86FCBEF1000F12D078
:109F800005FB060E01F8014CDEF80CE0BEF1000FF7
:109F900009D192F810E0BEF1000F04D0A3F802C07E
:109FA000FFF7F6FD46E70136092E02F11402E0D173
:109FB00000221A705A8062E6FFF7B6FC3AE7FFF714
:109FC00053FC37E75A882A4B142101FB02335868A7
:109FD000FFF77EFC2EE700225A60FFF765FC29E7B9
:109FE00001228DF80C201A89ADF818209A88DB68B8
:109FF000ADF81A20059310E002228DF80C201A8982
:10A00000ADF818209A88ADF81A20DA689B7D059281
:10A010009A1F534253418DF81C3003A8FFF7D2FB1F
:10A020000026414614483E6000F0AEFC1348012172
:10A0300000F029FD00287FF4C4ADD2E603228DF89C
:10A040000C20DA88ADF818201A89D0E704228DF8A0
:10A050000C20DB88ADF81830DFE705238DF80C30D5
:10A06000DBE700BF40320020143000201E3000200B
:10A0700034300020303200201C3200202C320020EE
:10A080004068FFF797BD000008B50548012100F0C2
:10A09000E2FC18B9BDE80840FFF78CBD08BD00BF61
:10A0A0002C3200202DE9F3419846374B1B780646A9
:10A0B0000D46002B5CD000295DD009884FF6FF7358
:10A0C00099425BD06B88002B58D06B689B0758D1A6
:10A0D0004AB92F890DF102013846FFF799FB30B1DB
:10A0E00002B0BDE8F08113885788ADF8023001A8AE
:10A0F000FFF736FC044660B9BDF80220234B14215B
:10A1000001FB023358890338C01B588148F20760AD
:10A11000E6E780F8008000238375BDF80230838273
:10A120006B68036101211A4800F0A1FC2B88238190
:10A13000B8F1030F6B88A38004BF0423A3754FF00D
:10A14000000508BF3368E06008BFA3611148E780DD
:10A15000658101A900F0DDFB36B1E36833600E4B89
:10A1600075601B89B5723381FFF78EFF0020B7E75A
:10A1700048F20160B4E748F20460B1E748F20360D6
:10A18000AEE748F20260ABE70C300020343000202C
:10A190002C3000201C3200201430002008B503466B
:10A1A00007480268042A08D00168064A42F82130AC
:10A1B000012100F05CFC002008BD48F20B60FBE7C9
:10A1C00038320020FC2F00202DE9F04F89B01422F6
:10A1D000002103A809F04CFB7A4B1B7803F0FF0B1E
:10A1E0003BB103A8FFF7EEFA0027384609B0BDE8F7
:10A1F000F08F744B181D00F052FC0028F4D1DBF8EE
:10A20000F83FDFF8E0A15C1C08BF4FF010234FF0CF
:10A21000805208BF5B6911695269581C08BF02FB74
:10A2200001F3CAF810306849A3F5204300225046D4
:10A23000CAF80C3001F01CF807460028D5D11C23C1
:10A2400062496348DFF8A0914FF49A7200F002FB74
:10A250000A23B8463D4601933C46DAF80C60464472
:10A260003046FFF78BFB012862D0032817D0002867
:10A270003DD158494FF0140C0CFB04FC01EB0C02CF
:10A2800001F80C0056600CF110020CF1080C0A44A5
:10A2900030466144FFF78AFB45F0020545E032682D
:10A2A000531C02D04C4B9A4234D1321D06F58051DA
:10A2B000106801302ED104329142F9D1D9F8002032
:10A2C0003AB90222C9F80060A9F804204FF0010B46
:10A2D0000BE0142262433F4B0220991898543F4AE6
:10A2E0004E60548001340881A4B245F0010508F5A0
:10A2F0008058B8F5204FB0D1019B012B98BF0025A5
:10A30000EDB2022D03D0062D32D0002D39D148F206
:10A310000A676AE7019B2F495A1E93B214226243CF
:10A32000881801934660032088540134A4B2DEE704
:10A33000BBF1000F0DD0274B142262439918022065
:10A340009854D9F800204A60244A08815480013486
:10A35000A4B200222249C9F800603046FFF726FB6C
:10A36000B9F80420022A0CBF042208221543BEE7D4
:10A37000144A0123137003A800235360FFF722FA45
:10A3800033E702A8FFF7ECFAC8B10123013D0370DF
:10A390000A2D09D8DFE805F00608060807080708AF
:10A3A0000F110F000023037102A9094800F0B1FA50
:10A3B000FFF76AFE19E70323F5E70223F3E748F204
:10A3C000076712E70C30002034400300E83000201B
:10A3D0001C32002034300020DEC0ADDE14300020FE
:10A3E00034320020F02200203032002073B50D46B8
:10A3F0000446C8B1C1B10DF10601FFF735FBB0B19C
:10A40000BDF806300B486668142202FB03000121E8
:10A410000C3000F02CFB63682E600C336B60012362
:10A42000A372002002B070BD48F20460FAE748F25F
:10A430000960F7E73430002013B50446A8B10DF1E8
:10A440000601FFF711FB98B1BDF806200B4B142154
:10A4500001FB0233DA6872B1A27A62B1DA680020D5
:10A46000013ADA60A07202B010BD48F20460FAE767
:10A4700048F20960F7E748F20560F4E7343000205D
:10A4800002230022FFF70EBE18B103230022FFF7BC
:10A4900009BE48F204607047104B1B7837B505467B
:10A4A0009BB1A8B101A8FFF75BFAA0B10423037028
:10A4B0002B68C3600024047101A9094800F029FA3F
:10A4C000FFF7E2FD204603B030BD48F20160FAE735
:10A4D00048F20460F7E748F20760F4E70C30002028
:10A4E0001C320020114B1B7813B50446ABB14FF65C
:10A4F000FF73984214D001A8FFF732FA98B10523F0
:10A50000037001230371C48001A9094800F001FA16
:10A51000FFF7BAFD002002B010BD48F20160FAE773
:10A5200048F20360F7E748F20760F4E70C300020D8
:10A530001C3200200F4B1B7807B5A3B101A8FFF711
:10A540000FFA98B10623037001A90B4800F0E1F956
:10A550000A4B1A780AB10122DA74FFF795FD002040
:10A5600003B05DF804FB48F20160F9E748F20760C8
:10A57000F6E700BF0C3000201C3200201430002011
:10A5800007B51346ADF806000A4600200DF1060196
:10A59000FFF7BAFA03B05DF804FB006800BA704731
:10A5A00010B5C4B280F00100C0B2431E23EA00001F
:10A5B00040F3C013601E0A78497820EA040040F393
:10A5C000C010024022EA030201EA0300104310BD5A
:10A5D0000368CB701A0E0A701A0C4A701A0A8A7035
:10A5E0004368CB711A0E0A711A0C4A711A0A8A71E1
:10A5F0008368CB721A0E0A721A0C4A721A0A8A728D
:10A60000C368CB731A0E0A731A0C4A731A0A8A7338
:10A61000704708B50346FFF7C0FF0860181DFFF735
:10A62000BCFF486003F10800FFF7B7FF886003F143
:10A630000C00FFF7B2FFC86008BD13B54FF4074325
:10A64000ADF80430C3685A00CA608268DB0F43EA81
:10A6500042038B604368D20F42EA43024A600068BB
:10A66000DB0F43EA40030C460B60C00F01A9FFF764
:10A6700097FFE3685840E06002B010BD1F4B1B78A5
:10A68000F0B5024673B380B379B30868431E1F2B3D
:10A690002ED81B4C1B4DDFF870C0002354F8047BF0
:10A6A00055F8046BB84203D85CF82370B74205D163
:10A6B000012E03D80133072BF0D100231248134C8D
:10A6C00050F8230054F82350A8B9114C2368DE0732
:10A6D00011D523F0010323600E4B2B44136020237C
:10A6E0000B60F0BD48F20810FBE748F20E10F8E7E7
:10A6F00048F20710F5E748F20410F2E76C32002048
:10A70000F83D0300C03D0300143E0300DC3D0300A0
:10A71000483200204C32002013B50024CDE900401F
:10A7200001A96846FFF7AAFF00B10094009802B0A3
:10A7300010BD0000074B1B7853B130B97047064A73
:10A74000136843F0010313607047044B9842F6D03E
:10A75000704700BF6C320020483200204C3200208D
:10A7600038B503460A4653F8081B04464D6840684E
:10A770001946A847236BE16A5A1E0B4408331C4450
:10A7800014F8013D0133DBB2237013B90AB1013A69
:10A79000F6E738BDC0E900120A680830194609F02A
:10A7A0003EB82DE9F04380461D4658F8083BD3F8E3
:10A7B000009085B00646174615B905B0BDE8F08390
:10A7C0000C466B464046194604EB090C64450DD116
:10A7D000336870685B6842469847414638464A4647
:10A7E00009F01DF84F442146013DE5E714F8012B1F
:10A7F00010F801EB82EA0E0203F8012BE6E7F8B548
:10A800000D4604461746002134221E4609F030F852
:10A810002A6822630023C4E90057E362A362314639
:10A8200004F10800BDE8F84008F0F9BF7FB5044620
:10A83000074E54F8285B0390CDE9013600920B4691
:10A840002A6821461830FCF784FA04B070BD00BFB6
:10A8500061A7020010B561B1B2FBF3F403FB14244D
:10A86000A4B244B9C0E9001484608281C381204647
:10A8700010BD0E20FCE70920FAE782B050E8022F55
:10A88000C188B2EB324F4FF0000317BF92B241EADA
:10A89000014142EA014104E04268B2EB324F08BF95
:10A8A000012340E80212002AE8D18DF807309DF814
:10A8B0000730002B0CBF1120002002B0704737B5C5
:10A8C00050E8013F9DB2C48925448489A54228BF30
:10A8D0002D1B0489A54202BFBFF32F8F002207E082
:10A8E000C5EA030540E80154002CE9D14FF001020C
:10A8F0008DF803200193019A0A609DF8031001F07E
:10A90000FF0321B1006810FA82F003B030BD184691
:10A91000FBE70A884B889A4209D150E8012FC2EA26
:10A92000024240E80123002BF7D1012070470020AC
:10A93000704737B550E8023F1FFAA3F5C488A54217
:10A9400002BFBFF32F8F00220DE0C4892544848904
:10A95000A54228BF2D1BC3EA054540E80254002C40
:10A96000E8D14FF001028DF803200193019A0A60AB
:10A970009DF8031001F0FF0321B1006800EB1240C5
:10A9800003B030BD1846FBE70A884B889A4209D1CC
:10A9900050E8022FC2EA224240E80223002BF7D1FE
:10A9A000012070470020704701F01F024B09012170
:10A9B000914000EB830000F02AB801F01F03012250
:10A9C0009A404B0900EB8300D14300F038B84B09A3
:10A9D00001F01F0150F82300C84000F0010070474B
:10A9E00010B5034653E8000F0A4643E8002494F0EC
:10A9F000000FF7D110BD10B5034653E8000F40EA31
:10AA0000010243E8002494F0000FF6D110BD10B508
:10AA1000034653E8002F42EA010043E8000494F0A3
:10AA2000000FF6D110BD10B5034653E8000F00EA41
:10AA3000010243E8002494F0000FF6D110BD10B5D8
:10AA4000034653E8002F02EA010043E8000494F0B3
:10AA5000000FF6D110BD10B5034653E8000F00EB10
:10AA6000010243E8002494F0000FF6D110BD10B5A8
:10AA7000034653E8002F02EB010043E8000494F082
:10AA8000000FF6D110BD10B5034653E8002FA2EB1E
:10AA9000010043E8000494F0000FF6D110BD01213D
:10AAA000FFF7A9BF0121FFF7B2BF0021FFF7BBBF2E
:10AAB00037B5054600240DF107008DF80740FCF777
:10AAC0009DF82A686B68116899420ED9481E10607B
:10AAD00011F8013CEC68298A01FB0344AB68117949
:10AAE0001B1ADBB2994238BF13719DF80700FCF7BF
:10AAF000A9F8204603B030BD37B5054600230DF157
:10AB000007000C468DF80730FCF778F82A681368C0
:10AB1000591C1160E968641A298AB4FBF1F41C70AD
:10AB20009DF80700FCF78EF803B030BD6CDF70476E
:10AB300074DF7047ACDF704730DF704731DF70473C
:10AB4000024B1B6803B11847704700BFE832002072
:10AB50001FB510B11B4B01221A701B4B1A884FF600
:10AB6000FF739A4228D1174B1A782AB300221A7021
:10AB70009DF8083062F347038DF808300DF10700A7
:10AB8000FFF7DAFF9DF80730052BF7D906210DF105
:10AB90000900FFF7D3FF0D4B1878FFF7C9FF02A894
:10ABA000FFF7C4FF0828FAD008B1FBF785FDFDF7D1
:10ABB00027F820B1FDF70AF805B05DF804FBFDF7B2
:10ABC00013F8F9E7EC320020222300202023002094
:10ABD000F0B5054685B0FDF719F82C48294606F072
:10ABE00025F808B1FBF768FD00240294CDF80B406E
:10ABF000FEF7EAFB2B88102B07D0112B0CD0284630
:10AC000005B0BDE8F040FDF705BC214BAA881A80CD
:10AC10001E4B1B6F1C70F2E71D4B4FF6FF721A8024
:10AC200002AF00F12A06E0B2FEF77EFA08B1FBF7A8
:10AC300043FDA3010134F35C052C83F0010307F805
:10AC4000013BF0D1012102A8FDF7C4FB08B1FBF7DD
:10AC500033FDFDF72FF8ADF80400FCF7D1FF01211B
:10AC60008DF8060001A8FDF77DFB08B1FBF724FD78
:10AC7000064B93F87420012A08BF00224FF0000011
:10AC800008BF83F87420FFF763FFB8E77032002035
:10AC90002223002000B58BB004293ED8DFE801F064
:10ACA000030A121B34001E4B012283F874200BB0E0
:10ACB0005DF804FBFEF71CFB01200BB05DF804EB14
:10ACC000FFF746BF02A90190FEF7C8F8019802A954
:10ACD000FEF700FBEBE702A9FEF788F8114A2023F4
:10ACE000136002AB5360104B19884FF6FF73994203
:10ACF000DDD00B4B998FB3F86400FFF71BFF0028E2
:10AD0000D5D0FBF7D9FCD2E7FEF70EFA0028CED05B
:10AD10000BB05DF804EBFBF7CFBC0720F8E700BFF2
:10AD200070320020F032002022230020012808B5D4
:10AD300008D0022806D048B9FFF702FFBDE8084056
:10AD4000FDF7B0BEBDE80840FFF7FABE08BDFCF74E
:10AD50003DBF000070B5524B1860524B9AB04FF691
:10AD6000FF721A80FEF77AFC4F48FDF705FC08B128
:10AD7000FBF7A2FCFDF76AFB08B1FBF79DFCFDF7B2
:10AD800043FB0028FBD14948FEF72CF908B1FBF73B
:10AD900093FCFCF7B9FF464A10685168127A03AB7E
:10ADA00003C30AAC1A7000210F22204608F060FD90
:10ADB0004FF4A063ADF8283040F20523ADF82A30F7
:10ADC00009220F2303A90DF12E00ADF82C3008F055
:10ADD00026FD4FF47A730021ADF838300C224FF481
:10ADE000807306A8ADF83A10ADF83C3008F040FD8D
:10ADF000304B07932C48304B089306A9069405F076
:10AE0000E7FF08B1FBF758FC2C4B06AA03F1080634
:10AE100018685968154603C50833B3422A46F7D166
:10AE200018689B882860AB8040220021204608F0EB
:10AE30001FFD4FF461630E2206A9ADF84E300DF1EF
:10AE40003A0001238DF8523008F0E9FC2046FEF765
:10AE5000BFFAFDF769F900212046FDF783FA48F2B1
:10AE60000962904216D14FF47A73ADF8283000236E
:10AE70008DF82A30124B0C480093BDF828209DF81D
:10AE80002A3010490078FCF71BFF1AB0BDE870406B
:10AE9000FCF7AABE0028EDD0FBF70EFCEAE700BFE6
:10AEA000E8320020222300207032002095AC0200FE
:10AEB000303E0300E584020039850200393E03007C
:10AEC000202300202DAD0200826810B504462AB16F
:10AED00043690168006998470023A36010BD0EB460
:10AEE00003B5039921B104AB01AA019300F076F8F0
:10AEF00002B05DF804EB03B070470A2938B5044688
:10AF00000D4602D10D21FFF7F8FFA3682268591CF6
:10AF1000A160D554D4E901329A4204D32046BDE859
:10AF20003840FFF7D1BF38BD2DE9F84F9846DDE92D
:10AF30000A43154682460F460A464FF00109AA42C7
:10AF40000FD2C14538BFC14613F0010B01D16CB916
:10AF500000240126B8F1010F1BD908F1FF386E4318
:10AF6000F8E709F10109B2FBF5F2E8E79B070ED516
:10AF7000B8F1000F0CBF30262026A145E9D2013CD4
:10AF800031465046FFF7B9FF002CF6D1E0E7202606
:10AF9000F3E7B7FBF6F39D42E1D9DFF83C80B7FB5E
:10AFA000F6F3504618F8031006FB1377FFF7A5FFDA
:10AFB0003346AB42B6FBF5F6F1D2BBF1000F02D03F
:10AFC0000CB1A14501D3BDE8F88F20215046013CCA
:10AFD000FFF793FFF4E700BF473E03002DE9F74F6B
:10AFE000054617468846002900F03E8118F8011BE7
:10AFF00049B92B7B002B00F03781284603B0BDE810
:10B00000F04FFFF761BF252940F0B780002698F880
:10B0100000302D2B424608F1010823D0302B24D0DC
:10B020002B2B25D000242A2B02F1010123D13B68D0
:10B030001A1D1B683A601C440A4613782E2B26D131
:10B0400001324FF0000A104610F8011BA1F1300C3C
:10B05000BCF1090F1DD80A2303FB0A13A3F1300A20
:10B060000246F0E746F00106D1E746F00206CEE7D9
:10B0700046F00406CBE711F8013CA3F130000928A3
:10B08000DBD80A2202FB0434303C0A46CBE74FF0FF
:10B09000000A12F8011B01F0FB0068289046F8D066
:10B0A000782909D86F290CD8632962D022D825299C
:10B0B00063D0582900F0888098F80030002B95D193
:10B0C00097E770390829F7D801A353F821F000BF9A
:10B0D00043B20200B9B00200B9B00200D9B1020017
:10B0E000B9B00200B7B10200B9B00200B9B00200B5
:10B0F000C9B10200642901D06929DDD13A68D2F8CA
:10B100000090111D89EAE9723960A2EBE9724FF0F3
:10B11000010B092A35DCD34538BFD3462CB1B9F130
:10B12000000F01DB720700D5013CB30702D5BAF16D
:10B13000000F03D0F00701D44CBB0024B9F1000F7D
:10B140002DDAC9F100092D212846FFF7D6FE06F0B9
:10B150000302022A04D1BAF1000F01D11CBB002462
:10B16000CDE9004653460A2249462846FFF7DCFE51
:10B17000A2E73B681A1D19783A602846FFF7BDFE22
:10B180009AE70A230BF1010BB2FBF3F2C1E7A345E7
:10B19000D4D220212846013CFFF7AFFECCE771074F
:10B1A000D5D52B21D0E7A345DAD230212846013C62
:10B1B000FFF7A3FED2E73968CDE900460A1D3A60E1
:10B1C00053460A220968D0E739680A1D3A60CDE97A
:10B1D000004653461022F5E73B681A1D3A6016F008
:10B1E0000106D3F8009024D1B9F1000F03D04846EE
:10B1F00008F071FB0646B4421DD809F1FF3919F871
:10B20000011F00293FF458AF2846FFF776FEF6E706
:10B2100028460136FFF771FE19F806100029F7D10C
:10B22000A642BFF449AF20212846013CFFF765FE46
:10B23000F6E70026F0E720212846013CFFF75DFEF7
:10B24000D9E73B681A1D3A60302128461C68FFF791
:10B2500054FE78212846FFF750FE00220823CDE94E
:10B2600000322146102280E703B0BDE8F08F00BF16
:10B2700013B50B46114680B9104B1148114AC01A3C
:10B280000E23C0080093104B0004104940F0010049
:10B2900006F077FB0E2002B010BD4BB9074B0848F3
:10B2A0000B4AC01AC0080E2300930004064BECE7BB
:10B2B00003601B6802B0BDE810401847E439030082
:10B2C000543A0300573E0300134003005C3E030062
:10B2D0008B3E03002DE9F743DDF8288088B93E4B0B
:10B2E0003E483F4AC01AC0080E243E4B009400045A
:10B2F0003D4940F0010006F044FB204603B0BDE8A4
:10B30000F0834AB9344B3548384AC01AC0080E2475
:10B31000344B00940004EBE7D0F800E0BEF1000FDE
:10B3200009D12D4B2D48324AC01AC00808242D4B94
:10B3300000940004DCE74BB9274B28482D4AC01A7B
:10B34000C0080924274B00940004D1E74568D5F8CC
:10B350000490B3FBF9F509FB15354DB11E4B1F48A1
:10B36000254AC01AC00809241E4B00940004BFE7F8
:10B370008D0709D0184B1948204AC01AC00810245C
:10B38000184B00940004B3E712F0030F09D0124BDE
:10B3900012481B4AC01AC0081024124B0094000423
:10B3A000A6E7C568A9420DD34D1EEC180569AC424D
:10B3B00008D8CDF82880DEF80C40A44603B0BDE8DC
:10B3C000F0436047044B05480E4AC01AC0081024D9
:10B3D000044B009400048BE7E4390300543A030063
:10B3E000573E0300004003005C3E0300D93E0300CB
:10B3F000853E0300983E0300DF3E0300093F030043
:10B40000213F0300443F0300F7B580B92A4B2B4886
:10B410002B4AC01AC0080E242A4B009400042A4963
:10B4200040F0010006F0ADFA204603B0F0BDD0F8C0
:10B4300000C0BCF1000F09D11F4B2048234AC01A9D
:10B44000C00808241F4B00940004E8E74AB91A4BCF
:10B450001A481F4AC01AC00809241A4B0094000455
:10B46000DDE74568D5F800E00EF1FF350D4209D063
:10B47000114B1248174AC01AC0081024114B0094EF
:10B480000004CCE7C568A9420CD34D1E0EFB025444
:10B490000569AC4206D8DCF81040A44603B0BDE80C
:10B4A000F0406047044B05480B4AC01AC0081024FE
:10B4B000044B00940004B2E7E4390300543A03005B
:10B4C000573E0300ED3F03005C3E0300853E030052
:10B4D000983E03006B3F0300913F030029DF704754
:10B4E00028DF704770B503689E6886B004460D4635
:10B4F0006EB114220021684608F0BAF9A3680593DA
:10B50000237901952BB1012B0DD06846B04706B0C9
:10B5100070BD01238DF8003023690293E368039323
:10B5200063690493F1E702238DF80030E3681B039D
:10B530000293F5E70846704700207047024B187ADF
:10B54000003818BF0120704794330020034B187A4D
:10B550000122B0FA80F05A744009704794330020F9
:10B5600008B510461A4608F05AF9002008BD000038
:10B5700008B514220021044808F07AF90348FFF7BF
:10B580007CF9002008BD00BF9433002084330020E4
:10B5900010B5094C094B43602046FFF780FA40B9CB
:10B5A00005F0DCFD064920741C2306488C22FFF7B9
:10B5B00051F9002010BD00BF943300202840030043
:10B5C000F83200208433002038B5234D234C2B7AE9
:10B5D0003BB923492348FFF7ACF9206008B96860FC
:10B5E00038BD022324682B72237973B1012B24D038
:10B5F00020460321FFF776FF00232B726B6018496A
:10B600001848BDE83840FFF7BFB9D4E90523D21A7E
:10B61000B2F5805FD4E9031028BF4FF4805292083E
:10B62000012A38BF012219441844FFF757FF50B1CF
:10B630001128DDD101232B72D2E7D4E9030318448A
:10B64000FFF74EFFF3E72B7C002BC9D1BDE8384054
:10B65000022000F009B800BF94330020AC33002072
:10B66000A83300208433002038B5234C237A002BE4
:10B6700041D0022B09D1032830D0204B00221B6877
:10B68000E2601A793AB1012A22D0637C7BBBBDE823
:10B690003840FFF799BFD3E905128D1AB5F5805FE1
:10B6A00094BF521902F580529A619142EDD102285D
:10B6B0004FF0000308BF19462372104B18BF0D212D
:10B6C0001868FFF70FFF0E490E48FFF75DF9DCE73A
:10B6D0001A6901321A615B699A42E7E7E36801334C
:10B6E000082B01D8E360D0E70023E360DFE7BDE883
:10B6F000384005F023BD38BD94330020AC33002022
:10B70000A833002084330020831E012B01D8FFF7CB
:10B71000ABBF704700F0FD03012B08D1044B0022A2
:10B720005A74421E504250411874FFF74DBF704783
:10B730009433002010B5064C201DFFF7B0F928B94E
:10B74000637C1BB9BDE81040FFF73EBF10BD00BFD2
:10B75000943300202DE9F34180460D460F4801A99E
:10B7600016461F46FFF7ABF80446A8B11C2200217D
:10B7700008F07EF82D0B0123237101A90748C4F8B6
:10B780000080A760E5606661FFF7C3F8FFF7D2FFAE
:10B79000002002B0BDE8F0810420FAE784330020E5
:10B7A0002DE9F74381468846104801A917461E46F1
:10B7B000FFF785F80446B0B11C22002108F058F8C4
:10B7C00000250A9BA36001A9C4E9037807482571F5
:10B7D000C4F800906661FFF79CF8FFF7ABFF2846BE
:10B7E00003B0BDE8F0830420FAE700BF84330020F3
:10B7F0002DE9F84FB0F806A04579D2F800B09DF8D1
:10B8000028900AFB05F5043D88460BEB0301A9428D
:10B8100003F1040488BFA5EB030BB4FBFAF607465B
:10B820000AFB1644C2F800B04EB9AAEB04055D4508
:10B8300028BF5D46BBF1000F04D1BDE8F88F3F681B
:10B84000013EF1E7043408EB06003C442A46B9F116
:10B85000000F0DD02146ABEB050B07F0E0FFDA45FA
:10B860002E443F6855464FF0000428BF5D46E1E78F
:10B8700001462046EFE7F8B546790146721E0546B7
:10B88000002393422D6803D30024A64202D8F8BDBA
:10B890000133F6E70F682846FFF72EF901343946E1
:10B8A000F3E72DE9F843068ACD1C0746FFF700F9B8
:10B8B000043E35440446B5FBF6F5F0B14FF4807311
:10B8C000EDB28380C680013D076081464FF00008DD
:10B8D000A84512D23846FFF7EBF8064648B163791F
:10B8E0000133637108F10108C9F80000076081465F
:10B8F000EEE72046FFF7BFFF34462046BDE8F88359
:10B9000001210430FFF7B3B810B50121044604301B
:10B91000FFF7B9F8C0B220B92046BDE81040FFF7E4
:10B92000AABF10BD1FB503920022009203AAFFF721
:10B930005FFF05B05DF804FB1FB503920122009282
:10B9400003AAFFF755FF05B05DF804FB41DF704720
:10B95000064B10B500241C70054B1C60BFF35F8FB5
:10B960000449054800F005F9204610BDB833002011
:10B97000BC33002060400300B033002007B5002333
:10B980000DF107008DF80730FBF738F9F1EE103AAA
:10B9900023F09F03E1EE103ABFF35F8F0A4B402282
:10B9A000C3F884219DF80700FBF74CF905F0D6FB9E
:10B9B00020B103B05DF804EBFFF7C8BF20BF40BF64
:10B9C00020BF03B05DF804FB00E100E002681368EB
:10B9D0005268934291BFD01A80680130801888BFA6
:10B9E000C01A704703682DE9F0411F681E681546AC
:10B9F0005A68964286BF83680133961B8846C268A0
:10BA0000416888BF9E1BB542044607FB02110CD853
:10BA10006A43404607F003FFA3683D449D4288BF48
:10BA2000002523681D60BDE8F08106FB02F73A4659
:10BA3000404607F0F4FEE2686168AD1B6A4308EB1C
:10BA4000070007F0ECFEECE7036881681A685B68A2
:10BA50008B4234BF01330023D31A584258417047F8
:10BA600073B5002304460DF107000D468DF807302D
:10BA7000FBF7C4F82046FFF7E7FF10B1237C002B4B
:10BA80003BD12368A1685E685A688A4234BF01329C
:10BA900000225A6028B11A688A4234BF013200225B
:10BAA0001A60E2686368511E072920D8DFE801F0B8
:10BAB00004101F141F1F1F182A789A552046FFF7DD
:10BAC00085FF23689A68824200D29860002415E0BE
:10BAD0002A8823F81620F1E72A6843F82620EDE7A4
