:020000022000DC
:1060000000000120756302005D6302005F6302000F
:106010006163020063630200656302000000000028
:1060200000000000000000000000000067630200A4
:1060300069630200000000006B6302006D630200F0
:10604000512C03006F630200553E03006F63020092
:106050006F6302006F630200753B03006D45030030
:106060006F63020079160300911603006F6302004C
:106070006F630200A14103006F6302006F630200BF
:106080006F6302003D8D02006F6302006F630200C8
:106090006F6302006F630200FDD303006F630200B1
:1060A0006F6302006F6302006F6302006F630200A0
:1060B0006F6302006F630200000000000000000038
:1060C0006F6302006F6302006F6302006F63020080
:1060D0006F6302006F6302006F6302000000000044
:1060E00000000000000000000000000000000000B0
:1060F00000000000000000000000000000000000A0
:10610000000000000000000000000000000000008F
:10611000000000000000000000000000000000007F
:10612000000000000000000000000000000000006F
:10613000000000000000000000000000000000005F
:10614000000000000000000000000000000000004F
:10615000000000000000000000000000000000003F
:10616000000000000000000000000000000000002F
:10617000000000000000000000000000000000001F
:10618000000000000000000000000000000000000F
:1061900000000000000000000000000000000000FF
:1061A00000000000000000000000000000000000EF
:1061B00000000000000000000000000000000000DF
:1061C00000000000000000000000000000000000CF
:1061D00000000000000000000000000000000000BF
:1061E00000000000000000000000000000000000AF
:1061F000000000000000000000000000000000009F
:10620000354936480A1A02D0072291438D4634494F
:1062100034480A1A06D00722914381F309880222E2
:1062200082F3148830483149314A00F044F831484B
:106230003149324A00F03FF831483249324A00F0E1
:106240003AF832483249334A00F035F83248334997
:10625000334A00F030F833483349344A00F02BF821
:1062600033483449344A00F026F83448344900228F
:1062700000F02CF833483449002200F027F8334866
:106280003349091A082902DB002202604160314AC1
:1062900090471F481F49884205D00268043003B464
:1062A000904703BCF7E700208646EC46002000211B
:1062B000294A9047FEE7884207D0521A05D0037852
:1062C00001300B700131013AF9D17047884202D098
:1062D00002700130FAE770470000012000E0002062
:1062E0000000012000000120845F0400042300203E
:1062F00058250020D0630200D0630200FE25040070
:10630000845F040004230020042300208C27040061
:106310008C2704008C2704008C2704008C270400A1
:106320008C2704008C2704008C270400825F040063
:10633000D861040058250020582500205825002049
:106340002C4300202C4300202C4300202C43002011
:106350002C6300209D6302004D760300FEE7FEE7FC
:10636000FEE7FEE7FEE7FEE7FEE7FEE7FEE7FEE705
:1063700000F002B8FFF7FCBF0F484FF00701884359
:1063800085460E4880470E48016841F4700101605F
:10639000BFF34F8FBFF36F8FFFF732BF09480A4932
:1063A0000A4A884207D0521A05D0037801300B7090
:1063B0000131013AF9D17047000001207D1B040032
:1063C00088ED00E078270400F0220020042300205C
:1063D000FEE7000084B003468DF807309DF80730D3
:1063E0005B08DBB21A460D4B9B5C8DF80F309DF8B5
:1063F000073003F00103002B04D09DF80F301B0978
:10640000DBB204E09DF80F3003F00F03DBB28DF830
:106410000E309DF80E30184604B0704790250020CD
:1064200084B003460A468DF8073013468DF80630CF
:106430009DF8073003F00103002B01D00F2300E08B
:10644000F0238DF80F309DF8073003F00103002B87
:1064500004D09DF806301B01DBB201E09DF8063048
:106460008DF80E309DF807305B08DBB21A46114BF1
:106470009A5C9DF807305B08DBB219469DF80F3037
:106480001340DAB20B4B5A549DF807305B08DBB26D
:106490001A46084B9A5C9DF807305B08DBB2194638
:1064A0009DF80E301343DAB2024B5A5400BF04B0C9
:1064B000704700BF9025002084B003468DF8073058
:1064C0000023039310E00D4B1A68039BDB00134479
:1064D0000293029B1B789DF807209A4201D1029BF0
:1064E00009E0039B01330393054B1B781A46039B7A
:1064F0009342E8DB0023184604B07047582500207B
:106500005C25002000B585B003460A468DF80730AB
:1065100013468DF806309DF807301846FFF7CCFF7C
:106520000390039B002B0BD0039B5B68002B07D0D1
:10653000039B5B689DF806109DF80720104698475E
:1065400000BF05B05DF804FB2DE9F04F87B00346AE
:106550000A468DF80F3013468DF80E309DF80F3037
:106560001846FFF737FF0346042B00F2C28001A252
:1065700052F823F089650200FD65020019660200E9
:10658000496602005F6602009DF80E30002B00F0A5
:10659000AD809DF80F3001211846FFF741FF002321
:1065A0008DF817300DF11703184600F057FF9DF8CE
:1065B0000F104FF001024FF00003A1F12004C1F1D0
:1065C000200003FA01F702FA04F4274322FA00F04C
:1065D000074302FA01F6494BD3E9002346EA0201D8
:1065E00000913B430193454BDDE90012C3E90012E2
:1065F0009DF81730184600F03BFF77E09DF80E300D
:10660000002B01D0022200E000229DF80F3011463D
:106610001846FFF705FF6CE09DF80E30002B0CD0FC
:106620009DF80F3003211846FFF7FAFE9DF80F3052
:1066300001211846FFF766FF5BE09DF80F3001214E
:106640001846FFF7EDFE54E09DF80E30002B4FD1B9
:106650009DF80F3004211846FFF7E2FE48E09DF850
:106660000E30002B06D09DF80F3003211846FFF79F
:10667000D7FE3EE09DF80F3000211846FFF7D0FE10
:106680009DF80F3000211846FFF73CFF00238DF8DE
:1066900016300DF11603184600F0E0FE9DF80F10BD
:1066A0004FF001024FF00003A1F12006C1F12000DC
:1066B00003FA01F502FA06F6354322FA00F0054323
:1066C00002FA01F46FEA04086FEA05090B4BD3E9FB
:1066D000002308EA020A09EA030B084BC3E900ABEE
:1066E0009DF81630184600F0C3FE02E000BF00E03F
:1066F00000BF00BF07B0BDE8F08F00BF88250020B5
:1067000000B583B00648074B1B685B08002219469A
:1067100000F0DBFD019000BF03B05DF804FB00BF9B
:10672000682500206025002000B587B00190002377
:10673000059328E01C4B1A68059BDB001344049367
:10674000049B1B7818460DF005FA03468DF80F30B0
:10675000049B5B78012B0CBF01230023DBB21A469C
:106760009DF80F309A420CBF012300238DF80E30A4
:10677000049B1B789DF80E2011461846FFF7E4FE97
:10678000059B01330593094B1B781A46059B9342E1
:10679000D0DB074BD3E90023134301D0FFF7B0FF51
:1067A00000BF07B05DF804FB582500205C250020E1
:1067B0008825002000B585B001900B468DF8033088
:1067C000019BDBB21846FFF777FE0390039B1B7813
:1067D00018460DF0BFF903468DF80B30039B5B782C
:1067E000012B0CBF01230023DBB21A469DF80B30AE
:1067F0009A420CBF012300238DF80A309DF80A301D
:10680000002B06D0054BD3E90023134301D1FFF73A
:1068100077FF00BF05B05DF804FB00BF88250020AE
:1068200000B58BB003900B4601928DF80B30019BA5
:10683000092B01D8072367E00CF08CFF034683F097
:106840000103DBB2002B09D00CF032FF0990099B49
:106850000893089B002B01D0089B55E02C4A039B12
:1068600013602C4A9DF80B3013702B4A019B136068
:106870001022002129481BF03BFE29494FF000025D
:106880004FF00003C1E9002331E09DF80B30DB003D
:10689000039A1344079303238DF8143000238DF8D3
:1068A00015309DF816306FF300038DF816309DF803
:1068B00016306FF341038DF816309DF816306FF3E4
:1068C00082038DF81630079B9B788DF81530079B57
:1068D0001B78184605AB134A19460DF02FF809909E
:1068E000099B0693069B002B01D0069B0CE09DF8AC
:1068F0000B305A1E8DF80B20002BC6D10A4A0021FE
:106900000A4800F0C3FC034618460BB05DF804FBD0
:10691000582500205C2500206025002090250020BF
:1069200088250020B5670200296702009827040027
:1069300000B583B0002301930CE00C4B1A68019B57
:10694000DB0013441B78012118460DF067F8019B0A
:1069500001330193064B1B781A46019B9342ECD3FB
:106960000023184603B05DF804FB00BF5825002043
:106970005C25002000B587B001900023039300231D
:106980000493019B059303AB1A46002144F20100D6
:1069900000F01AF800BF07B05DF804FBBFF34F8F9B
:1069A00000BF074BDB6803F4E0620549054B134366
:1069B000CB60BFF34F8F00BF00BF00BFFCE700BF3D
:1069C00000ED00E00400FA0500B585B003900291E7
:1069D000019272B600BF17F03DFE00BF17F0FAFB40
:1069E0000346002BFAD1114A114BD31ADB081B04C2
:1069F00043F001030F49184617F094FB0E4B1B6838
:106A000003F00103002B00D000BE084A084BD31A44
:106A1000DB081B0443F002030849184617F082FB09
:106A2000FFF7BCFF00BF05B05DF804FBF0260400D3
:106A3000A82604009C270400F0ED00E0A82704002D
:106A400082B00190019B03F00303002B0CBF0123D4
:106A50000023DBB2184602B07047000082B0034644
:106A60008DF807309DF807309AB2064B1B889A4282
:106A700004D29DF807300133DBB200E00023184652
:106A800002B07047AC25002000B583B00B4B1B78DB
:106A90008DF807300A4B1B78DBB21846FFF7DEFF94
:106AA00003461A469DF8073093420CBF012300238A
:106AB000DBB2184603B05DF804FB00BFA825002038
:106AC000A925002082B0084B1B788DF80730074BB2
:106AD0001B78DBB29DF807209A420CBF01230023EC
:106AE000DBB2184602B07047A8250020A925002077
:106AF00000B585B003460092ADF806300B46ADF800
:106B00000430BDF8043001339BB2DB00ADF80E3029
:106B10000098FFF795FF034683F00103DBB2002BDB
:106B200001D0072317E00E4A009B1360BDF80E301A
:106B3000009A13440B4A13600B4B00221A700B4B44
:106B400000221A700A4ABDF806301380094ABDF8BF
:106B5000043013800023184605B05DF804FB00BF25
:106B6000A0250020A4250020A9250020A82500207C
:106B7000AA250020AC25002000B587B003900B4665
:106B80000192ADF80A30374B1B88BDF80A209A42B3
:106B900060D84FF6FF73ADF8123000238DF8113036
:106BA0000DF11103184600F059FCFFF76DFF034685
:106BB000002B0ED12C4B1B78DBB2ADF812302A4BD8
:106BC0001B78DBB21846FFF749FF03461A46264BEF
:106BD0001A709DF81130184600F04AFCBDF81230CA
:106BE0004FF6FF72934232D0204B1A68BDF8123034
:106BF000DB001344019A1A60039B002B1CD0BDF8E4
:106C00000A30002B18D01A4B1B68BDF8122015490A
:106C1000098801FB02F21344BDF80A2003991846C3
:106C20001BF03DFC114B1A68BDF81230DB00134419
:106C3000BDF80A209A8007E00C4B1A68BDF81230A4
:106C4000DB00134400229A800023059304E0042310
:106C5000059301E009230593059B184607B05DF8ED
:106C600004FB00BFAA250020A9250020A0250020A4
:106C7000A4250020002318467047000000B585B009
:106C80002FE0204B1B78DBB2ADF80E301E4B1B689B
:106C9000BDF80E201D49098801FB02F2134402933E
:106CA0001B4B1A68BDF80E30DB0013449B88ADF80F
:106CB0000630174B1A68BDF80E30DB0013441B6812
:106CC0000093BDF80620009B1146029898470D4B93
:106CD0001B78DBB21846FFF7C1FE03461A46094B84
:106CE0001A70FFF7C7FF034683F00103DBB2002BE6
:106CF00004D0FFF7E7FE0346002BC2D000BF05B06B
:106D00005DF804FBA8250020A4250020AA2500206A
:106D1000A02500202DE9F04383B0144801F0F3FFD3
:106D2000034600221C461546114BD3E9002314EB01
:106D3000020845EB0309CDE900890E4BD3E9002396
:106D4000DDE90001904271EB030307D2DDE9002386
:106D500012F1807643F10007CDE90067DDE90023F9
:106D60001046194603B0BDE8F08300BF042300209D
:106D7000B8250020C025002088B001900091019B1B
:106D80000793009B0693079BD3E90223CDE90423D5
:106D9000069BD3E90223CDE90223DDE90423DDE9E3
:106DA0000201904271EB03032CBF01230023DBB2ED
:106DB000184608B070470000F0B585B00190002378
:106DC0008DF80F30274B1B78002B45D0019B002BF3
:106DD00042D0019B1B7FDBB2002B3DD0FFF79AFF17
:106DE000019BD3E90223904271EB03032CD3019B57
:106DF0001B69002B02D1019B00221A77019B5B6962
:106E0000019A926910469847019B1B69002B23D079
:106E1000019B1B7FDBB2002B1ED0019BD3E9022319
:106E20000199096900200C460546161943EB050730
:106E3000019BC3E90267019B19460B480AF025F83C
:106E400001238DF80F3007E0019B194606480AF030
:106E50001CF801238DF80F309DF80F30184605B04F
:106E6000F0BD00BFB4250020C4270400F0B589B0F0
:106E7000019000910D230793009B00221A70019B43
:106E8000D3E90245FFF746FF02460B46A61A65EB1B
:106E90000307CDE90467DDE90423012A73F1000348
:106EA0001BDB049BB3F5D40F05D300F059FA02465F
:106EB000134B134403E0019BD3E9022313460393CE
:106EC0004FF41603039A00210E4801F028FE0790A4
:106ED000079B002B05D101230EE00021094801F09A
:106EE000ECFE079B0D2B06D10198FFF765FF0346CB
:106EF0001A46009B1A700023184609B0F0BD00BF67
:106F0000FFFF69000423002000B583B0044809F0A6
:106F1000E5FF0190019B184603B05DF804FB00BF3C
:106F2000C427040000B583B0044809F0EDFF0190C8
:106F3000019B184603B05DF804FB00BFC4270400A2
:106F400000B583B0FFF7E0FF0190019B002B02D05A
:106F5000019B00221A77019B002BF3D100BF00BFD9
:106F600003B05DF804FB0000054BD3E9002312F1E8
:106F7000807043F10001024BC3E9000100BF70477C
:106F8000B825002000B583B00190084B1B68002B8A
:106F900007D0064B1B681846FFF70EFF034B002275
:106FA0001A6000BF03B05DF804FB00BFB0250020ED
:106FB00000B583B00190FFF7ADFE02460B460349D2
:106FC000C1E9002300BF03B05DF804FBC025002029
:106FD00000B585B00190FFF7A5FF039000238DF861
:106FE0000B30039B002B41D0244B1B68002B03D19B
:106FF00001238DF80B3019E0039BD3E902011F4BED
:107000001B68D3E90223904271EB03030ED20123E4
:107010008DF80B30194B1B681B7FDBB2002B05D0A2
:10702000164B1B681946164809F02FFF9DF80B30C8
:10703000002B1DD0FFF768FF03900DF10A031946DE
:107040000398FFF713FF0346002B0BD00B4A039B5B
:1070500013609DF80A3083F00103DBB2002BBAD035
:1070600000BF06E0054B00221A60B4E700BF00E055
:1070700000BF00BF05B05DF804FB00BFB0250020D5
:10708000C427040000B587B001902C4A03AB194611
:10709000104607F0A2FD059048E0059B1B78022BE7
:1070A0002ED0022B32DC002B02D0012B14D02DE08D
:1070B000059B5B681B7FDBB283F00103DBB2002B17
:1070C00026D0059B5B6801221A77059B5B681946F1
:1070D0001B4809F0DAFE1BE0059B5A68194B1B6838
:1070E0009A4203D1174B00221A6012E0059B5B689D
:1070F0001946134809F010FF03468DF8133008E0D5
:10710000FFF71EFF104B01221A7002E000BF00E0E3
:1071100000BF0A4A03AB1946104607F077FD074A3D
:1071200003AB1946104607F058FD0590059B002B50
:10713000B3D100BF00BF07B05DF804FB20260020DC
:10714000C4270400B0250020B425002000B583B07A
:107150000190019801F0A4FD0346002B01D0FFF738
:1071600003FF0021019801F0B9FD0346002B02D076
:107170000198FFF707FF0121019801F0AFFD0346D9
:10718000002B02D00198FFF713FF0198FFF77AFF59
:107190000198FFF71DFF00BF03B05DF804FB00007E
:1071A00008B5024801F0BCFD00BF08BD0423002063
:1071B00000B585B0034600918DF80730114A02AB47
:1071C0001946104607F0DCFC0390039B002B13D0FC
:1071D000039B9DF807201A70039B009A5A60094A86
:1071E00002AB1946104607F0E4FC0346002B01D021
:1071F000FFF7D6FF002300E00423184605B05DF832
:1072000004FB00BF2026002000B583B00023ADF8AA
:10721000003006238DF802301648082358221649FC
:1072200007F067FC0190019B002B01D0019B1CE043
:107230006B46124A1946124801F05EFB0190019B11
:10724000002B01D0019B10E001210D4801F017FD3A
:1072500001230C4A01210A4801F0C1FB084801F052
:10726000B1FB094B01221A70019B184603B05DF86F
:1072700004FB00BF20260020C82500204D7102001D
:1072800004230020FFFF7F00B425002086B0039078
:107290000B4601928DF80B30019B002B01D1072387
:1072A00010E0039B1B680593059B019A5A619DF8AA
:1072B0000B30012B0CBF01230023DBB21A46059BC8
:1072C0001A610023184606B07047F0B587B00390E6
:1072D00002910192039B0593059B1B7FDBB2002B60
:1072E00001D000231CE0059B019A9A61FFF712FD73
:1072F00002460B46029900200C460546161943EB40
:107300000507059BC3E90267059B1B69002B02D09B
:10731000059B029A1A6105990020FFF749FF034671
:10732000184607B0F0BD00B585B00190019B0393EE
:10733000039B00221A7703990120FFF739FF0346C8
:10734000184605B05DF804FB82B001900091019AE7
:10735000009BD31A23F07F43184602B07047000009
:1073600008B5034801F0CFFC0346184608BD00BF2E
:107370000423002082B0EFF310830093009B01935D
:1073800072B600BF019B184602B0704762B600BFDC
:1073900000BF704700B585B00190FFF7EBFF039089
:1073A000164B9B68002B1BD1144B01229A60144B87
:1073B000D3F88020134B1340104A1360104B114A2E
:1073C000C3F880200E4BD3F884300C4A53600C4B2A
:1073D0004FF0FF32C3F88420019B00221A7002E0B4
:1073E000019B01221A70039B002B01D1FFF7CEFFF6
:1073F0000023184605B05DF804FB00BF34260020CA
:1074000000E100E0FC06FFBD00B585B003468DF845
:107410000730104B9B68002B16D09DF80730002BCF
:1074200012D1FFF7A7FF03900B4A0A4B1B681360AA
:10743000094A084B5B685360064B00229A60039B25
:10744000002B01D1FFF7A2FF0023184605B05DF81D
:1074500004FB00BF3426002000E100E000B583B04B
:1074600001900198FFF796FF00BF03B05DF804FBA1
:1074700000B583B003468DF807309DF807301846F5
:10748000FFF7C2FF00BF03B05DF804FB86B00390B6
:107490000291019200930023059310E0029A059B4C
:1074A00013441978019A059B13441A780398059B95
:1074B00003444A40D2B21A70059B01330593059AE2
:1074C000009B9A42EAD300BF00BF06B0704700B5E8
:1074D00089B007900691059204930C9B03930B9B34
:1074E00002930B9B01930A9B0093049B059A0699B8
:1074F000079800F004F800BF09B05DF804FB00B580
:107500008BB00390029101920093009B0993039B1F
:10751000002B04D0029B1B68019A9A4201D8FEF707
:1075200057FF009B002B04D10C9B002B01D0FEF7D2
:107530004FFF0D9B002B02D00F9B002B01D1FEF7BC
:1075400047FF029B1B68002B54D00C9B002B51D093
:10755000029B1B68019AD31A08930C9A089B9342CA
:1075600028BF13460793029B1B68039A1344079A8C
:10757000099918461AF093FF099A079B1344099337
:107580000C9A079BD31A0C93029B1A68079B1A4408
:10759000029B1A60029B1B68019A9A422AD10C9B9B
:1075A000002B04D10E9B03990F98984703E00D9B85
:1075B00003990F989847029B00221A601AE0029BD9
:1075C0001B68002B01D0FEF703FF0C9A019B9A4227
:1075D00004D10E9B09990F98984703E00D9B0999D8
:1075E0000F989847099A019B134409930C9A019BA1
:1075F000D31A0C930C9A019B9A42E0D228E0029B8A
:107600001B68019AD31A06930C9A069B934228BFD3
:1076100013460593029B1B68039A1344059A099924
:1076200018461AF03CFF099A059B134409930C9ADB
:10763000059BD31A0C93029B1A68059B1A44029B64
:107640001A60029B1B68019A9A4201D8FEF7C0FE9D
:107650000C9B002BD3D100BF00BF0BB05DF804FB27
:1076600000B589B00390029101920093009B0793AB
:107670000A9B0693039B002B04D0029B1B68019A74
:107680009A4201D8FEF7A4FE009B002B04D10B9B6D
:10769000002B01D0FEF79CFE0C9B002B02D00D9B13
:1076A000002B33D1FEF794FE30E0029B1B68002BC9
:1076B00006D10C9B03990D989847029B019A1A607A
:1076C000029B1B68019AD31A0593029B1B680B9AB5
:1076D000934228BF13460493039A059B1A44049BC4
:1076E00007990698FFF7D2FE029B1A68049BD21AEC
:1076F000029B1A600B9A049BD31A0B93069A049B65
:1077000013440693079A049B134407930B9B002B87
:10771000CBD100BF00BF09B05DF804FB00B589B054
:107720000390029101928DF803300023079337E014
:10773000029B1B680693019A069BD31A0A9A9342EE
:1077400028BF13460593079B002B08D1039A069B7D
:1077500013449DF80310059A18461AF0C9FE069BBB
:10776000002B05D1059A019B9A4201D10123079371
:10777000069A059B1344019A9A4207D10B9B0399E1
:107780000C989847029B00221A6005E0029B1A6839
:10779000059B1A44029B1A600A9A059BD31A0A9306
:1077A0000A9B002BC4D100BF00BF09B05DF804FBE9
:1077B00000B589B00790069105928DF813300C9BA7
:1077C000022B1FD00C9B022B38D80C9B002B76D0A1
:1077D0000C9B012B32D19DF813209DF82C30534087
:1077E000DBB28DF813300DF113020E9B02930D9B4B
:1077F0000193012300931346059A06990798FFF712
:1078000066FE5DE00DF113020E9B02930D9B01934A
:10781000012300931346059A06990798FFF757FE30
:107820000BAA0E9B02930D9B019301230093134619
:10783000059A06990798FFF74AFE41E00DF11302F9
:107840000E9B02930D9B0193012300931346059A0F
:1078500006990798FFF73BFE9DF82C309DF82820ED
:107860009A421CD00C9B023B9DF828100E9A029263
:107870000D9A019200930B46059A06990798FFF717
:107880004DFF0BAA0E9B02930D9B019301230093C6
:107890001346059A06990798FFF719FE10E00C9B0E
:1078A000013B9DF828100E9A02920D9A01920093C6
:1078B0000B46059A06990798FFF730FF00E000BFD6
:1078C00000BF09B05DF804FB00B583B001900091E2
:1078D000009B002B06D0009A002101981AF008FEA8
:1078E000019B1B7800BF03B05DF804FB86B00390DA
:1078F0000291019200930023059310E0029A059BE8
:1079000013441978019A059B13441A780398059B30
:1079100003444A40D2B21A70059B01330593059A7D
:10792000009B9A42EAD300BF00BF06B0704700B583
:107930008DB0039002910192029B1B68102B01D025
:10794000FEF746FD28210398FFF7BEFF029B1A6849
:1079500008AB11461846FFF7B7FF029B5B6808AA01
:1079600008A90198984704AA08AB1146184606F0E2
:107970004DFD04AA04AB1146184606F073FD039BA7
:1079800003F1080204AB1146184606F016FD04AADE
:1079900004AB1146184606F065FD039B03F118027F
:1079A00004AB1146184606F008FD039B029A1A60C4
:1079B000039B019A5A6000BF0DB05DF804FB00B54F
:1079C00085B0039002910192039B019A0299184697
:1079D000FFF7ADFF039800F004F800BF05B05DF8B5
:1079E00004FB00B587B001900023029303AB002293
:1079F0001A605A609A60019B03F12800019B196884
:107A0000019B5A6802AB06F024FF019B4033102112
:107A10001846FFF759FF019B00221A65019B0022BF
:107A20005A65019B00229A6500BF07B05DF804FB10
:107A300000B589B001900091019B0793079B03F16A
:107A4000280003AA0123009906F01CFF079B5A6D2A
:107A5000079B1B681B681A44079B5A6500BF09B047
:107A60005DF804FB00B58DB0039002910192039B79
:107A70001B681B6808A8019A0299FFF737FF039B50
:107A800003F1280004AA08A9012306F0FBFE039BCA
:107A90005A6D039B1B681B681A44039B5A6500BF01
:107AA0000DB05DF804FB00B585B001900091019B1D
:107AB0000393039B08331A4600990398FFF7D2FFFC
:107AC000039B01229A6500BF05B05DF804FB00B579
:107AD00085B001900091019B0393039B18331A46D4
:107AE00000990398FFF7BEFF039B01229A6500BF30
:107AF00005B05DF804FB000000B591B00990089155
:107B000007920693099B1B681B680D93354B0F93D7
:107B100000230E93069B002B33D0099B1A6D079B05
:107B2000134403F00F03002B0CBF01230023DBB22F
:107B30000C93079B002B09D1099B1B6D002B05D1D2
:107B4000099B5B6D002B01D1012300E000230B9307
:107B5000099B9B6D002B01D0FEF73AFC079B002B85
:107B600004D10B9B002B01D1FEF732FC0C9B002BA8
:107B700005D00B9B002B02D11B4B0F9301E001237F
:107B80000E93099B03F14000099B03F15001099BEF
:107B900003930F9B0293134B0193079B0093089B46
:107BA0000D9AFFF7ACFC0E9B002B16D0099B03F13E
:107BB0004000099B03F15001099B1B6D0D9AD31ADC
:107BC000099A0492094A0392029300230193002325
:107BD000009380230D9AFFF7EBFD00BF11B05DF815
:107BE00004FB00BF317A0200A77A0200CF7A0200BC
:107BF00000B583B001900091019B9B6D002B01D1DA
:107C0000FEF7E6FB019B03F13001019B1B681B683B
:107C10001A4600981AF043FC00BF03B05DF804FB5D
:107C200000B583B001900091009B002B06D0009A14
:107C3000002101981AF05CFC019B1B7800BF03B087
:107C40005DF804FB82B001900091019A009B62FAFA
:107C500003F3184602B0704782B001900091019A78
:107C6000009BC3F1200362FA03F3184602B0704789
:107C700082B00190019B1B781A06019B01331B788F
:107C80001B041A43019B02331B781B021343019A06
:107C9000033212781343184602B0704782B0019045
:107CA0000091019B190E009B5A1C0092CAB21A70D7
:107CB000019B190C009B5A1C0092CAB21A70019BBE
:107CC000190A009B5A1C0092CAB21A70019BDAB2C0
:107CD000009B1A7000BF02B0704784B00190009101
:107CE000019A009B53400393039BDBB2DB43DAB260
:107CF000039BDBB2013BDBB213408DF80B309DF9E7
:107D00000B30DB115BB2DBB2184604B0704700B534
:107D100089B0039002910192009300238DF81F30E7
:107D200000238DF81E3000238DF81D3000238DF8C0
:107D30001C300023069378E00A9A069B13441B78B4
:107D40008DF81730039B1B7806991846FFF7C5FF7F
:107D500003468DF816309DF91630DB435AB29DF973
:107D60001F3013405AB29DF817109DF816300B4083
:107D7000DBB25BB213435BB28DF81F30029B1B7802
:107D800006991846FFF7A9FF03468DF816309DF9AE
:107D90001630DB435AB29DF91E3013405AB29DF89B
:107DA00017109DF816300B40DBB25BB213435BB289
:107DB0008DF81E30019B1B7806991846FFF78DFF42
:107DC00003468DF816309DF91630DB435AB29DF903
:107DD0001D3013405AB29DF817109DF816300B4015
:107DE000DBB25BB213435BB28DF81D30009B1B7896
:107DF00006991846FFF771FF03468DF816309DF976
:107E00001630DB435AB29DF91C3013405AB29DF82C
:107E100017109DF816300B40DBB25BB213435BB218
:107E20008DF81C30069B01330693069A0B9B9A42F1
:107E300082D3039B9DF81F201A70029B9DF81E2081
:107E40001A70019B9DF81D201A70009B9DF81C2044
:107E50001A7000BF09B05DF804FB10B586B003903E
:107E60000291039B1B0EDBB28DF81730039B1B0C9A
:107E7000DBB28DF81630039B1B0ADBB28DF8153090
:107E8000039BDBB28DF8143005AC0DF115020DF13A
:107E900016010DF117004FF480730193029B0093BC
:107EA0002346FFF734FF9DF817301A069DF8163069
:107EB0001B041A439DF815301B0213439DF8142030
:107EC0001343184606B010BD10B58CB00390029154
:107ED000019204230793019B9B080693039B1B6855
:107EE0005A1C079B02FB03F30593039B0433049383
:107EF00000230B930FE00B9B9B00029AD1180B9B66
:107F00009B00049AD4180846FFF7B2FE034623608C
:107F10000B9B01330B930B9A069B9A42EBD30123E5
:107F20000A930023099345E00B9B03F18043013B37
:107F30009B00049A13441B680893099A069B9A4273
:107F400004D10A9B01330A9300230993099B002B58
:107F500011D108210898FFF77FFE034619491846FA
:107F6000FFF77BFF024618490A9B0B441B781B0650
:107F7000534008930AE0069B062B07D9099B042B64
:107F800004D110490898FFF768FF08900B9A069BE8
:107F9000D31A9B00049A134419680B9B9B00049A04
:107FA0001344089A4A401A600B9B01330B93099BB8
:107FB000013309930B9A059B9A42B5D300BF00BFCA
:107FC0000CB010BDD0270400D028040000B585B047
:107FD000039002910192F422002103981AF088FA8A
:107FE000019B202B1BD0019B202B21D8019B102B08
:107FF00003D0019B182B09D01AE0039B0A221A60B8
:10800000019A02990398FFF75FFF14E0039B0C228B
:108010001A60019A02990398FFF756FF0BE0039B41
:108020000E221A60019A02990398FFF74DFF02E0B1
:10803000FEF7CEF900BF00BF05B05DF804FB82B0CB
:1080400001900091019B1A68009B1B685A40019B9C
:108050001A60019B04331968009B04331A68019B62
:1080600004334A401A60019B08331968009B0833A7
:108070001A68019B08334A401A60019B0C33196847
:10808000009B0C331A68019B0C334A401A6000BFF6
:1080900002B0704710B582B00190019B1B68164971
:1080A0001846FFF7DAFE0246019B1A60019B043373
:1080B0001A68019B1C1D10491046FFF7CEFE0346AF
:1080C0002360019B08331A68019B03F108040A49E5
:1080D0001046FFF7C2FE03462360019B0C331A686B
:1080E000019B03F10C0404491046FFF7B6FE03465A
:1080F000236000BF02B010BDD027040086B00190FD
:10810000019B1B6803F07F42019B04331B6803F44F
:108110007F031A43019B08331B6803F47F431A4310
:10812000019B0C331B68DBB213430593019B0433A3
:108130001B6803F07F42019B08331B6803F47F0335
:108140001A43019B0C331B6803F47F431A43019BC2
:108150001B68DBB213430493019B08331B6803F0D5
:108160007F42019B0C331B6803F47F031A43019B7E
:108170001B6803F47F431A43019B04331B68DBB283
:1081800013430393019B0C331B6803F07F42019B55
:108190001B6803F47F031A43019B04331B6803F439
:1081A0007F431A43019B08331B68DBB213430293DE
:1081B000019B059A1A60019B0433049A1A60019B83
:1081C0000833039A1A60019B0C33029A1A6000BFAD
:1081D00006B0704782B00190019B5B0003F0FE3156
:1081E000019BDB0903F0013213465B001344DA0004
:1081F00013444B40184602B0704710B584B001904C
:108200000198FFF7E7FF0390019A039B5340182161
:108210001846FFF717FD0246039B82EA030410216C
:108220000198FFF70FFD03465C4008210198FFF716
:1082300009FD03466340184604B010BD10B582B076
:108240000190019B1B681846FFF7D7FF0246019B70
:108250001A60019B04331A68019B1C1D1046FFF72E
:10826000CCFF03462360019B08331A68019B03F18E
:1082700008041046FFF7C1FF03462360019B0C333F
:108280001A68019B03F10C041046FFF7B6FF034682
:10829000236000BF02B010BD00B58BB00390029107
:1082A0000192039B1B680A2B09D0039B1B680C2BB4
:1082B00005D0039B1B680E2B01D0FEF789F80298AE
:1082C000FFF7D6FC03460493029B04331846FFF7DE
:1082D000CFFC03460593029B08331846FFF7C8FC02
:1082E00003460693029B0C331846FFF7C1FC034676
:1082F0000793039B0433099304AB09991846FFF7CE
:108300009EFE099B103309930123089316E004ABEA
:108310001846FFF7BFFE04AB1846FFF7EFFE04ABAD
:108320001846FFF78BFF04AB09991846FFF787FE45
:10833000099B10330993089B01330893039B1B6827
:10834000089A9A42E3D304AB1846FFF7A3FE04ABA6
:108350001846FFF7D3FE04AB09991846FFF76FFEE6
:10836000049B01991846FFF799FC059A019B043379
:1083700019461046FFF792FC069A019B08331946EE
:108380001046FFF78BFC079A019B0C3319461046E9
:10839000FFF784FC00BF0BB05DF804FB10B582B0A2
:1083A0000190019B1B6816491846FFF756FD0246CF
:1083B000019B1A60019B04331A68019B1C1D104924
:1083C0001046FFF74AFD03462360019B08331A68F5
:1083D000019B03F108040A491046FFF73EFD0346DE
:1083E0002360019B0C331A68019B03F10C040449C0
:1083F0001046FFF732FD0346236000BF02B010BDF8
:10840000DC28040086B00190019B1B6803F07F42CA
:10841000019B0C331B6803F47F031A43019B083351
:108420001B6803F47F431A43019B04331B68DBB2D0
:1084300013430593019B04331B6803F07F42019BA8
:108440001B6803F47F031A43019B0C331B6803F47E
:108450007F431A43019B08331B68DBB21343049329
:10846000019B08331B6803F07F42019B04331B68A8
:1084700003F47F031A43019B1B6803F47F431A43F1
:10848000019B0C331B68DBB213430393019B0C333A
:108490001B6803F07F42019B08331B6803F47F03D2
:1084A0001A43019B04331B6803F47F431A43019B67
:1084B0001B68DBB213430293019B059A1A60019B70
:1084C0000433049A1A60019B0833039A1A60019BD3
:1084D0000C33029A1A6000BF06B0704710B588B01E
:1084E00001900198FFF776FE07900798FFF772FE5C
:1084F00006900698FFF76EFE0246019B53400593D7
:10850000079A059B53400493069A059B5340039397
:10851000019A079B5A40039B82EA0304182104989E
:10852000FFF790FB03465C4010210398FFF78AFB9E
:1085300003465C4008210598FFF784FB034663402F
:10854000184608B010BD10B582B00190019B1B68A1
:108550001846FFF7C3FF0246019B1A60019B0433D4
:108560001A68019B1C1D1046FFF7B8FF03462360E5
:10857000019B08331A68019B03F108041046FFF7BA
:10858000ADFF03462360019B0C331A68019B03F186
:108590000C041046FFF7A2FF0346236000BF02B0A1
:1085A00010BD00B58BB0039002910192039B1B6834
:1085B0000A2B09D0039B1B680C2B05D0039B1B685F
:1085C0000E2B01D0FDF704FF0298FFF751FB034685
:1085D0000493029B04331846FFF74AFB03460593B6
:1085E000029B08331846FFF743FB03460693029BA2
:1085F0000C331846FFF73CFB03460793039B1B68AD
:108600009B009B00039A13440433099304AB09991C
:108610001846FFF714FD099B103B0993039B1B6849
:10862000013B089316E004AB1846FFF7EBFE04ABE2
:108630001846FFF7B3FE04AB09991846FFF7FFFC95
:1086400004AB1846FFF77FFF099B103B0993089B7B
:10865000013B0893089B002BE5D104AB1846FFF7BC
:10866000D1FE04AB1846FFF799FE04AB09991846F2
:10867000FFF7E5FC049B01991846FFF70FFB059AED
:10868000019B043319461046FFF708FB069A019B2D
:10869000083319461046FFF701FB079A019B0C337C
:1086A00019461046FFF7FAFA00BF0BB05DF804FB5D
:1086B00000B583B00190F4210198FFF7B1FA00BF33
:1086C00003B05DF804FB000082B003468DF807306C
:1086D0009DF8073003F01F0205499DF907305B093B
:1086E000012000FA02F241F8232000BF02B07047D7
:1086F00000E100E082B003468DF807309DF80730B6
:1087000003F01F0206499DF907305B09012000FABA
:1087100002F2403341F8232000BF02B0704700BF8F
:1087200000E100E082B0034600918DF807309DF92A
:108730000730002B0CDA009BDAB20C499DF80730A9
:1087400003F00F03043B5201D2B20B441A7609E046
:10875000009BDAB206499DF907305201D2B20B44B0
:1087600083F8002300BF02B0704700BF00ED00E0B7
:1087700000E100E000B583B003460A468DF80730FB
:1087800013468DF806309DF806209DF907301146F6
:108790001846FFF7C7FF00BF03B05DF804FB00B544
:1087A00083B003468DF807309DF907301846FFF770
:1087B0008BFF00BF03B05DF804FB000000B585B07F
:1087C0000190019B002B0AD0074B43F00103039358
:1087D000019B9B010293039B0298984700E000BF16
:1087E00005B05DF804FB00BF402A040084B003908C
:1087F00002910192039B029A02F5A872019943F833
:10880000221000BF04B0704782B001900091019B1C
:10881000009A02F5A87253F82230184602B0704749
:1088200082B001900091019B009AC3F8042300BF1D
:1088300002B0704782B001900091019B009AC3F88A
:10884000082300BF02B0704782B001900B46ADF81C
:108850000230BDF80230019A13441B68184602B07A
:10886000704784B001900B46ADF80230BDF802307D
:10887000019A134400221A60BDF80230019A134491
:108880001B680393039B00BF04B0704782B0019044
:10889000019BD3F80435184602B0704782B00190AE
:1088A0000091019B009AC3F8082500BF02B07047F1
:1088B00082B001900B468DF803309DF80320019B98
:1088C00013441A460123136000BF02B0704782B000
:1088D00001900091019B009AC3F8442300BF02B0AD
:1088E000704782B001900091019B009AC3F8482321
:1088F00000BF02B07047000000B587B0039002913E
:108900000192039B5B791946284A019B42F821306A
:10891000039B5B79264ADB0013441B79002B0ED0A6
:1089200008230593234A244BD31ADB081B0443F086
:1089300002032249184615F0F5FB059B32E0039B24
:108940001A68029B1B8819461046FFF7A7FF039B76
:1089500093F90420029B9B7819461046FFF70AFF03
:10896000039B93F904301846FFF719FF039B5B79CB
:108970000F4ADB00134401221A71039B5B791946ED
:108980000B4A039B42F8313000230593094A0A4BF6
:10899000D31ADB081B0443F003030949184615F0FA
:1089A000C1FB059B184607B05DF804FB402600207C
:1089B0004426002000270400A8260400E82904001B
:1089C0000C2A040000B583B00190019B1B680021B4
:1089D0001846FFF76DFF00BF03B05DF804FB00B55C
:1089E00087B00390029101928DF803304FF48032EA
:1089F000029B02FA03F30593029B50339BB29B0048
:108A0000ADF81230019B23F07F430193039B1B6859
:108A100005991846FFF70EFF039B1B68059918463A
:108A2000FFF75FFF039B1B68BDF812201146184635
:108A3000FFF717FF039B1B68019A02991846FFF77F
:108A4000D5FE039B1B6805991846FFF740FF9DF86C
:108A50000330002B05D0039B1B6805991846FFF7D0
:108A6000DFFE00BF07B05DF804FB00B585B00390E2
:108A7000029113468DF80730039B1B680299184634
:108A8000FFF725FF9DF80730002B05D0039B1B68DF
:108A900002991846FFF7C4FE00BF05B05DF804FB5D
:108AA00000B583B001900091019B1B6800991846A6
:108AB000FFF717FF019B1B6800991846FFF7BAFEE6
:108AC00000BF03B05DF804FB00B583B001900B4616
:108AD000ADF80230019B1B68BDF802201146184614
:108AE000FFF7B2FE0346002B09D0019B1B68BDF8BF
:108AF000022011461846FFF7B4FE012300E00023D0
:108B0000184603B05DF804FB82B001900091019A11
:108B1000009BD31A23F07F43184602B0704700B57C
:108B20008BB003900291019200934FF48032029B2C
:108B300002FA03F30993029B50339BB29B00ADF8FA
:108B40002230019B23F07F43019309990398FFF79B
:108B5000A7FF039B1B681846FFF798FE0790039B2F
:108B60001B6802991846FFF74FFE0690039B1B688F
:108B7000079A02991846FFF739FE039B1B68BDF858
:108B8000222011461846FFF76CFE07990698FFF75A
:108B9000BBFF0346012B0AD11020FFF70FFE039BFA
:108BA0001B68BDF8222011461846FFF75AFE039BAA
:108BB0001B681846FFF76AFE079007990198FFF7B0
:108BC000A3FF0590039B1B6809991846FFF77FFEDA
:108BD000059B012B15D1039B1868019B01331A4695
:108BE0000299FFF703FE1020FFF7E8FD039B1B68C7
:108BF0001846FFF74BFE0246079B934235D00D23E4
:108C000039E0039B1B68019A02991846FFF7EEFDB5
:108C1000039B1B681846FFF739FE0790019B013B39
:108C200007991846FFF770FF0590009BC3F1FF13EB
:108C300003F57F43059A9A4201D90D231BE0059B5A
:108C4000002B12D1039B1868019B01331A4602992D
:108C5000FFF7CCFD039B1B681846FFF717FE024683
:108C6000079B934201D00D2305E001220999039847
:108C7000FFF7FBFE002318460BB05DF804FB00B5C0
:108C800083B001900B468DF803309DF803301A46EF
:108C900002210198FFF7E9FE00BF03B05DF804FB75
:108CA00000B583B001904FF482710198FFF70CFF7B
:108CB0000346184603B05DF804FB00B583B001908D
:108CC00000914FF48032009B02FA03F31946019899
:108CD000FFF7E6FE00BF03B05DF804FB00B585B00A
:108CE00001900091009B50339BB29B00ADF80E3079
:108CF000BDF80E3019460198FFF7E6FE0346184608
:108D000005B05DF804FB00B583B00190019B1B68C2
:108D10001846FFF7BBFD0346184603B05DF804FB99
:108D200000B583B00190019B93F904301846FFF71A
:108D3000E1FC00BF03B05DF804FB000008B5044B84
:108D40001B68044A12681046984700BF08BD00BF60
:108D5000402600204426002088B003900291019212
:108D6000039B0793029B069300238DF8173015E0B1
:108D7000069B5A1C06921B788DF81630079B5A1CCE
:108D800007921B78DAB29DF816305340DBB25AB224
:108D90009DF9173013435BB28DF81730019B5A1EB3
:108DA0000192002BE4D19DF81730002B0CBF01235A
:108DB0000023DBB2184608B0704700B58BB00390B3
:108DC000019200930B468DF80B30039B1B681B68C8
:108DD0000993099B002B01D1FDF7FAFA05AB099A1B
:108DE0000021184619F084FB099B013B0AAA134491
:108DF0009DF80B2003F8142C0398FEF7F2FD009B5E
:108E0000002B0CD005A90023099A0398FEF774FEE5
:108E10000123009A01990398FEF76EFE05E005A96B
:108E20000123099A0398FEF767FE0C990398FEF751
:108E3000DFFE00BF0BB05DF804FB00B5B9B00590D4
:108E400004910392029314AB049A05991846FEF715
:108E5000B6FD14A833AB00933D9B3C9A0021FFF76D
:108E6000ACFF14A82FAB00933B9B3A9A0121FFF76C
:108E7000A4FF33AB07A8049A059905F038FD07A8AD
:108E8000029B3E9A039905F07BFD14A82BAB00933F
:108E9000029B3E9A0221FFF790FF059B1B68409AB8
:108EA0009A4201D9FDF794FA0023379316E033AACA
:108EB000379B13441A782BA9379B0B441B785340DC
:108EC000D9B22FAA379B13441A783F98379B034493
:108ED0004A40D2B21A70379B01333793379A409B7E
:108EE0009A42E4D300BF00BF39B05DF804FB00B57F
:108EF000BDB0059004910392029318AB049A0599B2
:108F00001846FEF75CFD18A837AB0093419B409ACA
:108F10000021FFF752FF18A833AB00933F9B3E9A06
:108F20000121FFF74AFF18A82FAB0093029B039A79
:108F30000221FFF742FF439B002B04D0059B1B68D7
:108F4000439A9A4201D9FDF743FA00233B9317E075
:108F500037AA3B9B13441A782FA93B9B0B441B78E1
:108F60005340DAB233A93B9B0B441B785340D9B230
:108F700014AA3B9B13440A461A703B9B01333B9354
:108F80003B9A439B9A42E3D314AB439A42991846C7
:108F9000FFF7E2FE0346002B01D101230CE037ABC3
:108FA00007A8049A059905F0A2FC07A8029B449A19
:108FB000039905F0E5FC002318463DB05DF804FB7D
:108FC00072DF704700BF184673DF704700BF184656
:108FD00074DF704700BF184677DF704700BF184640
:108FE00000B583B003468DF80730074B1B68002B94
:108FF00005D0054B1B689DF807201046984700BF19
:1090000003B05DF804FB00BF4C26002000B587B01C
:109010000190002305930EF0D1FC154B1B68019ABB
:1090200014491846FFF7CCFF0590059B0493049B59
:10903000002B02D00498FDF79DFC0D4B1B681B789C
:1090400000211846FFF7C0FF0590059B112B0AD0A1
:10905000059B002B07D0059B0393039B002B02D09D
:109060000398FDF787FC00BF07B05DF804FB00BF65
:10907000942600201023002000B583B001900B46F9
:109080008DF8033013468DF8023018220021019824
:1090900019F02EFA9DF80330002B01D0052200E0D4
:1090A0000122019B1A70019B00225A60019B002241
:1090B0001A75019B01225A759DF80330002B13D0BD
:1090C0000F4B1B881A464FF47A7302FB03F30D4AC9
:1090D00082FB03121212DB17D31A1A46019B9A6005
:1090E000019B00229A8106E0019BA0229A60019BCD
:1090F00041F270729A8100BF03B05DF804FB00BFBB
:109100000C230020AD8BDB6800B597B04FF4EA4329
:10911000ADF80030184B1B788DF8023001AB3C22C3
:109120000021184619F0E4F902238DF804300023D9
:109130008DF806300123ADF814306B4606930F4BC3
:109140000F4A9A600D4B1F229A8101AB0B491846BA
:1091500000F038FA0B4B1A7810AB00211846FFF7D5
:109160008BFF10AB1846FFF751FF0120FFF738FFC8
:1091700000BF17B05DF804FB52260020102300202A
:10918000742600205126002000B583B00B4B1B68CD
:109190001B781846FFF71CFF0190019B082B07D096
:1091A000019B0093009B002B02D00098FDF7E2FB8F
:1091B00000F022FC00BF03B05DF804FB9426002001
:1091C00008B5074B1B7883F00103DBB2002B02D0FC
:1091D00000F096F801E0FFF797FF00BF08BD00BF61
:1091E0005126002000B58FB0019002F0C1FF0D9014
:1091F000384B1B681B781846FFF7EAFE0C900C9B57
:10920000082B0CD00C9B43F20402934207D00C9B1A
:109210000B930B9B002B02D00B98FDF7ABFB019B34
:109220001B78002B22D1019B5B780D9A9B01134484
:10923000013393F900301A4600210120FFF7CCFEDC
:109240000C900C9B43F20402934207D00C9B0993B1
:10925000099B002B02D00998FDF78CFB019B5B78E2
:109260001D4A0021184600F0BAF921E0019B1B7845
:10927000012B1DD10D9B93F84C310D9A9B0113448A
:10928000013393F900301A4600210120FFF7A4FEB4
:109290000C900C9B0A930A9B002B02D00A98FDF7B6
:1092A00069FB019B5B780C4A0121184600F097F995
:1092B0000020FFF795FE094B1A7803AB01211846F1
:1092C000FFF7DAFE03AB1846FFF7A0FE00BF0FB0B2
:1092D0005DF804FB94260020102300205126002076
:1092E00008B5064B1B7883F00103DBB2002B03D0DB
:1092F000FFF74AFFFFF708FF00BF08BD5026002018
:1093000008B5034B1B88184600F02AFB00BF08BDB8
:109310000C23002082B003468DF80730034A9DF8E5
:109320000730137000BF02B0704700BF5126002005
:10933000014B1B78184670475126002000B583B0BA
:109340000190019B1B88262B14D0262B23DC102B8D
:1093500002D0112B06D01EE0124B01221A70FFF72B
:10936000CFFF1BE00F4B00221A70FFF70DFFFFF736
:1093700027FF13E0019B1B7A012B0ED1094B1B78B1
:1093800083F00103DBB2002B07D00220FFF728FE99
:10939000FFF716FF01E000BF00E000BF00BF03B011
:1093A0005DF804FB5026002000B585B00346ADF8FB
:1093B000063002F0DDFE0390039B93F84131002B51
:1093C00006D0039B93F84D31002B01D0012300E020
:1093D00000238DF80B309DF80B3003F001038DF85E
:1093E0000B309DF80B30002B0ED0039B93F84031CF
:1093F0009BB21A46920013441A4691001A460B4635
:1094000013445B019BB20AE0039B93F840319BB28B
:109410001A465201D21A920013449B009BB2ADF837
:109420000830BDF80820BDF80630934238BF134617
:109430009AB2074B1A80064B1B88B3F5205F03D9FD
:10944000034B4FF420521A8000BF05B05DF804FBB7
:109450000C230020014B1B88184670470C2300206A
:1094600000B583B0009111461A4603468DF80730C7
:109470000B46ADF8043013468DF806300E4A9DF8C1
:10948000073013700D4A009B13600D4B00221A70B9
:109490000C4A9DF8063013700B4ABDF80430138057
:1094A0000A4A049B13600EF093FA094800F0ACFAE4
:1094B00000BF03B05DF804FB522600204C260020BC
:1094C00050260020512600200C2300209426002046
:1094D000E591020008B500F0DDF900BF08BD08B550
:1094E000FFF752FE00BF08BD00B59DB0039002918A
:1094F0000192334B1B68099307AB00221A605A6034
:109500004FF6AA63ADF81030029B002B06D0029AEA
:1095100005AB92E8030083E8030005E005AB07AA6A
:1095200092E8030083E803000AAB3C2200211846BE
:1095300018F0DEFF00238DF8283006238DF82B303D
:109540000123ADF8383009AB0F9304AB1493029BA1
:10955000002B14BF01230023DBB28DF85430019B94
:109560001968019B1A1D0AAB184617F0DDF81B900D
:109570001B9B1A931A9B002B02D01A98FDF7FAF93D
:10958000039B002B11D0019B9968019B0C331A4659
:10959000039817F0C9F81B901B9B1993199B002B7C
:1095A00009D01998FDF7E6F905E0019B00229A60C1
:1095B000019B00229A8100BF1DB05DF804FB00BF33
:1095C000482A040000B583B001900091009A002160
:1095D0000198FFF789FF00BF03B05DF804FB00B5F9
:1095E00087B0034600928DF807300B468DF80630A1
:1095F00003AB00221A605A6002F0BAFD05909DF894
:109600000630002B0AD09DF80730184602F06EFD98
:10961000059B93F84C318DF807300AE09DF8073030
:10962000059A9B01134426331B78202B01D102F0AD
:1096300047FD9DF807309B011033059A1344023310
:1096400004939DF80730059A9B01134427331B7838
:109650009BB2ADF80C3003AB009A19460020FFF71F
:1096600043FF00BF07B05DF804FB000000B583B006
:109670000190084B1B68002B07D0074B1B78002B71
:1096800003D0044B1B680198984700BF03B05DF8F6
:1096900004FB00BFDC2600200A27002000B585B0AF
:1096A000019002F065FD0390039B93F84D31002B70
:1096B0000CD0019B5A78039B93F84C319A4203D00B
:1096C000019B1B78012B01D1012300E0002303F053
:1096D0000103DBB2184605B05DF804FB82B00190CF
:1096E0000199084BA3FB01239A0813469B001344DE
:1096F000CA1A002A0CBF01230023DBB2184602B0AD
:10970000704700BFCDCCCCCCF0B587B00190019BA9
:109710000593384A059B9B0013445B788DF809300C
:10972000344A059B12F823308DF80830324B1B78F1
:10973000002B3DD02F4B93F82830012B38D92D4BDF
:1097400093F82830013B1A46059B934230D22B4BAD
:109750000093284A059B9B0013445B889BB2002220
:109760001C4615464FF000024FF00003EB0343EA9E
:109770005443E20312F5FA7643F100074FF47A728C
:109780004FF000033046394618F0DEFC02460B4627
:109790001146059B01331A460098FDF796FD04908B
:1097A000049B0393039B002B02D00398FDF7E2F880
:1097B000059B002B04D1124B1B680133104A136028
:1097C00002AB1846FFF76AFF0346002B0AD00C4B8A
:1097D0001B681846FFF782FF034683F00103DBB2E4
:1097E000002B04D102AB1846FFF740FF00E000BF9A
:1097F00007B0F0BDE02600200A270020B826002090
:109800000C270020F0B585B0019002F0B1FC0346B2
:1098100093F84031002B02D00020FFF775FF1A4B60
:109820001B78002B2CD0194B0093194B1B889BB233
:1098300000221C4615464FF000024FF00003EB03D8
:1098400043EA5443E20312F5FA7643F100074FF47A
:109850007A724FF000033046394618F075FC024624
:109860000B461346002219460098FDF72EFD039083
:10987000039B0293029B002B02D00298FDF77AF81B
:1098800000BF05B0F0BD00BF0A27002098260020C9
:10989000D826002000B585B00F4A00210F48FDF7FB
:1098A000F5FC0390039B0293029B002B02D00298CD
:1098B000FDF760F80A4A00210A48FDF7E7FC03902B
:1098C000039B0193019B002B02D00198FDF752F8F6
:1098D00000BF05B05DF804FB059802004C2A0400A7
:1098E00009970200502A040000B58BB002F040FC3A
:1098F0000990194B1B88ADF80430099B93F840314F
:109900008DF80630099B03F5A1730293099B93F828
:1099100041318DF80C30099B03F247130493099BE6
:1099200093F84D318DF81430099B93F84C318DF834
:1099300015300A4B069301AB184600F0B5F80890B5
:10994000089B0793079B002B02D00798FDF712F89E
:1099500000BF0BB05DF804FBD8260020E0260020F5
:10996000F0B587B00346ADF8063002F001FC059073
:109970001E4B01221A70059B93F84031002B32D008
:109980001B4ABDF8063013801A4B0093184B1B88F6
:109990009BB200221C4615464FF000024FF0000318
:1099A000EB0343EA5443E20312F5FA7643F100076E
:1099B0004FF47A724FF000033046394618F0C4FB7A
:1099C00002460B461346002219460098FDF77DFC1F
:1099D0000490049B0393039B002B02D00398FCF795
:1099E000C9FFFFF781FF00BF07B0F0BD0A270020C5
:1099F000D826002098260020024B00221A7000BFB3
:109A0000704700BF0A27002000B583B00190074BC4
:109A100000221A70064A019B13602A220021054881
:109A200018F066FD00BF03B05DF804FB0A270020B4
:109A3000DC260020E026002082B00346ADF8063088
:109A40000B468DF8053013468DF80430BDF806201E
:109A50009DF805309DF804105B1A92FBF3F39BB25E
:109A6000184602B0704784B0034600918DF8073065
:109A700013468DF80630002303930CE0009A039BF5
:109A800013441B789DF807209A4201D1012308E076
:109A9000039B013303939DF80630039A9A42EDD35A
:109AA0000023184604B0704700B589B00190019BAF
:109AB000002B01D10E23AEE000238DF81F30019B57
:109AC0001B7C002B05D0019B1B7A002B01D00123AE
:109AD00000E000238DF817309DF8173003F00103E4
:109AE0008DF81730019B9B78002B01D1072392E062
:109AF000019B1888019B9B789DF817201946FFF75A
:109B00009BFF0346ADF814300023069365E0019BEC
:109B10005A68069B13441B788DF813309DF8173054
:109B200083F00103DBB2002B05D1019B5B7C9DF828
:109B300013209A424ED0019B5A699DF81F309B001A
:109B400013440393039B9DF813205A70039B002238
:109B50001A70039BBDF814205A809DF81F30013302
:109B60008DF81F309DF81730002B33D0019BD9683A
:109B7000019B1A7A9DF813301846FFF774FF0346CD
:109B8000002B27D0019B5A699DF81F309B0013447E
:109B90000293039B4FF496725A80029B9DF8132008
:109BA0005A70029B01221A70BDF81430B3F5967FEB
:109BB00007D9BDF81430A3F596739AB2029B5A8068
:109BC00003E0029B4FF4FA725A809DF81F30013374
:109BD0008DF81F30069B01330693019B9B781A4634
:109BE000069B934293D3019B5B699DF81F2083F8EA
:109BF0002820019B5B6993F82830002B0AD0019B39
:109C00005A69019B5B6993F82830013B9B00134420
:109C100000225A800023184609B05DF804FB0000BA
:109C200000B583B001900091019B002B01D1054B41
:109C30000193009901980AF0C1FD0346184603B04C
:109C40005DF804FB602A040084B00190019B1B783E
:109C5000002B1AD1019B5B681B88ADF80E30BDF953
:109C60000E304FF4167202FB03F3002B01DA03F2FD
:109C7000FF339B129BB21A46520013445B009BB207
:109C800003F587739AB2024B1A8000BF04B0704785
:109C90001227002000B589B01D490020FFF7C0FF42
:109CA0000790079B0693069B002B02D00698FCF7B3
:109CB00061FE184A6B4607CA03C31A706B46194601
:109CC00000200AF027FE0790079B0593059B002BB9
:109CD00002D00598FCF74EFE01210F480AF05CFF08
:109CE0000790079B0493049B002B02D00498FCF779
:109CF00041FE0AF0D9FF0790079B0393039B002BBB
:109D000002D00398FCF736FE00BF09B05DF804FBF3
:109D1000499C0200542A040010270020BFF34F8FF3
:109D200000BF074BDB6803F4E0620549054B1343B2
:109D3000CB60BFF34F8F00BF00BF00BFFCE700BF89
:109D400000ED00E00400FA0508B5FFF7E7FF42F276
:109D50000303184608BD76DF704700BF18460000B1
:109D600000B585B001900B46ADF8023004F05CFA06
:109D70000390039B002B07D003230293029B002B2D
:109D800002D10020FCF7F6FD044B1B680133034AA7
:109D9000136000BF05B05DF804FB00BF142700206E
:109DA00000B587B00190019B1B78052B57D801A205
:109DB00052F823F0CD9D0200459E0200459E020010
:109DC000E79D0200D59D0200059E0200264B002261
:109DD0001A6044E0019B9B8941F23732934202D1E1
:109DE000224B01221A70224A00210020FCF7C4FEF7
:109DF0000590059B0393039B002B2DD00398FCF744
:109E0000B9FD29E0194B1B78DBB2002B1AD0194B96
:109E10001B884FF6FF7293420FD0164B1B881321FD
:109E20001846FFF798FF0590059B0493049B002BB1
:109E300008D00498FCF79EFD04E00C4B00221A7039
:109E4000FFF782FF084B1B68002B07D0064B1B68EF
:109E5000013B054A136001E000BF00E000BF00BF06
:109E600007B05DF804FB00BF14270020182700206E
:109E7000619D02002A23002000B58FB001900BAB3A
:109E800000221A605A6008AB00221A605A609A6079
:109E900006AB00221A605A6003AB00221A605A60B7
:109EA0009A60019B5B88ADF80C30019B5B68049362
:109EB000019B1B8806AA08A9184604F0E7F90D9033
:109EC000019B9B7B002B04D10D9B002B01D00D9B94
:109ED0007BE0019B9B7B022B06D10D9B48F2096224
:109EE000934201D1002370E0019B9B7B022B58D051
:109EF000022B66DC002B02D0012B1ED061E00BAAE6
:109F000008AB1146184604F06FF80D900D9B002B1E
:109F100001D00D9B59E0019B98680C99019B9B898E
:109F20001A4618F0BCFA08AB184604F09BF80D90DE
:109F30000D9B002B47D00D9B47E0019B5868019B70
:109F40009968019B9B891A4618F0A9FA019B9B8985
:109F50000333002B00DA03339B100593019B1B880E
:109F6000ADF80E300D9B48F20962934207D103AA67
:109F700008AB1146184604F0C1F80D9006E003AA9C
:109F800008AB1146184604F0C8F80D900D9B002B45
:109F900001D00D9B19E00F4B1B6801330D4A136074
:109FA00012E008AB184604F0CDF80D900D9B002B85
:109FB00001D00D9B09E0074B1B680133054A136074
:109FC00002E000BF00E000BF002318460FB05DF8BC
:109FD00004FB00BF1427002000B587B001900B469A
:109FE0008DF803300423ADF8083041F23833ADF872
:109FF0000A300A4B0393019B04931023ADF81430ED
:10A000009DF803308DF8163002AB1846FFF734FF89
:10A010000346184607B05DF804FB00BF5C2800202B
:10A0200000B589B001900B468DF803300523ADF8DB
:10A030000C3041F23733ADF80E300A4B0493019BDC
:10A0400005930423ADF818309DF803308DF81A30CD
:10A0500003AB1846FFF710FF0790079B184609B09F
:10A060005DF804FB7428002000B587B0034600911A
:10A070008DF8073013468DF806309DF80730042B15
:10A0800001D907231EE09DF80730104A32F813303B
:10A09000ADF8083041F23733ADF80A309DF807309B
:10A0A0000B4A52F823300393009B04934023ADF8EE
:10A0B00014309DF806308DF8163002AB1846FFF7C5
:10A0C000DBFE0346184607B05DF804FB20230020A2
:10A0D0002C23002000B587B001900B468DF803308B
:10A0E0000123ADF8083041F23733ADF80A300A4B9E
:10A0F0000393019B04930723ADF814309DF80330BC
:10A100008DF8163002AB1846FFF7B6FE0346184628
:10A1100007B05DF804FB00BF6C28002000B583B0D9
:10A1200041F2373004F044F80190019B184603B027
:10A130005DF804FB014B1B6818467047142700208C
:10A1400000B583B00190019B1B88102B02D0112B0E
:10A1500005D013E0019B9A880A4B1A800EE0094B48
:10A160004FF6FF721A80084B1B78DBB2002B04D02D
:10A17000054B00221A70FFF7E7FD00BF00BF03B0D8
:10A180005DF804FB2A2300201827002000B583B0C7
:10A190000F4B01221A600F4B4FF6FF721A800E4BC5
:10A1A00000221A700D4803F011FE0190019B002B54
:10A1B00001D0019B08E003F085FE0190019B002B7C
:10A1C00001D0019B00E00023184603B05DF804FBBA
:10A1D000142700202A23002018270020A19D020018
:10A1E000B0DF704700BF184682B00190019B93F822
:10A1F0007430002B14BF01230023DBB2184602B0D9
:10A20000704700B583B001900091019B002B01D1F4
:10A210000E2315E0009B002B01D10E2310E0019BC3
:10A22000B3F864304FF6FF72934208D0019BB3F845
:10A23000643000991846FFF7D3FF034600E0082377
:10A24000184603B05DF804FB00B587B001900B46DB
:10A250008DF8033002AB00221A605A609A60DA600F
:10A26000019B002B01D10E2318E09DF80330002B39
:10A2700007D001238DF808304FF48173ADF80C300E
:10A2800006E002238DF8083040F20313ADF80C30DD
:10A2900002AB19460198FFF7B4FF0346184607B012
:10A2A0005DF804FB00B58DB0059003930B46ADF847
:10A2B00012301346ADF810300598FFF795FF0346AE
:10A2C000002B2BD0BDF8123047F2075293420DD12C
:10A2D00000210598FFF7B8FF0B900B9B0793079B96
:10A2E000002B40D00798FCF745FB3CE0204B1B7847
:10A2F000BDF81020BDF812100193BDF8383000935E
:10A30000039B059800F064FB0B900B9B0893089B44
:10A31000002B28D00898FCF72DFB24E0BDF8123064
:10A3200047F20752934211D1BDF81030BDF83820E2
:10A330000399059800F04EFC0B900B9B0993099B29
:10A34000002B10D00998FCF715FB0CE000210598B4
:10A35000FFF77AFF0B900B9B0A930A9B002B02D00E
:10A360000A98FCF707FB00BF0DB05DF804FB00BFC7
:10A370007828002000B589B001900B46ADF8023076
:10A380001346ADF800300198FFF72EFF0346002B6F
:10A3900026D0BDF8023047F2075293420DD1012179
:10A3A0000198FFF751FF0790079B0393039B002B36
:10A3B00038D00398FCF7DEFA34E01C4B1B78BDF86C
:10A3C0000020BDF80210019800F0B6F90790079B35
:10A3D0000493049B002B25D00498FCF7CBFA21E0D2
:10A3E000BDF8023047F2075293420CD1019800F0B9
:10A3F00081F90790079B0593059B002B12D00598C8
:10A40000FCF7B8FA0EE0BDF802301946019800F0EA
:10A410003CF90790079B0693069B002B02D00698F9
:10A42000FCF7A8FA00BF09B05DF804FB782800200B
:10A4300082B00190019B002B01D10E230AE0074B53
:10A4400000221A70019B054A1A67019B002283F8BB
:10A4500074200023184602B0704700BF78280020FF
:10A46000ADDF704700BF184600B583B00190009182
:10A47000019B002B01D10E2314E0009B002B01D186
:10A480000E230FE0009B01221A70009A937943F08B
:10A4900001039371009B00221A8100990198FFF734
:10A4A000B0FE0346184603B05DF804FB00B589B062
:10A4B00003900B4601928DF80B30039B002B01D1CA
:10A4C0000E231AE0019B002B01D10E2315E004ABF3
:10A4D00000221A605A609A60DA609DF80B309BB2D5
:10A4E000ADF81A30019B07930023ADF8143004AB8C
:10A4F00019460398FFF7B8FF0346184609B05DF800
:10A5000004FB00B58FB001900B46ADF80230019B03
:10A51000002B01D10E2327E00023049305AB1E225C
:10A520000021184617F0E4FF2223ADF8083000237D
:10A53000ADF80A3004AB0393019BB3F8643002AA70
:10A54000BDF802101846FFF78BFF0D900D9B002BF6
:10A5500001D00D9B08E0BDF80830DBB2039A194624
:10A560000198FFF7A3FF034618460FB05DF804FB00
:10A5700000B58FB003900B4601928DF80B30039B12
:10A58000002B01D10E237CE00AAB00221A605A6036
:10A590009A60DA609DF80B30019A9B0113442633D0
:10A5A0001B78302B3BD19DF80B30184601F034F866
:10A5B00003460593059B1A06059B1B0203F47F03C4
:10A5C0001A43059B1B0A03F47F41059B1B0E0B439B
:10A5D000134305930E23ADF8323030238DF8183035
:10A5E0009DF80B30184601F041F803468DF81930FC
:10A5F00005A906AB02330422184617F050FF9DF858
:10A600000B309B011033019A1344191D06AB06331E
:10A610000822184617F043FF06AB0D9328E0019B74
:10A6200093F84131002B11D0019B93F84D31002B51
:10A630000CD0019B93F84C319DF80B209A4205D128
:10A64000019B93F84731184601F050FD9DF80B30FF
:10A65000019A9B01134427331B789BB2ADF832302B
:10A660009DF80B309B011033019A134402330D9374
:10A670000023ADF82C300AAB19460398FFF7F4FE1F
:10A68000034618460FB05DF804FB00B585B0019095
:10A690000B46ADF80230019B002B01D10E2325E0C3
:10A6A000BDF8023047F20C5293420BD101238DF8D2
:10A6B0000F300DF10F031A4601210198FFF7F6FE46
:10A6C000034613E0BDF8023047F20652934208D128
:10A6D000019B74331A4601210198FFF7E7FE0346F8
:10A6E00004E001210198FFF7AFFD0346184605B0CD
:10A6F0005DF804FB00B589B00190019B002B01D1EE
:10A700000E2314E003AB184600F0E4FD0790079B0E
:10A71000002B01D0079B0AE003AB184600F090FD28
:10A7200003AB1A4610210198FFF7C0FE03461846F6
:10A7300009B05DF804FB000000B587B0039008463F
:10A7400011461A460346ADF80A300B46ADF80830FC
:10A7500013468DF80730039B002B01D10E23B8E080
:10A7600001F006FD0590BDF80A30A3F5EA43013B70
:10A770000B2B00F2AD8001A252F823F0ADA702002E
:10A78000ADA70200CFA7020007A8020021A802007F
:10A79000BDA70200ADA70200ADA7020075A8020088
:10A7A000BFA80200D1A802005DA80200BDF80830D1
:10A7B00019460398FFF7A5FE03468AE0039B74330E
:10A7C0001A4601210398FFF771FE034681E0FEF768
:10A7D00041FE0346ADF81230BDF812301B021AB22A
:10A7E000BDF812301B0A9BB21BB213431BB29BB2C3
:10A7F000ADF812300DF112031A4602210398FFF74B
:10A8000055FE034665E09DF807309B01059A134409
:10A8100001331A4601210398FFF748FE034658E02A
:10A820009DF80730059A9B01134428331B78002BB1
:10A8300007D09DF807309B012833059A1344013354
:10A8400005E09DF807309B01059A134401331A4631
:10A8500001210398FFF72AFE03463AE001238DF811
:10A8600011300DF111031A4601210398FFF71EFE66
:10A8700003462EE09DF80730059A9B0113442A33C6
:10A880001B78002B15D09DF80730059A9B011344C7
:10A8900026331B78302B0CD19DF807309B01059A8D
:10A8A000134402331A4610210398FFF7FFFD0346B5
:10A8B0000FE001210398FFF7C7FC034609E09DF86C
:10A8C0000730059A19460398FFF752FE034600E049
:10A8D0000723184607B05DF804FB00BFACDF7047E4
:10A8E00000BF184600B583B001900091019B002B7A
:10A8F00001D10E2314E0009B002B01D10E230FE0A9
:10A90000009B02221A70009A937943F0010393711D
:10A91000009B00221A8100990198FFF772FC034600
:10A92000184603B05DF804FB82B001900B468DF829
:10A9300003309DF80330002B07D09DF80330012B26
:10A9400005D1019B1B78002B01D101233DE0019B28
:10A950001B78302B29D0302B36DC202B1DD0202B20
:10A9600032DC002B02D0102B08D02DE09DF80330F4
:10A97000112B0CBF01230023DBB226E09DF803302E
:10A98000032B05D99DF80330132B01D8012300E0D8
:10A99000002303F00103DBB217E09DF80330012B25
:10A9A0000CBF01230023DBB20FE09DF80330222B04
:10A9B00003D09DF80330122B01D1012300E00023C6
:10A9C00003F00103DBB200E00023184602B0704739
:10A9D00000B58BB0039001930B46ADF80A301346D7
:10A9E000ADF80830039B002B01D10E23EEE0019B54
:10A9F000002B01D10E23E9E004AB00221A605A605B
:10AA00009A60DA6000238DF827300023ADF8143007
:10AA1000BDF80A30A3F5EA43023B0A2B00F2BA80E4
:10AA200001A252F823F000BF55AA02006FAA02004B
:10AA30008FAA0200A3AA0200B7AA020095AB0200E7
:10AA400095AB020095AB02000FAB020065AB0200B4
:10AA50007DAB0200019B1B78042B40F29D8040F2ED
:10AA60000D13ADF814300023ADF8303094E0019BA5
:10AA70001B881B021AB2019B1B881B0A9BB21BB2CC
:10AA800013431BB29BB21846FEF78EFC89E0019B74
:10AA900093F900209DF834301146184601F0A8F9CA
:10AAA0007FE0019B93F900209DF834301146184651
:10AAB00001F0D0F975E0BDF83030012B07D1019BD2
:10AAC0001B78002B21D0019B1B78022B1DD0BDF8D9
:10AAD0003030112B12D1019B1B78002B0ED1019B22
:10AAE0000133184600F072FB0890089B002B01D040
:10AAF000089B6BE00123ADF8303007E0019B00229A
:10AB00001A700123ADF830304BE000BF49E0BDF8CA
:10AB10003030142B02D901238DF82730BDF83030A6
:10AB2000DBB219460198FFF7FFFE0346002B01D068
:10AB3000002301E040F20D13ADF81430BDF81430DD
:10AB4000002B2BD1BDF83030D9B29DF83430019AAA
:10AB5000184601F0ADF9FEF77DFC03461846FEF7F6
:10AB600023FC1BE0019B1B780B2B19D1FFF7D6FAB6
:10AB70000890089B002B13D0089B27E0019B1B78B3
:10AB8000002B03D00120FEF7C5FB0AE00020FEF7F2
:10AB9000C1FB06E000BF04E000BF02E000BF00E030
:10ABA00000BFBDF83030ADF81A30019B07939DF817
:10ABB000273083F00103DBB2002B06D004AB19462B
:10ABC0000398FFF78FFE034600E0002318460BB002
:10ABD0005DF804FB00B58DB00390029111461A4652
:10ABE0000B46ADF806301346ADF80430039B002B3E
:10ABF00001D10E233CE0029B002B01D10E2337E054
:10AC000007AB00221A605A609A60DA60BDF806301D
:10AC1000ADF814300023ADF81630029B0693BDF852
:10AC20000630102B18D1039BB3F8643005AABDF889
:10AC300004101846FFF752FE0B900B9B002B07D118
:10AC40000023ADF82030069B184600F02BFB03E0F4
:10AC500040F20313ADF82030BDF80630ADF82630D1
:10AC6000069B0A9307AB19460398FFF73BFE034682
:10AC700018460DB05DF804FB00B58DB003468DF8A5
:10AC80001F30102308939DF81F30184600F0C8F8B5
:10AC90009DF81F30742202FB03F340335C4A1344D7
:10ACA00010220021184617F023FC9DF81F209DF864
:10ACB0001F305749742000FB02F20A446C321078AE
:10ACC000534A742101FB03F313444B3302461A70B9
:10ACD0009DF81F304E4A742101FB03F3134468337F
:10ACE0001B689DF81F204A49742000FB02F20A44A9
:10ACF0006C321278D3409DF81F204549742000FB28
:10AD000002F20A446C32127893400B930B9B1A0E9A
:10AD10009DF81F30D0B23E4A742101FB03F3134467
:10AD20004C3302461A700B9B1A0C9DF81F30D0B2A0
:10AD3000374A742101FB03F313444D3302461A7062
:10AD40000B9B1A0A9DF81F30D0B2314A742101FBC7
:10AD500003F313444E3302461A709DF81F300B9ACA
:10AD6000D0B22B4A742101FB03F313444F33024644
:10AD70001A709DF81F30742202FB03F33033244A0B
:10AD800098189DF81F30742202FB03F34033204AC9
:10AD900013449DF81F20742101FB02F250321C491C
:10ADA0000A4408A9049103921022029201930023FD
:10ADB0000093034601221749174814F0C7F90A9077
:10ADC0000A9B0993099B002B02D00998FBF7D2FD3F
:10ADD0009DF81F30742202FB03F360330C4A98186D
:10ADE0009DF81F30742202FB03F35033084A1344CA
:10ADF0000822194617F053FB084B1B689DF81F20CB
:10AE000001211046984700BF0DB05DF804FB00BF5C
:10AE1000AC28002080340400482B0020402B002068
:10AE200000B58DB003468DF81F30102309939DF8AF
:10AE30001F30742202FB03F31033404A13441022E4
:10AE40000021184617F054FB9DF81F303B4A74212F
:10AE500001FB03F313441B33FF221A709DF81F30CC
:10AE6000364A742101FB03F3134468331B681A0E3E
:10AE70009DF81F30D0B2314A742101FB03F3134413
:10AE80001E3302461A709DF81F302C4A742101FBB4
:10AE900003F3134468331B681A0C9DF81F30D0B2BB
:10AEA000264A742101FB03F313441F3302461A7030
:10AEB0009DF81F30742202FB03F3204A98189DF876
:10AEC0001F30742202FB03F310331C4A13449DF815
:10AED0001F20742101FB02F2203218490A4409A9FB
:10AEE00004910392102202920193002300930346DF
:10AEF00001221349134814F029F90B900B9B0A9374
:10AF00000A9B002B02D00A98FBF734FD9DF81F30F6
:10AF1000742202FB03F33033084A98189DF81F305F
:10AF2000742202FB03F32033044A1344102219460F
:10AF300017F0B5FA00BF0DB05DF804FBAC28002097
:10AF400080340400482B002000B585B003468DF8FE
:10AF500007309DF80730234A742101FB03F31344A3
:10AF60006C331B78013B022202FA03F303931E4B5E
:10AF70001B68002B0AD19DF807301A4A742101FB87
:10AF800003F3134468331B68174A13609DF80730B6
:10AF9000144A742101FB03F3134468331A68124BFB
:10AFA0001B68D31A0293029A039B9A4215D39DF809
:10AFB00007300C4A742101FB03F3134468331A6809
:10AFC000039BB2FBF3F3039A02FB03F3064A1360FD
:10AFD0009DF807301846FFF74FFE00BF05B05DF83B
:10AFE00004FB00BFAC280020A02E002010B58AB0C2
:10AFF000019000210198FEF7EFFF0990099B48F2AC
:10B000000962934207D0099B0893089B002B02D04A
:10B010000898FBF7AFFC099B48F20962934217D1ED
:10B020000D4B03AC0FCB84E80F0003AB1022194685
:10B03000019817F034FA01210198FEF7CDFF09902D
:10B04000099B0793079B002B02D00798FBF792FC04
:10B0500000BF0AB010BD00BF642A040000B585B06F
:10B06000304B1B78184601F053FA0190019B002BDE
:10B0700053D00023039323E02B4A039B742101FB4D
:10B0800003F3134470331B78002B16D0264A039B1E
:10B09000742101FB03F3134468331A68019B1A44BB
:10B0A0002149039B742000FB03F30B4468331A60AF
:10B0B000039BDBB21846FFF747FF039B0133039363
:10B0C000039B042BD8D9194B1A68019B1344174AC8
:10B0D0001360174B0093154B1B68009A9A421CD8BB
:10B0E0000023029313E0104A029B742101FB03F337
:10B0F000134470331B78002B06D00E4B1B68029A4A
:10B10000D2B2042110469847029B01330293029B5E
:10B11000042BE8D9054B00221A6000BF05B05DF88A
:10B1200004FB00BF442B0020AC280020A42E0020EC
:10B1300080510100402B002000B585B002920193A0
:10B1400003468DF80F300B468DF80E309DF80F300A
:10B150001C4A742101FB03F313446C339DF80E2049
:10B160001A709DF80F30174A742101FB03F3134442
:10B170006833029A1A609DF80F30742202FB03F3C1
:10B18000104A134410220199184617F088F99DF8C7
:10B190000F300C4A742101FB03F313447033012276
:10B1A0001A70094B1B689DF80F2002211046984722
:10B1B0009DF80F301846FFF75FFD00BF05B05DF842
:10B1C00004FB00BFAC280020402B002000B591B04C
:10B1D000079000230A930BAB00221A605A609A6012
:10B1E0001023099309AB04930AAB03931023029332
:10B1F000079B0193002300930E4B00220E490F483A
:10B2000013F0A4FF0F900F9B0E930E9B002B01D009
:10B210000E9B0AE00AAB10221946064817F03FF9C8
:10B2200001210448FEF7D8FE0346184611B05DF828
:10B2300004FB00BF7C28002080340400482B002041
:10B2400000B58DB00790102309931022079910487C
:10B2500017F025F909AB04930E4B039310230293C7
:10B260000B4B0193002300930B4B01220B490C481D
:10B2700013F06CFF0B900B9B0A930A9B002B02D0E0
:10B280000A98FBF777FB00BF0DB05DF804FB00BF29
:10B290008C2800209C2800207C280020803404007A
:10B2A000482B002000B583B0019010220749019877
:10B2B00017F0BEF80346002B04D1054B1B68002194
:10B2C0000020984700BF03B05DF804FB9C280020D5
:10B2D000402B002000B583B001901021019814F09C
:10B2E00075FC0346184603B05DF804FB00B58DB04D
:10B2F000034606918DF81F3013468DF81E3010233B
:10B3000009939DF81F30264A742101FB03F313446F
:10B31000703301221A709DF81F30214A742101FBFD
:10B3200003F313446C339DF81E201A709DF81F30F0
:10B330001B4A742101FB03F3134468334FF47F422B
:10B340001A609DF81F30742202FB03F3144A134461
:10B3500009AA0492039310230293069B01930023EE
:10B360000093104B00221049104813F0EFFE0B9091
:10B370000B9B0A930A9B002B02D00A98FBF7FAFA60
:10B380009DF81F301846FFF777FC094B1B689DF8A6
:10B390001F2002211046984700BF0DB05DF804FB46
:10B3A000AC2800207C28002080340400482B00209A
:10B3B000402B002000B5D7B056ABA3F59C731960A5
:10B3C000114656ABA3F2311302461A7056ABA3F5E1
:10B3D00099730A461A7056ABA3F5927300221A604D
:10B3E000043300221A605A609A60DA601A615A6166
:10B3F0009A6156ABA3F5947320221A6056ABA3F55D
:10B40000967320221A6056ABA3F5987340221A60F7
:10B4100056ABA3F231131B78674A742101FB03F387
:10B420001344703301221A7056ABA3F231131B7808
:10B43000614A742101FB03F313446C3356AAA2F54D
:10B44000997212781A7056ABA3F231131B785A4ACC
:10B45000742101FB03F3134468334FF47F421A60F5
:10B4600056ABA3F59C7245A920231268534813F0EC
:10B47000A1FF5590559B5493549B002B02D0549898
:10B48000FBF778FA4E4B4F4A4C494F4813F032FFC6
:10B490005590559B5393539B002B02D05398FBF729
:10B4A00069FA35A945AA0BAB00930B4645494748B5
:10B4B00013F0FCFF5590559B5293529B002B02D0EA
:10B4C0005298FBF757FA35A90DAB2022184616F013
:10B4D000AFFF0346002B07D103235193519B002B51
:10B4E00002D05198FBF746FA0CAA3DAB19463448F6
:10B4F00013F0A0FF5590559B5093509B002B02D00A
:10B500005098FBF737FA56ABA3F59C7325A8202279
:10B51000196816F0C4FF25AB20333DA92022184638
:10B5200016F0BDFF0AA915AA002306930023059370
:10B53000002304934023039325AB0293202301931C
:10B5400035AB00930B462249224814F0B4F85590CD
:10B55000559B4F934F9B002B02D04F98FBF70AFA55
:10B5600056ABA3F231131B78742202FB03F3124A89
:10B57000134415A91022184616F091FF56ABA3F2FA
:10B5800031131B781846FFF777FB134B1B6856AA3D
:10B59000A2F2311212780321104698470E4B1B6815
:10B5A00056AAA2F23112127802211046984700BF23
:10B5B00057B05DF804FB00BFAC2800205C340400E9
:10B5C000182B0020F02A0020982E00209C2E00200E
:10B5D000683404006C2C0020402B002000B587B09C
:10B5E000034600918DF807302023039303AB1A46DE
:10B5F0000099084813F01EFF0590059B0493049BD7
:10B60000002B02D00498FBF7B5F900BF07B05DF836
:10B6100004FB00BF182B002082B003468DF80730D2
:10B620009DF80730044A742101FB03F31344683387
:10B630001B68184602B07047AC28002000B583B0E4
:10B6400003468DF807309DF80730742202FB03F3A0
:10B65000054A134474220021184616F049FF00BF22
:10B6600003B05DF804FB00BFAC28002082B00346A5
:10B670008DF807309DF80730044A742101FB03F36D
:10B6800013446C331B78184602B07047AC28002076
:10B6900000B583B0034600918DF807309DF8073060
:10B6A000742202FB03F36033054A1344082219464F
:10B6B000009816F0F4FE00BF03B05DF804FB00BF75
:10B6C000AC28002000B58DB0034606918DF81F30E0
:10B6D000102309939DF81F30742202FB03F3144AD0
:10B6E000134410221946134816F0D9FE09AB0493EF
:10B6F000114B0393102302930E4B019300230093ED
:10B700000E4B01220E490F4813F020FD0B900B9BAE
:10B710000A930A9B002B02D00A98FBF72BF9102200
:10B720000549069816F0BBFE00BF0DB05DF804FB9E
:10B73000AC2800208C2800209C2800207C28002099
:10B7400080340400482B002000B583B003460091EC
:10B750008DF807309DF80730742202FB03F3054A89
:10B76000134410221946009816F099FE00BF03B04A
:10B770005DF804FBAC28002000B5A5B003460A9193
:10B7800009928DF82F300023189319AB00221A600C
:10B790005A600C2323930A9B991C18AB0C22184661
:10B7A00016F07DFE0023149315AB00221A605A6038
:10B7B0009A609DF82F30742202FB03F35B4A9918BC
:10B7C00014AB1022184616F06AFE002312930023D1
:10B7D000ADF84C30062322939DF82F30534A742144
:10B7E00001FB03F3134468331B689DF82F204F4976
:10B7F000742000FB02F20A446C321278D3409DF8A8
:10B800002F204A49742000FB02F20A446C3212785D
:10B8100093402193219B1B0EDBB28DF84830219B76
:10B820001B0CDBB28DF84930219B1B0ADBB28DF873
:10B830004A30219BDBB28DF84B300023ADF8443009
:10B8400011AB0221184614F0C1F92090209B1F93E0
:10B850001F9B002B02D01F98FBF78CF811A912AB8D
:10B8600004330222184616F01AFE0023ADF83430D5
:10B8700002231E9314AB1A462D492E4813F09CFA4E
:10B880002090209B1D931D9B002B02D01D98FBF741
:10B8900071F8229BD9B21E9BDBB212AA06930DABA4
:10B8A00005930EAB0493239B039318AB02930023E1
:10B8B0000193002300930B4601211E4813F0D4FA94
:10B8C0002090209B1C931C9B002B02D01C98FBF704
:10B8D00051F8184813F0AAFA2090209B1B931B9B49
:10B8E000002B02D01B98FBF745F80A9B1A78099B9E
:10B8F0001A70099B01225A70099B02330EA90C226F
:10B90000184616F0CCFD099B0E3311A902221846E9
:10B9100016F0C5FD099B10330DA90222184616F03A
:10B92000BEFD00BF25B05DF804FB00BFAC280020C1
:10B93000143304009C2D002000B587B00190019BBA
:10B94000002B01D1072337E01D48FFF74FFB1D4AAD
:10B95000019B1360502200211B4816F0C9FD0023F3
:10B9600005930CE0194A059B742101FB03F3134472
:10B9700068334FF47F421A60059B01330593059BA2
:10B98000042BEFD94FF40041114800F011FE049050
:10B99000049B0393039B002B02D00398FAF7EAFF62
:10B9A00014F06AF80490049B0293029B002B02D0CF
:10B9B0000298FAF7DFFF0023184607B05DF804FB92
:10B9C0007C280020402B0020F02A0020AC280020FA
:10B9D000442B002082B00190019B1B78042B02D9DC
:10B9E000019B04221A7000BF02B0704700B585B0F9
:10B9F00003468DF807309DF807309B01254A9918BA
:10BA00009DF8073000221846FEF72EFB0390039B9B
:10BA100048F20962934239D0039B0293029B002BA8
:10BA200002D00298FAF7A6FF9DF80730194A9B0149
:10BA3000134426331B78302B1BD1174B01221A706D
:10BA40009DF80730134A9B0113442B3319789DF856
:10BA50000730104A9B0113442C331A689DF80730B5
:10BA60009B0130330B4803449DF80700FFF764FB4C
:10BA70000CE09DF80730074A9B01134426331A78DF
:10BA80009DF807100123034800F0A0FC00BF05B09B
:10BA90005DF804FBA82E00200830002000B591B00E
:10BAA00003460A468DF8073013468DF80630394AAA
:10BAB00006AB07CA03C31A70374A03AB07CA03C3EE
:10BAC0001A7000238DF83F309DF80730334A9B01F0
:10BAD000134428331B78002B09D09DF807302F4AD8
