:020000022000DC
:1060000000000120756302005D6302005F6302000F
:106010006163020063630200656302000000000028
:1060200000000000000000000000000067630200A4
:1060300069630200000000006B6302006D630200F0
:1060400019D802006F6302001DEA02006F630200AC
:106050006F6302006F6302003DE7020079F0020007
:106060006F630200F1C0020009C102006F63020009
:106070006F63020069ED02006F6302006F6302004C
:106080006F630200117802006F6302006F63020009
:106090006F6302006F630200D54703006F63020065
:1060A0006F6302006F6302006F6302006F630200A0
:1060B0006F6302006F630200000000000000000038
:1060C0006F6302006F6302006F6302006F63020080
:1060D0006F6302006F6302006F6302000000000044
:1060E00000000000000000000000000000000000B0
:1060F00000000000000000000000000000000000A0
:10610000000000000000000000000000000000008F
:10611000000000000000000000000000000000007F
:10612000000000000000000000000000000000006F
:10613000000000000000000000000000000000005F
:10614000000000000000000000000000000000004F
:10615000000000000000000000000000000000003F
:10616000000000000000000000000000000000002F
:10617000000000000000000000000000000000001F
:10618000000000000000000000000000000000000F
:1061900000000000000000000000000000000000FF
:1061A00000000000000000000000000000000000EF
:1061B00000000000000000000000000000000000DF
:1061C00000000000000000000000000000000000CF
:1061D00000000000000000000000000000000000BF
:1061E00000000000000000000000000000000000AF
:1061F000000000000000000000000000000000009F
:10620000354936480A1A02D0072291438D4634494F
:1062100034480A1A06D00722914381F309880222E2
:1062200082F3148830483149314A00F044F831484B
:106230003149324A00F03FF831483249324A00F0E1
:106240003AF832483249334A00F035F83248334997
:10625000334A00F030F833483349344A00F02BF821
:1062600033483449344A00F026F83448344900228F
:1062700000F02CF833483449002200F027F8334866
:106280003349091A082902DB002202604160314AC1
:1062900090471F481F49884205D00268043003B464
:1062A000904703BCF7E700208646EC46002000211B
:1062B000294A9047FEE7884207D0521A05D0037852
:1062C00001300B700131013AF9D17047884202D098
:1062D00002700130FAE770470000012000E0002062
:1062E000000001200000012064B903000423002005
:1062F000D8230020D0630200D0630200348403005E
:1063000064B903000423002004230020C085030097
:10631000C0850300C0850300C0850300C08503005D
:10632000C0850300C0850300C085030062B9030077
:1063300038BA0300D8230020D8230020D823002017
:10634000883A0020883A0020883A0020883A0020C5
:10635000885A00209D63020021190300FEE7FEE732
:10636000FEE7FEE7FEE7FEE7FEE7FEE7FEE7FEE705
:1063700000F002B8FFF7FCBF0F484FF00701884359
:1063800085460E4880470E48016841F4700101605F
:10639000BFF34F8FBFF36F8FFFF732BF09480A4932
:1063A0000A4A884207D0521A05D0037801300B7090
:1063B0000131013AF9D1704700000120217A030030
:1063C00088ED00E0AC850300F022002004230020CB
:1063D00084B003468DF807309DF807305B08DBB2C8
:1063E0001A460D4B9B5C8DF80F309DF8073003F07B
:1063F0000103002B04D09DF80F301B09DBB204E031
:106400009DF80F3003F00F03DBB28DF80E309DF8CE
:106410000E30184604B070471024002084B00346A4
:106420000A468DF8073013468DF806309DF8073080
:1064300003F00103002B01D00F2300E0F0238DF8BF
:106440000F309DF8073003F00103002B04D09DF8B6
:1064500006301B01DBB201E09DF806308DF80E30EE
:106460009DF807305B08DBB21A46114B9A5C9DF829
:1064700007305B08DBB219469DF80F301340DAB2E3
:106480000B4B5A549DF807305B08DBB21A46084B99
:106490009A5C9DF807305B08DBB219469DF80E3018
:1064A0001343DAB2024B5A5400BF04B0704700BF26
:1064B0001024002084B003468DF807300023039396
:1064C00010E00D4B1A68039BDB0013440293029B00
:1064D0001B789DF807209A4201D1029B09E0039B9B
:1064E00001330393054B1B781A46039B9342E8DB69
:1064F0000023184604B07047D8230020DC23002076
:1065000000B585B003460A468DF8073013468DF86E
:1065100006309DF807301846FFF7CCFF0390039B29
:10652000002B0BD0039B5B68002B07D0039B5B68A1
:106530009DF806109DF807201046984700BF05B04B
:106540005DF804FB2DE9F04F87B003460A468DF84D
:106550000F3013468DF80E309DF80F301846FFF7B8
:1065600037FF0346042B00F2C28001A252F823F049
:1065700085650200F96502001566020045660200A5
:106580005B6602009DF80E30002B00F0AD809DF898
:106590000F3001211846FFF741FF00238DF8173017
:1065A0000DF11703184600F0E1FD9DF80F104FF0B4
:1065B00001024FF00003A1F12004C1F1200003FA11
:1065C00001F702FA04F4274322FA00F0074302FA23
:1065D00001F6494BD3E9002346EA020100913B430F
:1065E0000193454BDDE90012C3E900129DF8173015
:1065F000184600F0C5FD77E09DF80E30002B01D065
:10660000022200E000229DF80F3011461846FFF7E5
:1066100005FF6CE09DF80E30002B0CD09DF80F307C
:1066200003211846FFF7FAFE9DF80F3001211846A6
:10663000FFF766FF5BE09DF80F3001211846FFF77A
:10664000EDFE54E09DF80E30002B4FD19DF80F3039
:1066500004211846FFF7E2FE48E09DF80E30002BBB
:1066600006D09DF80F3003211846FFF7D7FE3EE015
:106670009DF80F3000211846FFF7D0FE9DF80F302F
:1066800000211846FFF73CFF00238DF816300DF16E
:106690001603184600F06AFD9DF80F104FF0010236
:1066A0004FF00003A1F12006C1F1200003FA01F52B
:1066B00002FA06F6354322FA00F0054302FA01F425
:1066C0006FEA04086FEA05090B4BD3E9002308EAD7
:1066D000020A09EA030B084BC3E900AB9DF8163028
:1066E000184600F04DFD02E000BF00E000BF00BF13
:1066F00007B0BDE8F08F00BF0824002000B583B0CC
:106700000648074B1B685B080022194600F071FC25
:10671000019000BF03B05DF804FB00BFE823002038
:10672000E023002000B587B001900023059328E006
:106730001C4B1A68059BDB0013440493049B1B78D5
:10674000184607F0EBFF03468DF80F30049B5B788B
:10675000012B0CBF01230023DBB21A469DF80F303A
:106760009A420CBF012300238DF80E30049B1B7846
:106770009DF80E2011461846FFF7E4FE059B0133F5
:106780000593094B1B781A46059B9342D0DB074BB8
:10679000D3E90023134301D0FFF7B0FF00BF07B0D8
:1067A0005DF804FBD8230020DC230020082400200F
:1067B00000B585B001900B468DF80330019BDBB22C
:1067C0001846FFF777FE0390039B1B78184607F0E7
:1067D000A5FF03468DF80B30039B5B78012B0CBFA4
:1067E00001230023DBB21A469DF80B309A420CBFFE
:1067F000012300238DF80A309DF80A30002B06D0C3
:10680000054BD3E90023134301D1FFF777FF00BF06
:1068100005B05DF804FB00BF0824002000B58BB074
:1068200003900B4601928DF80B30019B092B01D888
:10683000072367E007F072FD034683F00103DBB234
:10684000002B09D007F018FD0990099B0893089BBD
:10685000002B01D0089B55E02C4A039B13602C4A67
:106860009DF80B3013702B4A019B136010220021FE
:10687000294811F058FD29494FF000024FF000035C
:10688000C1E9002331E09DF80B30DB00039A13448B
:10689000079303238DF8143000238DF815309DF8ED
:1068A00016306FF300038DF816309DF816306FF335
:1068B00041038DF816309DF816306FF382038DF882
:1068C0001630079B9B788DF81530079B1B78184670
:1068D00005AB134A194607F015FE0990099B06936C
:1068E000069B002B01D0069B0CE09DF80B305A1E36
:1068F0008DF80B20002BC6D10A4A00210A4800F06F
:1069000059FB034618460BB05DF804FBD823002062
:10691000DC230020E0230020102400200824002095
:10692000B167020025670200CC85030000B583B083
:10693000002301930CE00C4B1A68019BDB0013440D
:106940001B780121184607F04DFE019B013301938E
:10695000064B1B781A46019B9342ECD30023184642
:1069600003B05DF804FB00BFD8230020DC23002027
:1069700000B587B001900023039300230493019B8B
:10698000059303AB1A46002144F2010000F01AF807
:1069900000BF07B05DF804FBBFF34F8F00BF074B8C
:1069A000DB6803F4E0620549054B1343CB60BFF39A
:1069B0004F8F00BF00BF00BFFCE700BF00ED00E04D
:1069C0000400FA0500B585B003900291019272B6F9
:1069D00000BF0EF0A5FF00BF0EF062FD0346002BC6
:1069E000FAD1114A114BD31ADB081B0443F00103FF
:1069F0000F4918460EF0FCFC0E4B1B6803F0010318
:106A0000002B00D000BE084A084BD31ADB081B0439
:106A100043F00203084918460EF0EAFCFFF7BCFFFA
:106A200000BF05B05DF804FB24850300DC8403008F
:106A3000D0850300F0ED00E0DC8503002DE9F04394
:106A400083B0144800F0C9FE034600221C461546D8
:106A5000114BD3E9002314EB020845EB0309CDE900
:106A600000890E4BD3E90023DDE90001904271EB70
:106A7000030307D2DDE9002312F1807643F100071A
:106A8000CDE90067DDE900231046194603B0BDE8F3
:106A9000F08300BF0423002028240020302400209D
:106AA00088B001900091019B0793009B0693079B80
:106AB000D3E90223CDE90423069BD3E90223CDE9E0
:106AC0000223DDE90423DDE90201904271EB0303B7
:106AD0002CBF01230023DBB2184608B0704700002A
:106AE000F0B585B0019000238DF80F30274B1B784F
:106AF000002B45D0019B002B42D0019B1B7FDBB2BA
:106B0000002B3DD0FFF79AFF019BD3E9022390426F
:106B100071EB03032CD3019B1B69002B02D1019B5A
:106B200000221A77019B5B69019A92691046984787
:106B3000019B1B69002B23D0019B1B7FDBB2002B29
:106B40001ED0019BD3E902230199096900200C465C
:106B50000546161943EB0507019BC3E90267019B34
:106B600019460B4804F0CDFE01238DF80F3007E0E5
:106B7000019B1946064804F0C4FE01238DF80F302E
:106B80009DF80F30184605B0F0BD00BF242400204A
:106B9000F8850300F0B589B0019000910D230793AB
:106BA000009B00221A70019BD3E90245FFF746FFC4
:106BB00002460B46A61A65EB0307CDE90467DDE93B
:106BC0000423012A73F100031BDB049BB3F5D40FEC
:106BD00005D300F04DFA0246134B134403E0019B2A
:106BE000D3E90223134603934FF41603039A0021BB
:106BF0000E4800F0FEFC0790079B002B05D10123F7
:106C00000EE00021094800F0C2FD079B0D2B06D1C4
:106C10000198FFF765FF03461A46009B1A70002390
:106C2000184609B0F0BD00BFFFFF69000423002033
:106C300000B583B0044804F08DFE0190019B184616
:106C400003B05DF804FB00BFF885030000B583B016
:106C5000044804F095FE0190019B184603B05DF8CE
:106C600004FB00BFF885030000B583B0FFF7E0FF29
:106C70000190019B002B02D0019B00221A77019BFF
:106C8000002BF3D100BF00BF03B05DF804FB000090
:106C9000054BD3E9002312F1807043F10001024B50
:106CA000C3E9000100BF70472824002000B583B06D
:106CB0000190084B1B68002B07D0064B1B68184639
:106CC000FFF70EFF034B00221A6000BF03B05DF810
:106CD00004FB00BF2024002000B583B00190FFF723
:106CE000ADFE02460B460349C1E9002300BF03B0D5
:106CF0005DF804FB3024002000B585B00190FFF75B
:106D0000A5FF039000238DF80B30039B002B41D08F
:106D1000244B1B68002B03D101238DF80B3019E0A5
:106D2000039BD3E902011F4B1B68D3E90223904266
:106D300071EB03030ED201238DF80B30194B1B6846
:106D40001B7FDBB2002B05D0164B1B68194616487B
:106D500004F0D7FD9DF80B30002B1DD0FFF768FF26
:106D600003900DF10A0319460398FFF713FF03463A
:106D7000002B0BD00B4A039B13609DF80A3083F065
:106D80000103DBB2002BBAD000BF06E0054B0022A6
:106D90001A60B4E700BF00E000BF00BF05B05DF8B7
:106DA00004FB00BF20240020F885030000B587B055
:106DB00001902C4A03AB1946104602F0ECFF0590F7
:106DC00048E0059B1B78022B2ED0022B32DC002BD7
:106DD00002D0012B14D02DE0059B5B681B7FDBB23A
:106DE00083F00103DBB2002B26D0059B5B680122F8
:106DF0001A77059B5B6819461B4804F082FD1BE06F
:106E0000059B5A68194B1B689A4203D1174B002205
:106E10001A6012E0059B5B681946134804F0B8FD40
:106E200003468DF8133008E0FFF71EFF104B0122D8
:106E30001A7002E000BF00E000BF0A4A03AB194627
:106E4000104602F0C1FF074A03AB1946104602F094
:106E5000A2FF0590059B002BB3D100BF00BF07B078
:106E60005DF804FB90240020F88503002024002016
:106E70002424002000B583B00190019800F07AFC32
:106E80000346002B01D0FFF703FF0021019800F01B
:106E90008FFC0346002B02D00198FFF707FF01216A
:106EA000019800F085FC0346002B02D00198FFF703
:106EB00013FF0198FFF77AFF0198FFF71DFF00BF4E
:106EC00003B05DF804FB000008B5024800F092FC36
:106ED00000BF08BD0423002000B585B00346009123
:106EE0008DF80730114A02AB1946104602F026FF12
:106EF0000390039B002B13D0039B9DF807201A706F
:106F0000039B009A5A60094A02AB1946104602F0E8
:106F10002EFF0346002B01D0FFF7D6FF002300E031
:106F20000423184605B05DF804FB00BF9024002040
:106F300000B583B00023ADF8003006238DF8023091
:106F4000164808235822164902F0C5FE0190019BFD
:106F5000002B01D0019B1CE06B46124A19461248D7
:106F600000F034FA0190019B002B01D0019B10E04E
:106F700001210D4800F0EDFB01230C4A01210A48D4
:106F800000F097FA084800F087FA094B01221A70BE
:106F9000019B184603B05DF804FB00BF902400205D
:106FA00038240020756E020004230020FFFF7F00BC
:106FB0002424002086B003900B4601928DF80B30FC
:106FC000019B002B01D1072310E0039B1B68059355
:106FD000059B019A5A619DF80B30012B0CBF0123D0
:106FE0000023DBB21A46059B1A610023184606B03F
:106FF0007047F0B587B0039002910192039B05930F
:10700000059B1B7FDBB2002B01D000231CE0059BFE
:10701000019A9A61FFF712FD02460B460299002081
:107020000C460546161943EB0507059BC3E90267A5
:10703000059B1B69002B02D0059B029A1A610599DA
:107040000020FFF749FF0346184607B0F0BD00B522
:1070500085B00190019B0393039B00221A7703994B
:107060000120FFF739FF0346184605B05DF804FB21
:1070700008B5034800F0B1FB0346184608BD00BF41
:107080000423002082B0EFF310830093009B019350
:1070900072B600BF019B184602B0704762B600BFCF
:1070A00000BF704700B585B00190FFF7EBFF03907C
:1070B000164B9B68002B1BD1144B01229A60144B7A
:1070C000D3F88020134B1340104A1360104B114A21
:1070D000C3F880200E4BD3F884300C4A53600C4B1D
:1070E0004FF0FF32C3F88420019B00221A7002E0A7
:1070F000019B01221A70039B002B01D1FFF7CEFFE9
:107100000023184605B05DF804FB00BFA42400204E
:1071100000E100E0FC06FFBD00B585B003468DF838
:107120000730104B9B68002B16D09DF80730002BC2
:1071300012D1FFF7A7FF03900B4A0A4B1B6813609D
:10714000094A084B5B685360064B00229A60039B18
:10715000002B01D1FFF7A2FF0023184605B05DF810
:1071600004FB00BFA424002000E100E000B583B0D0
:1071700001900198FFF796FF00BF03B05DF804FB94
:1071800000B583B003468DF807309DF807301846E8
:10719000FFF7C2FF00BF03B05DF804FB82B00346F7
:1071A0008DF807309DF8073003F01F0205499DF95F
:1071B00007305B09012000FA02F241F8232000BFEA
:1071C00002B0704700E100E082B003468DF807305E
:1071D0009DF8073003F01F0206499DF907305B094F
:1071E000012000FA02F2403341F8232000BF02B030
:1071F000704700BF00E100E082B0034600918DF8C7
:1072000007309DF90730002B0CDA009BDAB20C49ED
:107210009DF8073003F00F03043B5201D2B20B4438
:107220001A7609E0009BDAB206499DF9073052014F
:10723000D2B20B4483F8002300BF02B0704700BFF6
:1072400000ED00E000E100E000B583B003460A462F
:107250008DF8073013468DF806309DF806209DF90D
:10726000073011461846FFF7C7FF00BF03B05DF8AF
:1072700004FB00B583B003468DF807309DF9073055
:107280001846FFF78BFF00BF03B05DF804FB00005A
:1072900000B585B00190019B002B0AD0074B43F04D
:1072A00001030393019B9B010293039B0298984760
:1072B00000E000BF05B05DF804FB00BF508603008E
:1072C00084B0039002910192039B029A02F5A87286
:1072D000019943F8221000BF04B0704782B00190BA
:1072E0000091019B009A02F5A87253F822301846CB
:1072F00002B0704782B001900091019B009AC3F8E0
:10730000042300BF02B0704782B001900091019B3E
:10731000009AC3F8082300BF02B0704782B0019002
:107320000B46ADF80230BDF80230019A13441B68D9
:10733000184602B0704784B001900B46ADF8023099
:10734000BDF80230019A134400221A60BDF80230E1
:10735000019A13441B680393039B00BF04B070475A
:1073600082B00190019BD3F80435184602B07047F3
:1073700082B001900091019B009AC3F8082500BFDC
:1073800002B0704782B001900B468DF803309DF833
:107390000320019B13441A460123136000BF02B06F
:1073A000704782B001900091019B009AC3F844237A
:1073B00000BF02B0704782B001900091019B009A1B
:1073C000C3F8482300BF02B07047000000B587B083
:1073D000039002910192039B5B791946284A019B15
:1073E00042F82130039B5B79264ADB0013441B796A
:1073F000002B0ED008230593234A244BD31ADB0815
:107400001B0443F00203224918460DF0F1FF059BCF
:1074100032E0039B1A68029B1B8819461046FFF74F
:10742000A7FF039B93F90420029B9B781946104603
:10743000FFF70AFF039B93F904301846FFF719FF83
:10744000039B5B790F4ADB00134401221A71039BF3
:107450005B7919460B4A039B42F8313000230593B0
:10746000094A0A4BD31ADB081B0443F003030949FA
:1074700018460DF0BDFF059B184607B05DF804FBEC
:10748000B0240020B424002034850300DC840300F1
:10749000048603002886030000B583B00190019B99
:1074A0001B6800211846FFF76DFF00BF03B05DF8B1
:1074B00004FB00B587B00390029101928DF8033070
:1074C0004FF48032029B02FA03F30593029B503380
:1074D0009BB29B00ADF81230019B23F07F430193D8
:1074E000039B1B6805991846FFF70EFF039B1B685B
:1074F00005991846FFF75FFF039B1B68BDF8122034
:1075000011461846FFF717FF039B1B68019A029963
:107510001846FFF7D5FE039B1B6805991846FFF731
:1075200040FF9DF80330002B05D0039B1B68059995
:107530001846FFF7DFFE00BF07B05DF804FB00B59B
:1075400085B00390029113468DF80730039B1B68AA
:1075500002991846FFF725FF9DF80730002B05D04C
:10756000039B1B6802991846FFF7C4FE00BF05B0D5
:107570005DF804FB00B583B001900091019B1B688E
:1075800000991846FFF717FF019B1B6800991846E2
:10759000FFF7BAFE00BF03B05DF804FB00B583B08F
:1075A00001900B46ADF80230019B1B68BDF802202C
:1075B00011461846FFF7B2FE0346002B09D0019B87
:1075C0001B68BDF8022011461846FFF7B4FE0123E0
:1075D00000E00023184603B05DF804FB82B0019080
:1075E0000091019A009BD31A23F07F43184602B002
:1075F000704700B58BB003900291019200934FF455
:107600008032029B02FA03F30993029B50339BB230
:107610009B00ADF82230019B23F07F430193099931
:107620000398FFF7A7FF039B1B681846FFF798FE18
:107630000790039B1B6802991846FFF74FFE0690C0
:10764000039B1B68079A02991846FFF739FE039BB4
:107650001B68BDF8222011461846FFF76CFE0799FB
:107660000698FFF7BBFF0346012B0AD11020FFF756
:107670000FFE039B1B68BDF8222011461846FFF73A
:107680005AFE039B1B681846FFF76AFE079007998E
:107690000198FFF7A3FF0590039B1B680999184603
:1076A000FFF77FFE059B012B15D1039B1868019BFB
:1076B00001331A460299FFF703FE1020FFF7E8FD99
:1076C000039B1B681846FFF74BFE0246079B93423D
:1076D00035D00D2339E0039B1B68019A02991846A7
:1076E000FFF7EEFD039B1B681846FFF739FE079076
:1076F000019B013B07991846FFF770FF0590009B1F
:10770000C3F1FF1303F57F43059A9A4201D90D2374
:107710001BE0059B002B12D1039B1868019B0133D2
:107720001A460299FFF7CCFD039B1B681846FFF72A
:1077300017FE0246079B934201D00D2305E001226C
:1077400009990398FFF7FBFE002318460BB05DF87C
:1077500004FB00B583B001900B468DF803309DF813
:1077600003301A4602210198FFF7E9FE00BF03B07B
:107770005DF804FB00B583B001904FF4827101986D
:10778000FFF70CFF0346184603B05DF804FB00B595
:1077900083B0019000914FF48032009B02FA03F312
:1077A00019460198FFF7E6FE00BF03B05DF804FB41
:1077B00000B585B001900091009B50339BB29B00B7
:1077C000ADF80E30BDF80E3019460198FFF7E6FE11
:1077D0000346184605B05DF804FB00B583B0019080
:1077E000019B1B681846FFF7BBFD0346184603B014
:1077F0005DF804FB00B583B00190019B93F9043060
:107800001846FFF7E1FC00BF03B05DF804FB000081
:1078100008B5044B1B68044A12681046984700BF1D
:1078200008BD00BFB0240020B424002072DF7047E0
:1078300000BF184673DF704700BF184674DF7047FB
:1078400000BF184600B583B003468DF80730074BDC
:107850001B68002B05D0054B1B689DF807201046C0
:10786000984700BF03B05DF804FB00BFBC240020B4
:1078700000B587B001900023059300F04FFD154B34
:107880001B68019A14491846FFF7D0FF0590059B25
:107890000493049B002B02D00498FFF769F80D4B6A
:1078A0001B681B7800211846FFF7C4FF0590059B55
:1078B000112B0AD0059B002B07D0059B0393039B3C
:1078C000002B02D00398FFF753F800BF07B05DF814
:1078D00004FB00BF042500201023002000B583B066
:1078E00001900B468DF8033013468DF802301822B4
:1078F0000021019810F017FD9DF80330002B01D0F6
:10790000052200E00122019B1A70019B00225A60AF
:10791000019B00221A75019B01225A759DF80330C4
:10792000002B13D00F4B1B881A464FF47A7302FBBF
:1079300003F30D4A82FB03121212DB17D31A1A4605
:10794000019B9A60019B00229A8106E0019BA02284
:107950009A60019B41F270729A8100BF03B05DF89A
:1079600004FB00BF0C230020AD8BDB6800B597B093
:107970004FF4EA43ADF80030184B1B788DF8023015
:1079800001AB3C220021184610F0CDFC02238DF8FB
:10799000043000238DF806300123ADF814306B4617
:1079A00006930F4B0F4A9A600D4B1F229A8101AB31
:1079B0000B49184600F012F90B4B1A7810AB002156
:1079C0001846FFF78BFF10AB1846FFF751FF012059
:1079D000FFF738FF00BF17B05DF804FBC22400209A
:1079E00010230020E4240020C124002000B583B02F
:1079F0000B4B1B681B781846FFF720FF0190019B7B
:107A0000082B07D0019B0093009B002B02D000980D
:107A1000FEF7AEFF00F078F900BF03B05DF804FB9D
:107A20000425002008B5074B1B7883F00103DBB267
:107A3000002B02D000F018F801E0FFF797FF00BF1D
:107A400008BD00BFC124002008B5064B1B7883F099
:107A50000103DBB2002B03D0FFF7C8FFFFF786FF5F
:107A600000BF08BDC024002008B5034B1B88184682
:107A700000F0FEF800BF08BD0C230020014B1B786E
:107A800018467047C124002000B583B00190019BC7
:107A90001B88262B14D0262B23DC102B02D0112B75
:107AA00006D01EE0124B01221A70FFF7DDFF1BE02B
:107AB0000F4B00221A70FFF799FFFFF7B3FF13E097
:107AC000019B1B7A012B0ED1094B1B7883F001031C
:107AD000DBB2002B07D00220FFF7B4FEFFF7A2FFB6
:107AE00001E000BF00E000BF00BF03B05DF804FB91
:107AF000C0240020014B1B88184670470C2300202F
:107B000000B59DB0039002910192334B1B6809931D
:107B100007AB00221A605A604FF6AA63ADF8103026
:107B2000029B002B06D0029A05AB92E8030083E883
:107B3000030005E005AB07AA92E8030083E8030011
:107B40000AAB3C220021184610F0EDFB00238DF813
:107B5000283006238DF82B300123ADF8383009ABDF
:107B60000F9304AB1493029B002B14BF012300233B
:107B7000DBB28DF85430019B1968019B1A1D0AABCA
:107B800018460EF0C9FF1B901B9B1A931A9B002BE3
:107B900002D01A98FEF7ECFE039B002B11D0019B3C
:107BA0009968019B0C331A4603980EF0B5FF1B90A1
:107BB0001B9B1993199B002B09D01998FEF7D8FE2F
:107BC00005E0019B00229A60019B00229A8100BF80
:107BD0001DB05DF804FB00BF5886030000B583B0FC
:107BE00001900091009A00210198FFF789FF00BFE2
:107BF00003B05DF804FB000000B58BB000F088FB1B
:107C00000990194B1B88ADF80430099B93F840315B
:107C10008DF80630099B03F5A1730293099B93F835
:107C200041318DF80C30099B03F247130493099BF3
:107C300093F84D318DF81430099B93F84C318DF841
:107C400015300A4B069301AB184600F09DF80890DA
:107C5000089B0793079B002B02D00798FEF788FE2E
:107C600000BF0BB05DF804FB282500202C25002068
:107C7000F0B587B00346ADF8063000F049FB05903B
:107C80001E4B01221A70059B93F84031002B32D015
:107C90001B4ABDF8063013801A4B0093184B1B8803
:107CA0009BB200221C4615464FF000024FF0000325
:107CB000EB0343EA5443E20312F5FA7643F100077B
:107CC0004FF47A724FF000033046394610F08EF9C7
:107CD00002460B461346002219460098FFF789F921
:107CE0000490049B0393039B002B02D00398FEF7A0
:107CF0003FFEFFF781FF00BF07B0F0BD5625002013
:107D00002825002008250020024B00221A7000BF01
:107D1000704700BF5625002082B00346ADF80630FC
:107D20000B468DF8053013468DF80430BDF806205B
:107D30009DF805309DF804105B1A92FBF3F39BB29B
:107D4000184602B0704784B0034600918DF80730A2
:107D500013468DF80630002303930CE0009A039B32
:107D600013441B789DF807209A4201D1012308E0B3
:107D7000039B013303939DF80630039A9A42EDD397
:107D80000023184604B0704700B589B00190019BEC
:107D9000002B01D10E23AEE000238DF81F30019B94
:107DA0001B7C002B05D0019B1B7A002B01D00123EB
:107DB00000E000238DF817309DF8173003F0010321
:107DC0008DF81730019B9B78002B01D1072392E09F
:107DD000019B1888019B9B789DF817201946FFF797
:107DE0009BFF0346ADF814300023069365E0019B2A
:107DF0005A68069B13441B788DF813309DF8173092
:107E000083F00103DBB2002B05D1019B5B7C9DF865
:107E100013209A424ED0019B5A699DF81F309B0057
:107E200013440393039B9DF813205A70039B002275
:107E30001A70039BBDF814205A809DF81F3001333F
:107E40008DF81F309DF81730002B33D0019BD96877
:107E5000019B1A7A9DF813301846FFF774FF03460A
:107E6000002B27D0019B5A699DF81F309B001344BB
:107E70000293039B4FF496725A80029B9DF8132045
:107E80005A70029B01221A70BDF81430B3F5967F28
:107E900007D9BDF81430A3F596739AB2029B5A80A5
:107EA00003E0029B4FF4FA725A809DF81F300133B1
:107EB0008DF81F30069B01330693019B9B781A4671
:107EC000069B934293D3019B5B699DF81F2083F827
:107ED0002820019B5B6993F82830002B0AD0019B76
:107EE0005A69019B5B6993F82830013B9B0013445E
:107EF00000225A800023184609B05DF804FB0000F8
:107F0000BFF34F8F00BF074BDB6803F4E062054906
:107F1000054B1343CB60BFF34F8F00BF00BF00BFC3
:107F2000FCE700BF00ED00E00400FA0508B5FFF72C
:107F3000E7FF42F20303184608BD000000B58FB00A
:107F400001900BAB00221A605A6008AB00221A6045
:107F50005A609A6006AB00221A605A6003AB002296
:107F60001A605A609A60019B5B88ADF80C30019BE7
:107F70005B680493019B1B8806AA08A9184601F0B8
:107F8000B9FC0D90019B9B7B002B04D10D9B002B1A
:107F900001D00D9B7BE0019B9B7B022B06D10D9BAF
:107FA00048F20962934201D1002370E0019B9B7B60
:107FB000022B58D0022B66DC002B02D0012B1ED0E6
:107FC00061E00BAA08AB1146184601F0AFFB0D901B
:107FD0000D9B002B01D00D9B59E0019B98680C99DB
:107FE000019B9B891A4610F075F908AB184601F001
:107FF000DBFB0D900D9B002B47D00D9B47E0019BB9
:108000005868019B9968019B9B891A4610F062F998
:10801000019B9B890333002B00DA03339B100593EC
:10802000019B1B88ADF80E300D9B48F2096293420C
:1080300007D103AA08AB1146184601F001FC0D90C8
:1080400006E003AA08AB1146184601F008FC0D90A3
:108050000D9B002B01D00D9B19E00F4B1B680133CA
:108060000D4A136012E008AB184601F00DFC0D90AC
:108070000D9B002B01D00D9B09E0074B1B680133C2
:10808000054A136002E000BF00E000BF002318466D
:108090000FB05DF804FB00BF5825002000B589B083
:1080A00001900B468DF803300523ADF80C3041F2FA
:1080B0003733ADF80E300A4B0493019B059304232C
:1080C000ADF818309DF803308DF81A3003AB184620
:1080D000FFF734FF0790079B184609B05DF804FBD3
:1080E000A826002000B587B0034600918DF8073020
:1080F00013468DF806309DF80730042B01D907236D
:108100001EE09DF80730104A32F81330ADF8083001
:1081100041F23733ADF80A309DF807300B4A52F878
:1081200023300393009B04934023ADF814309DF853
:1081300006308DF8163002AB1846FFF7FFFE0346F7
:10814000184607B05DF804FB202300202C230020F4
:1081500000B587B001900B468DF803300123ADF8D0
:10816000083041F23733ADF80A300A4B0393019BD4
:1081700004930723ADF814309DF803308DF81630C2
:1081800002AB1846FFF7DAFE0346184607B05DF863
:1081900004FB00BFA026002000B583B00190019B26
:1081A0001B88102B02D0112B05D013E0019B9A885D
:1081B0000A4B1A800EE0094B4FF6FF721A80084BEB
:1081C0001B78DBB2002B04D0054B00221A70FFF79E
:1081D000ADFE00BF00BF03B05DF804FB2A23002002
:1081E0005C25002082B003468DF807309DF80730EB
:1081F000044A742101FB03F3134468331B681846D7
:1082000002B07047AC26002082B003468DF80730DC
:108210009DF80730044A742101FB03F313446C33C7
:108220001B78184602B07047AC26002000B583B01A
:10823000034600918DF807309DF80730742202FB49
:1082400003F3054A134410221946009810F042F82F
:1082500000BF03B05DF804FBAC26002010B582B06F
:1082600003468DF807309DF80730284A9B011344D8
:108270002A331B78002B3DD09DF80730234A9B0101
:10828000134426331B78302B27D19DF807409DF8E7
:1082900007301846FFF7A6FF02461C49A3010B440E
:1082A0002C331A609DF807409DF807301846FFF7F9
:1082B000ABFF03461946154AA30113442B330A4664
:1082C0001A709DF807309B013033104A1A449DF80C
:1082D000073011461846FFF7A9FF9DF807309B01AC
:1082E0000A4A99189DF8073001221846FFF7FAFE4E
:1082F000034607E09DF80730022200211846FFF7E9
:10830000F1FE0346184602B010BD00BFF028002061
:10831000014B1846704700BFF0280020034B1B6834
:108320000133024A136000BF704700BF502A00208B
:1083300082B00190019B03F00303002B0CBF0123CB
:108340000023DBB2184602B07047000000B585B0CC
:108350000190002303930EE00B4A039B52F8233055
:10836000002B05D0084A039B52F823300198984708
:10837000039B01330393039B032BEDD900BF00BF85
:1083800005B05DF804FB00BF602A002082B00190B8
:108390000091019B1B78013B052B61D801A252F88B
:1083A00023F000BFBD830200C5830200EB830200FF
:1083B0001D8402003D84020059840200009B0022BB
:1083C0001A704EE0009B01221A70019B1A89009BD3
:1083D0009A81019B9A88009BDA81019BDA68009B55
:1083E0009A60009B00221A743BE0009B02221A70E4
:1083F000019B1A89009B9A81019B9A88009BDA81D4
:10840000019BDA68009B9A60019B9B7D062B0CBF49
:1084100001230023DAB2009B1A7422E0009B03229E
:108420001A70019BDA88009B9A81019B1A89009B34
:10843000DA81019BDA68009B9A6012E0009B0422BB
:108440001A70019BDA88009B9A81009B0022DA81D6
:10845000009B00229A6004E0009B05221A7000E055
:1084600000BF00BF02B0704784B001900091019B33
:108470000393039A009B9A4206D2039B1B68B3F1B5
:10848000FF3F01D0012300E0002303F00103DBB232
:10849000184604B0704782B00190019B5B8803339B
:1084A0009B00019A1344184602B0704700B583B090
:1084B000019000910198FFF7EEFF0246009B934266
:1084C00001D2022311E0019B9B884FF6FF72934279
:1084D00008D0019B1B88002B04D0019B9B68B3F143
:1084E000FF3F01D1012300E00023184603B05DF8EF
:1084F00004FB000000B583B00190019B002B13D05A
:108500000D4BDB681A46019B93420DD30A4B1B6946
:108510001A46019B934207D80198FFF709FF0346CB
:10852000002B01D0012300E0002303F00103DBB2A4
:10853000184603B05DF804FBF022002082B0034629
:108540000A46ADF806301346ADF80430BDF80620F3
:10855000134913469B0013449B000B4408331A88AD
:10856000BDF804301344ADF80430BDF806200C49C2
:1085700013469B0013449B000B440A331A88BDF832
:1085800004301344ADF80430BDF80430B3F5806F07
:1085900094BF01230023DBB2184602B0704700BF2E
:1085A000842A002084B00190009148F2096303936B
:1085B0000023ADF80A3027E0BDF80A20164913461B
:1085C0009B0013449B000B4404331B68009A9A429F
:1085D00015D9BDF80A20104913469B0013449B008F
:1085E0000B4404331B6803F58053009A9A4206D269
:1085F00000230393019BBDF80A201A8008E0BDF810
:108600000A300133ADF80A30BDF80A30082BD3D94F
:10861000039B184604B07047842A002082B0019062
:108620000091009B9B7D022B09D9019B1A89009B1D
:10863000DB8813449BB203339AB2019B1A81019BDE
:108640005A89009BDB88D31A9BB2033B9AB2019BE9
:108650005A8100BF02B0704700B583B0074B1B685A
:108660001946002300930823054A064802F016FA2B
:108670000346184603B05DF804FB00BF382B00200A
:108680005C860300F022002000B585B003900399BA
:10869000002300930823044A044802F0FFF903462C
:1086A000184605B05DF804FB64860300F022002044
:1086B00000B585B003460091ADF8063000238DF873
:1086C0000F30BDF806300333ADF80A30BDF80A307C
:1086D00040F2FE32934202D948F208634BE0002395
:1086E000ADF80C303BE0BDF80C20254913469B004B
:1086F00013449B000B441B78002B2BD1BDF80A20A0
:10870000BDF80C3011461846FFF718FF0346002B42
:1087100020D001238DF80F30009BBDF80C201A806B
:10872000BDF80C20164913469B0013449B000B44D4
:108730000A331988BDF80C20BDF80A300B4498B2F2
:108740000F4913469B0013449B000B440A33024617
:108750001A8008E0BDF80C300133ADF80C30BDF8DC
:108760000C30082BBFD99DF80F30002B01D000230F
:1087700001E048F20663184605B05DF804FB00BF4F
:10878000842A002082B003460A46ADF8063013461C
:10879000ADF80430BDF804200D4913469B00134486
:1087A0009B000B440A331A88BDF80630D31A9BB2DB
:1087B000BDF80420033B98B2054913469B001344BF
:1087C0009B000B440A3302461A8000BF02B0704778
:1087D000842A002008B50121024801F0C9FB0346A4
:1087E000184608BD702A002000B585B003460091E8
:1087F000ADF80630BDF80620244913469B0013440B
:108800009B000B4404331B6803F580530293009BC9
:108810001B680393039B002B04D00398FFF73BFED8
:10882000039026E0BDF80620184913469B00134428
:108830009B000B4404331B680833039319E002992F
:108840000398FFF733FE0346022B10D0022B10DCF7
:10885000002B02D0012B05D00BE0009B039A1A607D
:1088600001230EE00398FFF716FE039001E00023BA
:1088700007E002990398FFF7F7FD0346002BDED1CE
:108880000023184605B05DF804FB00BF842A0020D1
:1088900000B585B001900091019B5B681846FFF719
:1088A00029FE0346002B19D0019B1A89244B1B89F2
:1088B0009A4213D1019B1A68019B5B689B689A429C
:1088C0000CD1019B5B6819460098FFF76BFE0346CD
:1088D000002B0CBF01230023DBB22CE0009B002205
:1088E0001A8023E00023029310E0029B0393039B72
:1088F0009A68019B1B689A4208D1029A019B5A60B0
:108900000F4B1A89019B1A81012314E0009B1B88DD
:1089100002AA11461846FFF767FF0346002BE4D171
:10892000009B1B8801339AB2009B1A80009B1B8816
:10893000082BD7D90023184605B05DF804FB00BF0B
:10894000402B002000B587B0039002910192009364
:10895000324B1B78DBB283F00103DBB2002B02D079
:1089600048F2016355E0019B002B02D0009B002BD5
:1089700049D148F204634CE0009B9B881946284A81
:108980000B469B000B449B0013441B78002B33D1F8
:1089900024E0009B1B680593039B002B06D0059BDE
:1089A0009A88039B1B889A4200D017E0029B002BF9
:1089B00006D0059B1A88029B1B889A4200D00DE0C6
:1089C000059B9A68019B1A60009B1A68019B5A607C
:1089D000144B1A89019B1A8100231AE0009B9B8883
:1089E000009A11461846FFF7FFFE0346002BD0D130
:1089F000009B00221A6000E000BF009B9B880133AF
:108A00009AB2009B9A80009B9B88082BB4D948F2AD
:108A10000963184607B05DF804FB00BF542A002024
:108A2000842A0020402B002000B585B00190084B1F
:108A30000199184601F082F903901C220021039845
:108A40000FF071FC039B184605B05DF804FB00BFF6
:108A5000742A002000B583B00190044B0199184698
:108A600001F085F900BF03B05DF804FB742A002013
:108A700000B583B00190054B0199184601F08BF9C0
:108A80000346184603B05DF804FB00BF742A0020BB
:108A900000B583B00190044B0199184601F094F998
:108AA00000BF03B05DF804FB742A002008B5012163
:108AB000054801F075FA0346002B14BF012300237B
:108AC000DBB2184608BD00BF5C2A002000B587B0A5
:108AD00003900291039B02229A750299039B1A1D2F
:108AE000002300930423074801F0D8FF0590059B5D
:108AF000002B01D1002301E048F20D63184607B0B6
:108B00005DF804FBF022002000B587B003900291CD
:108B1000039B1B69002B01D0032200E00122039B71
:108B20009A75029B08331946039B03F10C0200233C
:108B300000930423074801F0B1FF0590059B002B2B
:108B400001D1002301E048F20D63184607B05DF83B
:108B500004FB00BFF022002000B587B00390029113
:108B6000039B1B78032B01D1052200E00622039B07
:108B70009A75029B04331946039B03F108020023F4
:108B800000930423074801F089FF0590059B002B03
:108B900001D1002301E048F20D63184607B05DF8EB
:108BA00004FB00BFF022002000B587B003900B4605
:108BB000ADF80A3003990023009304230D4A0E48B0
:108BC00001F06CFF0590059B002B02D048F20D636D
:108BD0000BE0BDF80A20094913469B0013449B0093
:108BE0000B44103301221A700023184607B05DF8B9
:108BF00004FB00BF6C860300F0220020842A0020C2
:108C000000B589B0019002AB00221A605A609A60E8
:108C1000019BDB6802930DF1160202AB1146184668
:108C2000FFF736FE0346002B12D0039B0693069BEC
:108C30009A88019BDA80069B1A88019B1A81039B04
:108C4000BDF8162011461846FFF7AEFF079002E068
:108C500048F209630793079B184609B05DF804FBC7
:108C600000B587B00190019B981D02AA0D4B002111
:108C7000FFF768FE0590059B002B08D1039B094A6E
:108C8000928811461846FFF78FFF059004E00822EE
:108C9000002104480FF047FB059B184607B05DF81C
:108CA00004FB00BF542B002000B587B00390029155
:108CB000039B01229A75029B0C331846039B1A6989
:108CC000039BDB889B00002100910146074801F0CF
:108CD000E5FE0590059B002B01D1002301E048F241
:108CE0000D63184607B05DF804FB00BFF0220020BA
:108CF00082B0184B1B8901339AB2164B1A81154B5F
:108D000000225A80134B0022DA740023ADF806309B
:108D100018E0BDF80620104913469B0013449B0041
:108D20000B441A78BDF80630002A0CBF012200223D
:108D3000D1B2084A13440A469A72BDF8063001338C
:108D4000ADF80630BDF80630082BE2D900BF00BFF1
:108D500002B07047402B0020842A002084B001908C
:108D600000238DF80F300023ADF80C3031E0BDF852
:108D70000C301C4A13449B7A002B25D0BDF80C30D4
:108D8000184A134400229A72BDF80C201649134663
:108D90009B0013449B000B440C331B68002B13D126
:108DA000BDF80C20104913469B0013449B000B4454
:108DB00010331B78002B07D0019BBDF80C201A80C4
:108DC00001238DF80F3008E0BDF80C300133ADF809
:108DD0000C30BDF80C30082BC9D99DF80F3018465F
:108DE00004B07047402B0020842A002008B5084BAF
:108DF00005221A70074B02229A80064B1B681946FF
:108E000000230122044801F02BFF0346184608BD49
:108E1000402B0020382B0020F022002000B583B02A
:108E2000164B5B88ADF80230BDF80220144913469A
:108E30009B0013449B000B440C331B68002B14D184
:108E40000E4B04221A70BDF802200D4913469B00F8
:108E500013449B000B4404331B6819460023012272
:108E6000084801F0FDFE019002E0FFF7BFFF01900E
:108E7000019B184603B05DF804FB00BF402B0020A7
:108E8000842A0020F022002000B587B0104B5B68D8
:108E90000593104B1A680F4B9B889B001344049357
:108EA000059B5B880333ADF80E30094B03221A7023
:108EB0000499074B5A68BDF80E309B0000200090C3
:108EC000054801F0EBFD0346184607B05DF804FBCA
:108ED000402B0020382B0020F022002000B583B06A
:108EE0000A4B5B880A491846FFF77EFC0346002BB5
:108EF00003D0FFF7C9FF019002E0FFF78FFF019059
:108F0000019B184603B05DF804FB00BF402B002016
:108F1000442B002008B50A4B06221A70084B5B88C8
:108F20001946084A0B469B000B449B00134404332C
:108F30001B681846FFF7A8FB0346184608BD00BF8C
:108F4000402B0020842A002008B5054B07221A7008
:108F5000034B00225A60FFF77FFB0346184608BD0B
:108F6000402B002008B50D48FFF7F8FE034683F0BC
:108F70000103DBB2002B0BD0094B00221A70084B07
:108F800000225A80064B00225A6041F61D5302E02F
:108F9000FFF7A4FF0346184608BD00BF422B002080
:108FA000402B002082B0094B5B680193019B5B88DA
:108FB0000333ADF80230064B9A88BDF802301344F3
:108FC0009AB2034B9A8000BF02B07047402B00203A
:108FD000382B002082B0184B1B680193174B5B881D
:108FE0001946174A0B469B000B449B00134404335D
:108FF0001B68114A1360114B5B881946104A0B46D7
:109000009B000B449B0013440433019A1A600B4BE2
:109010005B881946084B9888094A0B469B000B440D
:109020009B001344083302461A80034B02229A80A5
:1090300000BF02B0704700BF382B0020402B00203B
:10904000842A002008B51A4B1B78072B2CD801A2C4
:1090500052F823F075900200A9900200A990020036
:10906000819002008D900200999002009990020078
:10907000A1900200FFF73CFE0D4B01221A7014E094
:10908000FFF790FF0A4B02221A700EE0FFF7A2FFD3
:10909000074B06221A7008E0054B07221A7004E0FD
:1090A000034B01221A7000E000BF00BF08BD00BFE3
:1090B000402B002000B587B00190009148F20E636C
:1090C0000593019B002B05D0634B00225A604FF49F
:1090D0000643BCE0009B1B79032B00F2AB8001A28E
:1090E00052F823F0F59002000391020091910200E2
:1090F000B1910200009B01221A71FFF7ADFA0590B1
:109100009BE000238DF813300023ADF810302BE0E6
:10911000BDF81020514913469B0013449B000B449B
:109120001B78022B1BD1BDF810204C4913469B0025
:1091300013449B000B4400221A7001238DF8133056
:10914000BDF81020454913469B0013449B000B4477
:1091500004331B681846FFF797FA059008E0BDF83E
:1091600010300133ADF81030BDF81030082BCFD9D6
:109170009DF8133083F00103DBB2002B5CD0364B3B
:1091800001221A70344B00225A6041F61D535EE0F2
:10919000009B00221A71324B02229A80304B1B68CE
:1091A0001946002301222F4801F05AFD059044E0A2
:1091B000009B00221A712A4B1B681846FFF764FABD
:1091C0000590294B5B88ADF80E30254B1B68029348
:1091D000BDF80E20214913469B0013449B000B440D
:1091E00004331B681E4A1360BDF80E201B4913464A
:1091F0009B0013449B000B440433029A1A60BDF891
:109200000E20174B9888154913469B0013449B006A
:109210000B44083302461A80114B02229A80BDF893
:109220000E200E4913469B0013449B000B44002262
:109230001A7002E000BF00E000BF059B002B05D0C4
:10924000054B00225A6048F20D6300E000231846E7
:1092500007B05DF804FB00BF542A0020842A0020D8
:10926000382B0020F0220020402B002000B587B0D2
:1092700001900091009B9B8A1A4613469B00134461
:109280009B003B4A13440493019B002B06D000999A
:109290000498FFF7C3F94FF4064364E0049B5A684F
:1092A000049B1B899B0013440393009B9B7D062B0F
:1092B0004DD801A252F823F0FD9202002193020042
:1092C0000993020015930200D59202002D9302002B
:1092D00047930200274B00225A60009B9B69254A56
:1092E000136025492348FFF7D3FA034683F00103AF
:1092F000DBB2002B02D048F2096334E003990098F6
:10930000FFF7E4FB059026E003990098FFF7FCFBCC
:10931000059020E003990098FFF7C6FC05901AE03D
:1093200003990098FFF718FC059014E0009B0622B3
:109330009A75104B5B68104A128811461846FFF761
:1093400033FC059007E041F61D53059303E048F216
:109350000E63059300BF059B002B03D00099049872
:10936000FFF75CF9059B184607B05DF804FB00BFEA
:10937000842A00205C2B0020682B002000B585B0DB
:1093800001900091019B002B02D04FF4064329E08D
:10939000009B1B79022B1BD0022B1DDC002B02D063
:1093A000012B08D018E0009B02221A710098FFF7E9
:1093B00027FC039015E00098FFF752FC0390039BF5
:1093C00048F2096293420BD141F61D53039307E023
:1093D00041F61D53039304E048F20E63039300E04B
:1093E00000BF039B184605B05DF804FB00B585B0CF
:1093F0000190019B002B02D04FF406433DE0214B2E
:10940000DB7C002B03D01F4B0022DA7401E0FFF756
:1094100019FE1C4B1B78013B062B29D801A252F8E0
:1094200023F000BF419402004994020051940200CD
:109430005994020071940200619402006994020040
:10944000FFF790FD039017E0FFF748FD039013E04E
:10945000FFF71AFD03900FE0FFF7E0FC03900BE02D
:10946000FFF758FD039007E0FFF76EFD039003E060
:1094700048F20E63039300BF039B184605B05DF8E6
:1094800004FB00BF402B002000B589B001903B4B8E
:109490001B68002B05D13A48FFF7EAFA0346374A22
:1094A0001360364B1B681B78013B052B2BD801A2A0
:1094B00052F823F0CD940200DD940200DD94020006
:1094C000ED940200ED940200FD9402002B4B1B680A
:1094D00019460198FFF7EEFD019018E0274B1B6835
:1094E00019460198FFF7C2FE019010E0234B1B685C
:1094F00019460198FFF742FF019008E00198FFF735
:1095000075FF019003E048F20E63019300BF019BD9
:10951000002B2BD003AB00221A605A609A60DA60ED
:109520001A61019B41F61D52934201D0019B00E05C
:1095300000230493114B1B6803AA11461846FEF73B
:1095400025FF03AB1846FEF701FF0C4B00221A6003
:10955000002301930A48FFF79BFAFFF7A7FA034697
:1095600083F00103DBB2002B02D190E700BF00E0E3
:1095700000BF00BF09B05DF804FB00BF6C2B0020EA
:10958000702B002008B50121054800F0D9FC0346E6
:10959000002B02D10020FFF777FF00BF08BD00BFFE
:1095A0005C2A002000B583B00190019B5B681846DF
:1095B000FFF76AFF00BF03B05DF804FB00B58BB096
:1095C0000390029101928DF803300023ADF824300E
:1095D0000023ADF82630534B1B78DBB283F0010338
:1095E000DBB2002B02D048F2016397E0029B002B14
:1095F00002D148F2046391E0029B1B884FF6FF7290
:10960000934203D0029B5B88002B02D148F2036394
:1096100084E0029B5B681846FEF78AFE034683F0EF
:109620000103DBB2002B02D048F2026376E0019B1B
:10963000002B11D1029B9B68ADF826300DF11A0268
:10964000BDF8263011461846FFF732F80890089BFF
:10965000002B09D0089B61E0019B1B88ADF81A30F4
:10966000019B5B88ADF8263005AB1846FFF7DCF9A7
:109670000790079B002B0AD1BDF81A20BDF82630B1
:1096800011461846FFF77EF848F2076346E0079B4D
:109690009DF803201A70079B00229A75BDF81A20C6
:1096A000079B9A82029B5A68079B1A61FFF792F800
:1096B0000246079BDA60029B1A88079B1A81029B6D
:1096C0005A88079B9A80079BBDF82620DA809DF870
:1096D0000330032B06D1079B04229A75039B1A685B
:1096E000079B9A61079BBDF824205A8105AB184659
:1096F000FFF7B0F9039B002B0DD0039B00225A60AB
:10970000079BDA68039B1A60039B00229A72064B40
:109710001A89039B1A81FFF735FF002318460BB007
:109720005DF804FB542A0020402B002000B585B0D2
:1097300001900091019B002B02D0009B002B02D1D5
:1097400048F204632AE00DF10A0319460198FFF775
:109750009FF80346002B1FD0019B5B680393BDF865
:109760000A301A4613469B0013449B0008330D4AE7
:10977000134404330121184600F0FAFB009B039ABE
:109780001A60019B5B6803F10C02009B5A60019B0D
:1097900001229A72002301E048F20963184605B0DD
:1097A0005DF804FB842A002000B585B00190019B80
:1097B000002B02D148F204633BE00DF10A03194685
:1097C0000198FFF765F80346002B2ED0BDF80A304C
:1097D00019461A4A0B469B000B449B0013440C335A
:1097E0001B68002B1DD0019B9B7A002B19D0BDF864
:1097F0000A301A46114913469B0013449B000B4440
:109800000C331B68591E0D4813469B0013449B00E4
:1098100003440C331960019B00229A7200230393C6
:1098200006E048F20563039302E048F209630393FC
:10983000039B184605B05DF804FB00BF842A002096
:1098400000B583B001900091022300220099019895
:10985000FFF7B4FE0346184603B05DF804FB00B5FD
:1098600083B001900091019B002B02D148F2046368
:1098700006E00323002200990198FFF79FFE0346AC
:10988000184603B05DF804FB00B585B00190184B95
:109890001B78DBB283F00103DBB2002B02D048F26D
:1098A000016321E0019B002B02D148F204631BE01D
:1098B00002AB1846FFF7B8F80390039B002B02D1C8
:1098C00048F2076310E0039B04221A70039B0022F6
:1098D0001A71019B1A68039BDA6002AB1846FFF706
:1098E000B9F8FFF74FFE0023184605B05DF804FBFA
:1098F000542A002000B585B0034602910192ADF8CC
:109900000E300DF10E01019B029A0020FFF71AF8AC
:109910000346184605B05DF804FB86B0039002913B
:109920000192039B5B090593059B5B01039AD31A84
:109930000493029B059A1A60019B049A1A6000BF67
:1099400006B0704700B585B0019002AA03AB194676
:109950000198FFF7E2FF039B074A52F82310029B8E
:1099600001229A40039B0A43034941F8232000BF88
:1099700005B05DF804FB00BF942B002084B001907B
:109980000091002303931FE0019B002B10D0124A8B
:10999000039B52F82330019A9A4209D80F4A039B3D
:1099A00052F823200E49039B51F823309A4206D1E6
:1099B0000A4A039B52F82330009A9A4201D2039B31
:1099C00006E0039B01330393039B062BDCD90023A2
:1099D000184604B0704700BF7C860300B4860300BD
:1099E0009886030000B585B0019001990020FFF72B
:1099F000C5FF0390034A039B52F82330184605B075
:109A00005DF804FB7C86030000B585B0019002AAD6
:109A100003AB19460198FFF780FF039B084A52F8F1
:109A20002320029B22FA03F303F00103002B14BF4F
:109A300001230023DBB2184605B05DF804FB00BF2C
:109A4000942B002000B585B0019002AA03AB194603
:109A50000198FFF762FF039B084A52F82310029B0C
:109A6000012202FA03F3DA43039B0A40034941F857
:109A7000232000BF05B05DF804FB00BF942B00203D
:109A800000B589B0019000912D4B1B7883F0010344
:109A9000DBB2002B02D048F208134DE0019B002BF3
:109AA00002D148F20E1347E0009B002B02D148F28E
:109AB0000E1341E0009B1B680493049B002B02D013
:109AC000049B202B02D948F2071335E001210498AA
:109AD000FFF754FF03901B4A039B52F82330069371
:109AE000194A039B52F82330079348F20413059355
:109AF0001EE00698FFF776FF02900698FFF784FFB6
:109B00000346002B0DD0002305930698FFF79AFF1C
:109B1000079B0E4A1A44019B1A60009B029A1A6026
:109B200009E0079A029B13440793069B01330693AF
:109B3000069B002BDDD0059B184609B05DF804FBA1
:109B4000982B002098860300D0860300742B0020F9
:109B500000B587B0019000230493019B039303AAEF
:109B600004AB11461846FFF78BFF0590059B002BB1
:109B700001D000230493049B184607B05DF804FB52
:109B800000B585B00190174B1B7883F00103DBB261
:109B9000002B20D1019B002B1FD000230393002317
:109BA000029314E0039B104A1344019A9A4204D191
:109BB0000298FFF7C7FE00BF10E00298FFF712FF00
:109BC0000246039B13440393029B01330293029BBF
:109BD000002BE7D002E000BF00E000BF05B05DF859
:109BE00004FB00BF982B0020742B002086B001904E
:109BF0000091019B53E8011F8AB2D88902449889D9
:109C0000824228BF121A1889824202BFBFF32F8FE7
:109C1000002307E0C2EA010243E801200028E9D15D
:109C20004FF001038DF80F30059002910492029AD3
:109C3000009B1A609DF80F30DBB2184606B07047E3
:109C400084B00190019951E8013FC3EA034341E820
:109C50000132002AF7D10392029300BF04B070478B
:109C600086B001900091019B53E8021F1FFAA1F2F8
:109C7000D888824202BFBFF32F8F00230DE0D8891E
:109C800002449889824228BF121AC1EA024243E87C
:109C900002200028E8D14FF001038DF80F30059025
:109CA00002910492029A009B1A609DF80F30DBB279
:109CB000184606B0704784B00190019951E8023F00
:109CC000C3EA234341E80232002AF7D10392029308
:109CD00000BF04B0704784B00390029111461A4649
:109CE0000B46ADF806301346ADF80430029B002B4E
:109CF00001D10E231FE0BDF80630BDF80420B3FBF0
:109D0000F2F101FB02F29B1A9BB2002B01D0092356
:109D100011E0039B029A1A60039B00225A60039B86
:109D200000229A60039BBDF806209A81039BBDF830
:109D30000420DA810023184604B0704700B585B0CE
:109D400001900091009B19460198FFF74FFF0346D1
:109D5000002B07D0019B1B68009A128813440393C1
:109D6000039B00E00023184605B05DF804FB00B536
:109D700083B001900091009B1A88009B5B889A42F7
:109D800004D10198FFF75CFF012300E0002318468F
:109D900003B05DF804FB00B585B001900091009B15
:109DA00019460198FFF75CFF0346002B07D0019B83
:109DB0001B68009A528813440393039B00E000231E
:109DC000184605B05DF804FB00B583B00190009122
:109DD000009B1A88009B5B889A4204D10198FFF788
:109DE0006AFF012300E00023184603B05DF804FB7E
:109DF00000B585B001900091009B5B099B00019A22
:109E00001A44009B03F01F03012101FA03F31946D2
:109E1000104600F04DF8039000BF05B05DF804FB5C
:109E200000B585B001900091009B5B099B00019AF1
:109E30001A44009B03F01F03012101FA03F3DB43E3
:109E40001946104600F064F8039000BF05B05DF8B5
:109E500004FB82B001900091009B5B099B00019A7A
:109E600013441A68009B03F01F0322FA03F303F064
:109E70000103002B14BF01230023DBB2184602B0FC
:109E8000704710B487B001900091019B009A53E88D
:109E9000004F104643E8000191F0000FF7D1059400
:109EA00004900391059B184607B05DF8044B70477A
:109EB00010B487B001900091019B009A53E8004FC5
:109EC00044EA020043E8000191F0000FF6D1059446
:109ED00004900391049B184607B05DF8044B70474B
:109EE00010B487B001900091019B009A53E8004F95
:109EF00004EA020043E8000191F0000FF6D1059456
:109F000004900391059B184607B05DF8044B704719
:109F100010B487B001900091019B009A53E8004F64
:109F200004EA020043E8000191F0000FF6D1059425
:109F300004900391049B184607B05DF8044B7047EA
:109F400010B487B001900091019B009A53E8004F34
:109F500004EB020043E8000191F0000FF6D10594F4
:109F600004900391059B184607B05DF8044B7047B9
:109F700010B487B001900091019B009A53E8004F04
:109F800004EB020043E8000191F0000FF6D10594C4
:109F900004900391049B184607B05DF8044B70478A
:109FA00010B487B001900091019B009A53E8004FD4
:109FB000A4EB020043E8000191F0000FF6D10594F4
:109FC00004900391049B184607B05DF8044B70475A
:109FD00000B583B0019001210198FFF769FF0346A6
:109FE000184603B05DF804FB00B583B00190002172
:109FF0000198FFF775FF0346184603B05DF804FBB0
:10A0000082B001900B468DF80330019BDA689DF811
:10A0100003300199098A01FB03F31344184602B087
:10A02000704782B001900091009B019AD2689B1A00
:10A03000019A128AB3FBF2F3DBB2184602B0704702
:10A0400084B00190019B002B01D10E2320E0019BE5
:10A050009A68019B5B68D31A8DF80F30019B1B68CF
:10A06000019A52681A6007E0019B1A681368591C2C
:10A0700011609DF80F201A709DF80F305A1E8DF850
:10A080000F20002BF0D1019B1B6800221A710023C6
:10A09000184604B0704700B585B0019000230393C3
:10A0A00000238DF80A300DF10A031846FDF75EF81B
:10A0B000019B1B681A68019B5B689A421FD9019B30
:10A0C0001B681A68013A1A601B681B7819460198C8
:10A0D000FFF796FF0390019B9A68019B1B681B6822
:10A0E000D31A8DF80B30019B1B681B799DF80B2050
:10A0F0009A4204D9019B1B689DF80B201A719DF8A8
:10A100000A301846FDF73CF8039B184605B05DF889
:10A1100004FB10B584B001900091009B03930023D1
:10A120008DF80B300DF10B031846FDF71FF8019B5E
:10A130001B681C68621C1A6003990198FFF771FF85
:10A14000034623709DF80B301846FDF719F800BF41
:10A1500004B010BD6CDF704700BF184674DF704755
:10A1600000BF184630DF704700BF184631DF704728
:10A1700000BF184600B585B09DF800306FF3470367
:10A180008DF800300DF107031846FFF7EBFF04E0F0
:10A190000DF107031846FFF7E5FF9DF80730052B83
:10A1A000F6D96B46013306211846FFF7DFFF114B46
:10A1B0001B781846FFF7D2FF6B461846FFF7CAFF19
:10A1C0000390039B082BF7D0039B0293029B002B69
:10A1D00002D00298FCF7CCFBFDF750FC0346002BA5
:10A1E00002D0FDF731FC01E0FDF73EFC00BF05B0F9
:10A1F0005DF804FB4223002000B583B003468DF8D0
:10A2000007309DF80730002B02D00B4B01221A704B
:10A210000A4B1B884FF6FF72934209D1064B1B78FD
:10A22000002B06D0044B00221A70FFF7A3FF00E0BA
:10A2300000BF03B05DF804FB142C00204023002075
:10A24000024B002283F8742000BF70479C2B002033
:10A2500000B58DB0019004AB00221A60C3F8032052
:10A26000FEF756F80A90019B1B88102B02D0112B89
:10A2700009D06AE0019B9A88364B1A80364B1B6FD7
:10A2800000221A7061E0334B4FF6FF721A800023F0
:10A290000B9326E00B9BDBB21846FDF7DFFF09901E
:10A2A000099B0693069B002B02D00698FCF760FBE7
:10A2B0000A9A0B9B9B0113442A331B78002B14BF73
:10A2C00001230023DBB283F00103DBB203F00103BF
:10A2D000D9B204AA0B9B13440A461A700B9B013394
:10A2E0000B930B9B042BD5D904AB01211846FDF72A
:10A2F0002FFF0990099B0893089B002B02D0089818
:10A30000FCF736FBFDF7F6FB0346ADF80C30FDF726
:10A31000B5FB03468DF80E3003AB01211846FDF75F
:10A32000BDFE0990099B0793079B002B02D007985D
:10A33000FCF71EFB084B93F87430012B01D1FFF79B
:10A340007FFF0020FFF758FF00BF00BF0DB05DF892
:10A3500004FB00BF402300209C2B002000B585B0EB
:10A36000019000910198FDF78FFB01990A4809F0CF
:10A3700041FF0390039B0293029B002B02D00298A3
:10A38000FCF7F6FA0198FFF763FF0198FDF704FF69
:10A3900000BF05B05DF804FB9C2B002008B5FDF75D
:10A3A00053FB00BF08BD00B583B00190019B9B68C3
:10A3B000002B0CD0019B5B69019A1069019A11680E
:10A3C000019A92689847019B00229A6000E000BFC2
:10A3D00003B05DF804FB0EB400B584B00190059B9A
:10A3E000002B0AD00023039306AB039303AB1A465A
:10A3F0000599019800F0B4F900E000BF04B05DF8E1
:10A4000004EB03B0704700B583B001900B468DF8A4
:10A4100003309DF803300A2B03D10D210198FFF77B
:10A42000F2FF019B1A68019B9B68581C0199886088
:10A4300013449DF803201A70019B9A68019B5B6886
:10A440009A4202D30198FFF7AEFF00BF03B05DF858
:10A4500004FB00B587B003900291019200930023A2
:10A460000593009B03F00103002B24D00BE0029B1B
:10A4700001330293059B013305939DF81330194670
:10A480000398FFF7C0FF029B1B788DF813309DF8EF
:10A490001330002BEBD106E0019B013B01932021FF
:10A4A0000398FFF7B0FF019A059B9A422ED9019BB2
:10A4B000002BF1D12AE0029B002B0BD002980DF06B
:10A4C00087FF059006E0019B013B01932021039843
:10A4D000FFF799FF019A059B9A420FD9019B002B28
:10A4E000F1D10BE0029B01330293059B01330593ED
:10A4F0009DF8133019460398FFF785FF029B1B78E0
:10A500008DF813309DF81330002BEBD100BF07B04E
:10A510005DF804FB00B589B00390029101920093AD
:10A52000029B07930123069307E0079A019BB2FB66
:10A53000F3F30793069B01330693079A019B9A4214
:10A54000F3D2009A069B9A4201D9009B06930B9B7B
:10A5500003F00103002B22D10A9B002B1FD00B9B81
:10A5600003F00203002B06D0009B002B03D1302305
:10A570008DF8173002E020238DF8173008E00A9B91
:10A58000013B0A939DF8173019460398FFF73BFFEC
:10A590000A9B002B03D0069A0A9B9A42EFD3012311
:10A5A0000793009B012B03D9009B013B009309E01B
:10A5B000029A079BB2FBF3F30493049A019B9A421D
:10A5C00000D205E0079B019A02FB03F30793E8E73B
:10A5D000029A079BB2FBF3F30493049B079A02FBD6
:10A5E00003F3029AD31A0293154A049B13441B786F
:10A5F00019460398FFF707FF079A019BB2FBF3F395
:10A600000793079B002BE3D10B9B03F00103002B67
:10A6100011D00A9B002B0ED006E00A9B013B0A9347
:10A6200020210398FFF7EFFE0A9B002B03D0069A28
:10A630000A9B9A42F1D300BF09B05DF804FB00BF4A
:10A64000EC86030000B589B0059004910392029353
:10A65000049B002BB8BF5B4206930123079307E0DE
:10A66000039B069A92FBF3F30693079B0133079330
:10A67000039B069A9A42F3DA029A079B9A4201D9FF
:10A68000029B07930A9B002B0AD0049B002B04DB40
:10A690000B9B03F00403002B02D00A9B013B0A939F
:10A6A0000B9B03F00203002B02D0029B002B16D061
:10A6B0000B9B03F00103002B11D10A9B002B0ED042
:10A6C00006E00A9B013B0A9320210598FFF79BFEB9
:10A6D0000A9B002B03D0079A0A9B9A42F1D3049B52
:10A6E000002B07DA049B5B4204932D210598FFF7AA
:10A6F0008AFE08E00B9B03F00403002B03D02B2100
:10A700000598FFF780FE0B9B03F00203002B19D086
:10A710000B9B03F00103002B14D1029B002B11D1E2
:10A720000A9B002B0ED006E00A9B013B0A933021C6
:10A730000598FFF768FE0A9B002B03D0079A0A9B37
:10A740009A42F1D304990B9B01930A9B0093029BBD
:10A75000039A0598FFF7DEFE00BF09B05DF804FB21
:10A7600000B58FB0059004910392049B002B00F07C
:10A770009181049B1B788DF83730049B013304933F
:10A780009DF83730002B00F07C819DF83730252B69
:10A7900040F06B8100230A9301230C93049B1B78E8
:10A7A0008DF837309DF83730302B0DD0302B1BDC37
:10A7B0002B2B11D02D2B17D10A9B43F001030A93A9
:10A7C000049B0133049312E00A9B43F002030A93B3
:10A7D000049B013304930AE00A9B43F004030A93A9
:10A7E000049B0133049302E000230C9300BF0C9BF5
:10A7F000002BD3D1002309939DF837302A2B0CD19D
:10A80000039B1B68191D039A11601B68099A134466
:10A810000993049B013304931AE0049B1B788DF881
:10A8200037309DF837302F2B12D99DF83730392B20
:10A830000ED8049B01330493099A13469B001344DA
:10A840005B001A469DF837301344303B0993D3E739
:10A8500000230B93049B1B788DF837309DF837301D
:10A860002E2B1DD1049B01330493049B1B788DF880
:10A8700037309DF837302F2B12D99DF83730392BD0
:10A880000ED8049B013304930B9A13469B00134488
:10A890005B001A469DF837301344303B0B93E4E7D6
:10A8A000049B1B788DF837309DF837306C2B03D024
:10A8B0009DF83730682B07D1049B01330493049B28
:10A8C0001B788DF83730EFE79DF83730252B00F0F7
:10A8D000C280252BC0F2C480782B00F3C180582B96
:10A8E000C0F2BE80583B202B00F2BA8001A252F881
:10A8F00023F000BFE3A9020061AA020061AA0200DE
:10A9000061AA020061AA020061AA020061AA020013
:10A9100061AA020061AA020061AA020061AA020003
:10A9200079A902009BA9020061AA020061AA0200A3
:10A9300061AA020061AA02009BA9020061AA0200AA
:10A9400061AA020061AA020061AA020061AA0200D3
:10A9500061AA020023AA020061AA020061AA020001
:10A9600007AA020061AA0200BFA9020061AA0200B0
:10A9700061AA0200E3A90200039B1B68191D039A48
:10A9800011601B680C930C9B8DF81F309DF81F30D5
:10A9900019460598FFF737FD63E0039B1B68191DF7
:10A9A000039A11601B680C930A9B0193099B009307
:10A9B0000B9B0A220C990598FFF744FE51E0039B7C
:10A9C0001B68191D039A11601B680C930C990A9B54
:10A9D0000193099B00930B9B0A220598FFF79AFDB0
:10A9E0003FE0039B1B68191D039A11601B680C93C1
:10A9F0000C990A9B0193099B00930B9B10220598CD
:10AA0000FFF788FD2DE0039B1B68191D039A116059
:10AA10001B6808930A9B099A08990598FFF719FD86
:10AA20001FE0039B1B68191D039A11601B680C93A0
:10AA300030210598FFF7E7FC78210598FFF7E3FC44
:10AA40000C990023019308230093082310220598F2
:10AA5000FFF760FD05E025210598FFF7D4FC00E035
:10AA600000BF049B0133049305E09DF8373019467D
:10AA70000598FFF7C8FC049B1B78002B7FF479AE88
:10AA800000E000BF059B1B7B002B04D00598FFF75F
:10AA90008AFC00E000BF0FB05DF804FB10B586B083
:10AAA0000590049103920293059B002B10D1604AFC
:10AAB000604BD31ADB081B0443F001005E4A5F4978
:10AAC0000E2300930B465E490AF0C5FC0E23ABE053
:10AAD000039B002B10D1564A564BD31ADB081B049C
:10AAE00043F00100574A55490E2300930B46544941
:10AAF0000AF0B1FC0E2397E0059B1B68002B10D1D8
:10AB00004B4A4C4BD31ADB081B0443F001004E4A5E
:10AB10004A49082300930B4649490AF09CFC082344
:10AB200082E0029B002B10D1414A424BD31ADB0832
:10AB30001B0443F00100454A4049092300930B469A
:10AB40003F490AF088FC09236EE0059B5B685A6860
:10AB5000029BB3FBF2F101FB02F29B1A002B10D017
:10AB6000334A344BD31ADB081B0443F00100384A44
:10AB70003249092300930B4631490AF06CFC092342
:10AB800052E0049800F01EF90346002B10D1284A29
:10AB9000284BD31ADB081B0443F001002D4A274938
:10ABA000102300930B4626490AF055FC10233BE086
:10ABB000039B184600F006F90346002B10D11C4AEF
:10ABC0001C4BD31ADB081B0443F00100224A1B492B
:10ABD000102300930B461A490AF03DFC102323E092
:10ABE000029A0499059800F0D3F80346002B10D17F
:10ABF0000F4A104BD31ADB081B0443F00100174A1D
:10AC00000E49102300930B460D490AF024FC102333
:10AC10000AE0059B1B68DC68089B0093029B039A73
:10AC200004990598A0470346184606B010BD00BF1A
:10AC300054850300DC8403000C870300B088030004
:10AC400014870300A0870300488703005C87030084
:10AC5000A8870300D4870300EC8703001088030053
:10AC600010B586B00590049103920293059B002BCA
:10AC700010D13E4A3E4BD31ADB081B0443F00100BF
:10AC80003C4A3D490E2300930B463C490AF0E3FB46
:10AC90000E2368E0059B1B68002B10D1334A344B10
:10ACA000D31ADB081B0443F00100354A324908235C
:10ACB00000930B4631490AF0CEFB082353E0039B77
:10ACC000002B10D1294A2A4BD31ADB081B0443F06E
:10ACD00001002C4A2849092300930B4627490AF012
:10ACE000BAFB09233FE00499059800F078F8034681
:10ACF000002B10D11D4A1E4BD31ADB081B0443F056
:10AD00000100214A1C49102300930B461B490AF0FD
:10AD1000A2FB102327E0059B5B681B68039A02FBDC
:10AD200003F31A460499059800F032F80346002B05
:10AD300010D10E4A0E4BD31ADB081B0443F001005E
:10AD4000124A0D49102300930B460C490AF083FB6D
:10AD5000102308E0059B1B681C69029B039A049959
:10AD60000598A0470346184606B010BD5485030059
:10AD7000DC8403000C870300C488030014870300ED
:10AD8000488703005C87030038880300608803005D
:10AD900084B0039002910192039BDB68029A9A426D
:10ADA00009D3029A019B13445A1E039B1B699A42C2
:10ADB00001D8012300E0002303F00103DBB21846B1
:10ADC00004B0704782B00190019B03F00303002B95
:10ADD0000CBF01230023DBB2184602B0704782B0DB
:10ADE00001900091019B5B681B685A1E009B1340F9
:10ADF000002B0CBF01230023DBB2184602B07047C2
:10AE000029DF704700BF184628DF704700BF18468B
:10AE100000B589B001900091019B1B689B68002BD5
:10AE200035D002AB00221A605A609A60DA601A616B
:10AE30005A61009B0393019B9B680793019B1B79BD
:10AE4000002B02D0012B0DD01AE001238DF8083021
:10AE5000019B1B690493019BDB680593019B5B6964
:10AE600006930DE002238DF80830019BDB684FF458
:10AE7000805202FB03F30493019B5B69069300BFBE
:10AE8000019B1B689B6802AA1046984700E000BF20
:10AE900009B05DF804FB00B587B00190019B5A69C9
:10AEA000019B9B69D31AB3F5805F28BF4FF4805391
:10AEB00005930422059BB3FBF2F3012B38BF01235A
:10AEC0000593019B1A69019B9B6913440493019BA1
:10AED000DB681A46019B9B6913440393059A039907
:10AEE0000498FFF78DFF0346184607B05DF804FB92
:10AEF00000B583B00190019BDA68019B1B69134484
:10AF00001846FFF781FF0346184603B05DF804FBBF
:10AF100008B5034B03491846FEF756FF00BF08BDAE
:10AF2000182C0020402C002008B5084B0849184672
:10AF3000FEF731FF0346074A1360064B1B68002BE0
:10AF400014BF01230023DBB2184608BD182C0020D3
:10AF5000402C00203C2C002000B583B02A4B1B7AEB
:10AF6000002B0BD1FFF7E0FF034683F00103DBB2B8
:10AF7000002B03D0244B00225A6042E0224B0222D5
:10AF80001A72224B1B681B79002B02D0012B07D0B1
:10AF90000DE01E4B1B681846FFF77DFF019009E08E
:10AFA0001A4B1B681846FFF7A3FF019002E003232A
:10AFB000019300BF019B002B03D0019B112B0CD0F0
:10AFC0000FE0114B1B7C83F00103DBB2002B17D089
:10AFD0000021022000F06EF812E00B4B01221A72E1
:10AFE0000FE00A4B1B6803211846FFF711FF064BC1
:10AFF00000221A72044B00225A60FFF789FF00E01A
:10B0000000BF03B05DF804FB282C00203C2C00207E
:10B0100084B001901B4B0022DA60019B1B79002B4E
:10B0200002D0012B19D028E0019B5A69019B9B6932
:10B03000D31AB3F5805F28BF4FF480530393019B6D
:10B040009A69039B1A44019B9A61019B9A69019B2F
:10B050005B699A420ED1012310E0019B1B695A1CC7
:10B06000019B1A61019B1A69019B5B699A4203D19A
:10B07000012303E000BF00E000BF0023184604B036
:10B08000704700BF282C002082B00190084BDB687D
:10B090000133074AD360064BDB68082B04D9044B05
:10B0A0000022DA60012300E00023184602B0704756
:10B0B000282C002000B585B001900091019B022B47
:10B0C00002D0019B032B48D1274B1B7A022B05D0C2
:10B0D000022B35DC002B42D0012B31E000238DF810
:10B0E0000F30019B022B03D0019B032B09D011E0F1
:10B0F0001E4B1B681846FFF78BFF03468DF80F3079
:10B1000008E01A4B1B681846FFF7BEFF03468DF890
:10B110000F3000BF9DF80F30002B10D0124B0022D3
:10B120001A72124B1A68019B022B01D1002300E016
:10B130000D2319461046FFF76BFEFFF7E9FE00BF2F
:10B14000094B5B7C83F00103DBB2002B02D0FFF7DD
:10B1500003FF05E009F0F4FA02E000BF00E000BFE1
:10B1600005B05DF804FB00BF282C00203C2C00201B
:10B1700082B0034600918DF80730064B01225A74C5
:10B18000044B1B7A002B0CBF01230023DBB21846B3
:10B1900002B07047282C002000B583B00346009110
:10B1A0008DF807309DF80730012B03D09DF807304C
:10B1B000032B0DD1084B00225A749DF80730012B48
:10B1C0000CBF01230023DAB2034B1A74FFF7C4FE4D
:10B1D00000BF03B05DF804FB282C002000B583B04D
:10B1E00001900198FEF72CFF0346184603B05DF866
:10B1F00004FB00B58BB001900091019B1B8A043BBE
:10B200000793009A079B1344DA1C079BB2FBF3F3E6
:10B210008DF81B300198FEF73EFF0590059B002B33
:10B2200001D1002338E0059B00221A71059B012201
:10B230005A71079B9AB2059BDA80059B09939DF88A
:10B240001B30013B0493099B019A1A600023089369
:10B250001DE00198FEF71FFF0390039B002B0ED00B
:10B26000059B5B790133DAB2059B5A71099B039AFE
:10B270001A60039B019A1A60039B099304E00598E6
:10B2800000F00EF8002307E0089B01330893089AAA
:10B29000049B9A42DDD3059B18460BB05DF804FB76
:10B2A00000B58BB00190019B0793079B5B798DF8EC
:10B2B0001B30019B08939DF81B30013B0593002335
:10B2C000099305E0089B1B680893099B01330993C8
:10B2D000099A059B9A42F5D3089B1B680493019B2E
:10B2E0000893002309930BE0089B1B6803930899BC
:10B2F0000498FEF70EFF039B0893099B0133099303
:10B300009DF81B30099A9A42EED300BF00BF0BB0E4
:10B310005DF804FB00B585B00190019B0393039B8E
:10B32000043301211846FEF723FE00BF05B05DF887
:10B3300004FB00B587B00190019B0593059B043386
:10B3400001211846FEF72CFE0346039303AB04933A
:10B35000049B1B78002B02D10198FFF7A1FF00BFCF
:10B3600007B05DF804FB00B591B003900291019223
:10B370000093039B0993039B0F93099BDB881A4659
:10B38000099B5B7902FB03F3043B0893099BDB8871
:10B390000793009B1A1D079BB2FBF3F30E93009BD0
:10B3A0000433079AB3FBF2F2079901FB02F29B1AEE
:10B3B0000D93019B1A68009B1344089A9A4203D28A
:10B3C000089A009BD31A01E0019B1B680C93019B18
:10B3D0000C9A1A6005E00F9B1B680F930E9B013BB4
:10B3E0000E930E9B002BF6D100230B93079A0D9B17
:10B3F000D31A0A930A9A0C9B934228BF13460A93C6
:10B400002AE0029A0B9B134406930F9A0D9B134458
:10B41000043305939DF84830002B05D00A9A05990E
:10B4200006980CF057FF04E00A9A069905980CF06C
:10B4300051FF00230D930F9B1B680F930C9A0A9BDF
:10B44000D31A0C930B9A0A9B13440B93079A0C9BE9
:10B45000934228BF13460A930C9B002BD1D100BF07
:10B4600000BF11B05DF804FB00B589B005900491F0
:10B4700003920293039B079307AA00230093029B66
:10B4800004990598FFF76FFF00BF09B05DF804FB52
:10B4900000B589B00590049103920293039B079332
:10B4A00007AA01230093029B04990598FFF75BFF0D
:10B4B00000BF09B05DF804FB82B00190019B9B685E
:10B4C000024A12781344184602B07047E18803001C
:10B4D00082B001900091019B9B68009A9A4202D22F
:10B4E000009B013300E00023184602B0704700B50E
:10B4F00085B00190019B1B681B680393019B1B682F
:10B500005B680293029A039B9A4203D3029A039BBD
:10B51000D31A07E00198FFF7CFFF0246039BD21A28
:10B52000029B1344184605B05DF804FB00B585B0D6
:10B530000190019B1B681B680393019B1B685B6860
:10B54000029302990198FFF7C3FF0246039B9342BF
:10B550000CBF01230023DBB2184605B05DF804FBE5
:10B5600010B588B0019000910023069300238DF858
:10B570000F300DF10F031846FBF7F8FD0198FFF7A8
:10B58000D5FF03468DF81F309DF81F3083F001036F
:10B59000DBB2002B03D1019B1B7C002B7BD1019BD9
:10B5A0001B685B680593019B1B685A68019B1C68BC
:10B5B00011460198FFF78CFF034663609DF81F302A
:10B5C000002B0AD0019B1B681A68019B1C6811465E
:10B5D0000198FFF77DFF03462360019BDB68013B79
:10B5E000072B38D801A252F823F000BF0DB6020095
:10B5F0001DB6020057B602002FB6020057B6020071
:10B6000057B6020057B6020041B60200019B5A68C5
:10B61000059B1344009A12781A702DE0019B5A681A
:10B62000059B5B001344009A12881A8024E0019B5A
:10B630005A68059B9B001344009A12681A601BE02D
:10B64000019B5A68059BDB00D118009BD3E90023BE
:10B65000C1E9002310E0019B5B681946019BDB6890
:10B66000059A02FB03F30B441846019BDB681A465C
:10B6700000990CF02FFE00BF0198FFF738FF0490EF
:10B68000019B1B689B68049A9A4207D9019B1B681F
:10B69000049A9A6002E00423069300E000BF9DF83C
:10B6A0000F301846FBF76CFD069B184608B010BD1E
:10B6B00000B585B001900B468DF80330019B1B68E7
:10B6C0001B680393019B1B685B6802939DF8033022
:10B6D000002B0ED0029A039B9A4206D30198FFF7E3
:10B6E000EBFE0246029BD31A11E0039A029BD31A87
:10B6F0000DE0029A039B9A4203D3029A039BD31A4A
:10B7000005E00198FFF7D8FE0246039BD31A1846BE
:10B7100005B05DF804FB00B58BB003900291019277
:10B72000039B1B681B68099300210398FFF7C0FF68
:10B730000890039B5B681946039BDB68099A02FB30
:10B7400003F30B440793019A089B9A4219D8039B71
:10B75000DB68019A02FB03F31A46079902980CF082
:10B76000B9FD099A019B1A44039B9B689A4203D82E
:10B77000099A019B134400E00023039A12681360A6
:10B7800020E0039BDA68089B02FB03F30693069A0A
:10B79000079902980CF09EFD019A089BD31A059315
:10B7A000029A069B13441846039B5968039BDB6867
:10B7B000059A02FB03F31A460CF08CFD039B1B68F1
:10B7C000059A1A6000BF0BB05DF804FB00B587B0A6
:10B7D00003900291019200230593019B002B01D15C
:10B7E00000231CE000238DF813300DF113031846DD
:10B7F000FBF7BCFC0398FFF77AFE0246019B9342DD
:10B8000005D8019A02990398FFF785FF01E0052307
:10B8100005939DF813301846FBF7B2FC059B1846BC
:10B8200007B05DF804FB00B585B0019000238DF8EA
:10B830000F300DF10F031846FBF798FC019B1B68B6
:10B840000C22002118460CF06EFD9DF80F301846B2
:10B85000FBF796FC00BF05B05DF804FB82B00190D9
:10B86000019B9B6800229A60019B9B6800221A61E1
:10B87000019B9B6800225A61019B9B680022DA6051
:10B88000019B9B6800225A60019B9B6800221A6002
:10B8900000BF02B0704782B001900091019B009AF6
:10B8A0001A60019B1B681A68019B5A60019B5A68C9
:10B8B000019B1B685B689A4202D1019B00225A607F
:10B8C00000BF02B0704782B00190019B5B68002B03
:10B8D00014D0019B5B681A46019B1B689B6813444C
:10B8E0001A46019B5A60019B5A68019B1B685B6862
:10B8F0009A4204D1019B00225A6000E000BF02B0CE
:10B90000704700B585B001900091019B5B6803937F
:10B910000FE0019B9B68039A1268009910469847B4
:10B92000034683F00103DBB2002B07D1039B1B68A6
:10B930000393039B1B68002BEBD100E000BF039B2C
:10B940001A68009B1A60039B009A1A6000BF05B03A
:10B950005DF804FB84B00190019B5B681B68039356
:10B96000019B5B681B68002B06D0019B5B681A6813
:10B97000019B5B6812681A60039B184604B070470D
:10B9800082B00190019B5B681B68184602B070474B
:10B9900084B00190009100238DF80B30019B5B680F
:10B9A00003930FE0039B1B68009A9A4207D1009B08
:10B9B0001A68039B1A6001238DF80B3006E0039B85
:10B9C0001B680393039B1B68002BEBD19DF80B3086
:10B9D000184604B07047000000B585B0019001988A
:10B9E00000F00EF80390039B002B01D0039B00E0B6
:10B9F000024B184605B05DF804FB00BFF088030059
:10BA000086B00190164B0593164B04931FE0049AE1
:10BA1000059BD31ADB10DA0F13445B10DB00059A89
:10BA200013440393039B1B680293029A019B9A425F
:10BA300002D9039B04930AE0029A019B9A4203D223
:10BA4000039B0833059302E0039B5B6804E0059ABF
:10BA5000049B9A42DBD30023184606B0704700BF10
:10BA6000F08C0300188E030082B003468DF8073077
:10BA70009DF8073003F01F0205499DF907305B0967
:10BA8000012000FA02F241F8232000BF02B0704703
:10BA900000E100E082B003468DF807309DF80730E2
:10BAA00003F01F0206499DF907305B09012000FAE7
:10BAB00002F2203341F8232000BF02B0704700BFDC
:10BAC00000E100E082B0034600918DF807309DF957
:10BAD0000730002B0CDA009BDAB20C499DF80730D6
